{
  "_format": "hh-sol-artifact-1",
  "contractName": "Gitsec",
  "sourceName": "contracts/Gitsec.sol",
  "abi": [
    {
      "inputs": [
        {
          "internalType": "string",
          "name": "name",
          "type": "string"
        },
        {
          "internalType": "string",
          "name": "symbol",
          "type": "string"
        }
      ],
      "stateMutability": "nonpayable",
      "type": "constructor"
    },
    {
      "inputs": [],
      "name": "ApprovalCallerNotOwnerNorApproved",
      "type": "error"
    },
    {
      "inputs": [],
      "name": "ApprovalQueryForNonexistentToken",
      "type": "error"
    },
    {
      "inputs": [],
      "name": "BalanceQueryForZeroAddress",
      "type": "error"
    },
    {
      "inputs": [],
      "name": "MintERC2309QuantityExceedsLimit",
      "type": "error"
    },
    {
      "inputs": [],
      "name": "MintToZeroAddress",
      "type": "error"
    },
    {
      "inputs": [],
      "name": "MintZeroQuantity",
      "type": "error"
    },
    {
      "inputs": [],
      "name": "OwnerQueryForNonexistentToken",
      "type": "error"
    },
    {
      "inputs": [],
      "name": "OwnershipNotInitializedForExtraData",
      "type": "error"
    },
    {
      "inputs": [],
      "name": "TransferCallerNotOwnerNorApproved",
      "type": "error"
    },
    {
      "inputs": [],
      "name": "TransferFromIncorrectOwner",
      "type": "error"
    },
    {
      "inputs": [],
      "name": "TransferToNonERC721ReceiverImplementer",
      "type": "error"
    },
    {
      "inputs": [],
      "name": "TransferToZeroAddress",
      "type": "error"
    },
    {
      "inputs": [],
      "name": "URIQueryForNonexistentToken",
      "type": "error"
    },
    {
      "anonymous": false,
      "inputs": [
        {
          "indexed": true,
          "internalType": "address",
          "name": "owner",
          "type": "address"
        },
        {
          "indexed": true,
          "internalType": "address",
          "name": "approved",
          "type": "address"
        },
        {
          "indexed": true,
          "internalType": "uint256",
          "name": "tokenId",
          "type": "uint256"
        }
      ],
      "name": "Approval",
      "type": "event"
    },
    {
      "anonymous": false,
      "inputs": [
        {
          "indexed": true,
          "internalType": "address",
          "name": "owner",
          "type": "address"
        },
        {
          "indexed": true,
          "internalType": "address",
          "name": "operator",
          "type": "address"
        },
        {
          "indexed": false,
          "internalType": "bool",
          "name": "approved",
          "type": "bool"
        }
      ],
      "name": "ApprovalForAll",
      "type": "event"
    },
    {
      "anonymous": false,
      "inputs": [
        {
          "indexed": true,
          "internalType": "uint256",
          "name": "fromTokenId",
          "type": "uint256"
        },
        {
          "indexed": false,
          "internalType": "uint256",
          "name": "toTokenId",
          "type": "uint256"
        },
        {
          "indexed": true,
          "internalType": "address",
          "name": "from",
          "type": "address"
        },
        {
          "indexed": true,
          "internalType": "address",
          "name": "to",
          "type": "address"
        }
      ],
      "name": "ConsecutiveTransfer",
      "type": "event"
    },
    {
      "anonymous": false,
      "inputs": [
        {
          "indexed": true,
          "internalType": "uint256",
          "name": "repId",
          "type": "uint256"
        },
        {
          "indexed": true,
          "internalType": "address",
          "name": "owner",
          "type": "address"
        },
        {
          "indexed": false,
          "internalType": "string",
          "name": "IPFS",
          "type": "string"
        }
      ],
      "name": "IPFSHashUpdated",
      "type": "event"
    },
    {
      "anonymous": false,
      "inputs": [
        {
          "indexed": true,
          "internalType": "address",
          "name": "previousOwner",
          "type": "address"
        },
        {
          "indexed": true,
          "internalType": "address",
          "name": "newOwner",
          "type": "address"
        }
      ],
      "name": "OwnershipTransferred",
      "type": "event"
    },
    {
      "anonymous": false,
      "inputs": [
        {
          "indexed": false,
          "internalType": "uint256",
          "name": "repId",
          "type": "uint256"
        },
        {
          "indexed": false,
          "internalType": "string",
          "name": "repName",
          "type": "string"
        },
        {
          "indexed": false,
          "internalType": "address",
          "name": "owner",
          "type": "address"
        },
        {
          "indexed": false,
          "internalType": "string",
          "name": "description",
          "type": "string"
        }
      ],
      "name": "RepositoryCreated",
      "type": "event"
    },
    {
      "anonymous": false,
      "inputs": [
        {
          "indexed": false,
          "internalType": "uint256",
          "name": "repId",
          "type": "uint256"
        },
        {
          "indexed": false,
          "internalType": "string",
          "name": "repName",
          "type": "string"
        },
        {
          "indexed": false,
          "internalType": "address",
          "name": "owner",
          "type": "address"
        },
        {
          "indexed": false,
          "internalType": "string",
          "name": "description",
          "type": "string"
        },
        {
          "indexed": false,
          "internalType": "string",
          "name": "url",
          "type": "string"
        }
      ],
      "name": "RepositoryForked",
      "type": "event"
    },
    {
      "anonymous": false,
      "inputs": [
        {
          "indexed": true,
          "internalType": "address",
          "name": "from",
          "type": "address"
        },
        {
          "indexed": true,
          "internalType": "address",
          "name": "to",
          "type": "address"
        },
        {
          "indexed": true,
          "internalType": "uint256",
          "name": "tokenId",
          "type": "uint256"
        }
      ],
      "name": "Transfer",
      "type": "event"
    },
    {
      "inputs": [],
      "name": "admin",
      "outputs": [
        {
          "internalType": "address",
          "name": "",
          "type": "address"
        }
      ],
      "stateMutability": "view",
      "type": "function"
    },
    {
      "inputs": [
        {
          "internalType": "address",
          "name": "to",
          "type": "address"
        },
        {
          "internalType": "uint256",
          "name": "tokenId",
          "type": "uint256"
        }
      ],
      "name": "approve",
      "outputs": [],
      "stateMutability": "payable",
      "type": "function"
    },
    {
      "inputs": [
        {
          "internalType": "address",
          "name": "owner",
          "type": "address"
        }
      ],
      "name": "balanceOf",
      "outputs": [
        {
          "internalType": "uint256",
          "name": "",
          "type": "uint256"
        }
      ],
      "stateMutability": "view",
      "type": "function"
    },
    {
      "inputs": [
        {
          "internalType": "string",
          "name": "name",
          "type": "string"
        },
        {
          "internalType": "string",
          "name": "description",
          "type": "string"
        }
      ],
      "name": "createRepository",
      "outputs": [
        {
          "internalType": "uint256",
          "name": "",
          "type": "uint256"
        }
      ],
      "stateMutability": "nonpayable",
      "type": "function"
    },
    {
      "inputs": [
        {
          "internalType": "uint256",
          "name": "id",
          "type": "uint256"
        }
      ],
      "name": "deleteRepository",
      "outputs": [],
      "stateMutability": "nonpayable",
      "type": "function"
    },
    {
      "inputs": [
        {
          "internalType": "string",
          "name": "name",
          "type": "string"
        },
        {
          "internalType": "string",
          "name": "description",
          "type": "string"
        },
        {
          "internalType": "string",
          "name": "url",
          "type": "string"
        }
      ],
      "name": "forkRepository",
      "outputs": [
        {
          "internalType": "uint256",
          "name": "",
          "type": "uint256"
        }
      ],
      "stateMutability": "nonpayable",
      "type": "function"
    },
    {
      "inputs": [],
      "name": "getAllRepositories",
      "outputs": [
        {
          "components": [
            {
              "internalType": "uint256",
              "name": "id",
              "type": "uint256"
            },
            {
              "internalType": "string",
              "name": "name",
              "type": "string"
            },
            {
              "internalType": "string",
              "name": "description",
              "type": "string"
            },
            {
              "internalType": "address",
              "name": "owner",
              "type": "address"
            },
            {
              "internalType": "string",
              "name": "IPFS",
              "type": "string"
            },
            {
              "internalType": "uint256",
              "name": "lastUpdate",
              "type": "uint256"
            },
            {
              "internalType": "string",
              "name": "forkedFrom",
              "type": "string"
            }
          ],
          "internalType": "struct Gitsec.Repository[]",
          "name": "",
          "type": "tuple[]"
        }
      ],
      "stateMutability": "view",
      "type": "function"
    },
    {
      "inputs": [
        {
          "internalType": "uint256",
          "name": "tokenId",
          "type": "uint256"
        }
      ],
      "name": "getApproved",
      "outputs": [
        {
          "internalType": "address",
          "name": "",
          "type": "address"
        }
      ],
      "stateMutability": "view",
      "type": "function"
    },
    {
      "inputs": [
        {
          "internalType": "uint256",
          "name": "id",
          "type": "uint256"
        }
      ],
      "name": "getRepository",
      "outputs": [
        {
          "components": [
            {
              "internalType": "uint256",
              "name": "id",
              "type": "uint256"
            },
            {
              "internalType": "string",
              "name": "name",
              "type": "string"
            },
            {
              "internalType": "string",
              "name": "description",
              "type": "string"
            },
            {
              "internalType": "address",
              "name": "owner",
              "type": "address"
            },
            {
              "internalType": "string",
              "name": "IPFS",
              "type": "string"
            },
            {
              "internalType": "uint256",
              "name": "lastUpdate",
              "type": "uint256"
            },
            {
              "internalType": "string",
              "name": "forkedFrom",
              "type": "string"
            }
          ],
          "internalType": "struct Gitsec.Repository",
          "name": "",
          "type": "tuple"
        }
      ],
      "stateMutability": "view",
      "type": "function"
    },
    {
      "inputs": [
        {
          "internalType": "address",
          "name": "user",
          "type": "address"
        }
      ],
      "name": "getUserRepositories",
      "outputs": [
        {
          "components": [
            {
              "internalType": "uint256",
              "name": "id",
              "type": "uint256"
            },
            {
              "internalType": "string",
              "name": "name",
              "type": "string"
            },
            {
              "internalType": "string",
              "name": "description",
              "type": "string"
            },
            {
              "internalType": "address",
              "name": "owner",
              "type": "address"
            },
            {
              "internalType": "string",
              "name": "IPFS",
              "type": "string"
            },
            {
              "internalType": "uint256",
              "name": "lastUpdate",
              "type": "uint256"
            },
            {
              "internalType": "string",
              "name": "forkedFrom",
              "type": "string"
            }
          ],
          "internalType": "struct Gitsec.Repository[]",
          "name": "",
          "type": "tuple[]"
        }
      ],
      "stateMutability": "view",
      "type": "function"
    },
    {
      "inputs": [
        {
          "internalType": "address",
          "name": "owner",
          "type": "address"
        },
        {
          "internalType": "address",
          "name": "operator",
          "type": "address"
        }
      ],
      "name": "isApprovedForAll",
      "outputs": [
        {
          "internalType": "bool",
          "name": "",
          "type": "bool"
        }
      ],
      "stateMutability": "view",
      "type": "function"
    },
    {
      "inputs": [],
      "name": "name",
      "outputs": [
        {
          "internalType": "string",
          "name": "",
          "type": "string"
        }
      ],
      "stateMutability": "view",
      "type": "function"
    },
    {
      "inputs": [],
      "name": "owner",
      "outputs": [
        {
          "internalType": "address",
          "name": "",
          "type": "address"
        }
      ],
      "stateMutability": "view",
      "type": "function"
    },
    {
      "inputs": [
        {
          "internalType": "uint256",
          "name": "tokenId",
          "type": "uint256"
        }
      ],
      "name": "ownerOf",
      "outputs": [
        {
          "internalType": "address",
          "name": "",
          "type": "address"
        }
      ],
      "stateMutability": "view",
      "type": "function"
    },
    {
      "inputs": [],
      "name": "renounceOwnership",
      "outputs": [],
      "stateMutability": "nonpayable",
      "type": "function"
    },
    {
      "inputs": [
        {
          "internalType": "address",
          "name": "from",
          "type": "address"
        },
        {
          "internalType": "address",
          "name": "to",
          "type": "address"
        },
        {
          "internalType": "uint256",
          "name": "tokenId",
          "type": "uint256"
        }
      ],
      "name": "safeTransferFrom",
      "outputs": [],
      "stateMutability": "payable",
      "type": "function"
    },
    {
      "inputs": [
        {
          "internalType": "address",
          "name": "from",
          "type": "address"
        },
        {
          "internalType": "address",
          "name": "to",
          "type": "address"
        },
        {
          "internalType": "uint256",
          "name": "tokenId",
          "type": "uint256"
        },
        {
          "internalType": "bytes",
          "name": "_data",
          "type": "bytes"
        }
      ],
      "name": "safeTransferFrom",
      "outputs": [],
      "stateMutability": "payable",
      "type": "function"
    },
    {
      "inputs": [
        {
          "internalType": "address",
          "name": "newAdmin",
          "type": "address"
        }
      ],
      "name": "setAdmin",
      "outputs": [],
      "stateMutability": "nonpayable",
      "type": "function"
    },
    {
      "inputs": [
        {
          "internalType": "address",
          "name": "operator",
          "type": "address"
        },
        {
          "internalType": "bool",
          "name": "approved",
          "type": "bool"
        }
      ],
      "name": "setApprovalForAll",
      "outputs": [],
      "stateMutability": "nonpayable",
      "type": "function"
    },
    {
      "inputs": [
        {
          "internalType": "bytes4",
          "name": "interfaceId",
          "type": "bytes4"
        }
      ],
      "name": "supportsInterface",
      "outputs": [
        {
          "internalType": "bool",
          "name": "",
          "type": "bool"
        }
      ],
      "stateMutability": "view",
      "type": "function"
    },
    {
      "inputs": [],
      "name": "symbol",
      "outputs": [
        {
          "internalType": "string",
          "name": "",
          "type": "string"
        }
      ],
      "stateMutability": "view",
      "type": "function"
    },
    {
      "inputs": [
        {
          "internalType": "uint256",
          "name": "tokenId",
          "type": "uint256"
        }
      ],
      "name": "tokenURI",
      "outputs": [
        {
          "internalType": "string",
          "name": "",
          "type": "string"
        }
      ],
      "stateMutability": "view",
      "type": "function"
    },
    {
      "inputs": [],
      "name": "totalSupply",
      "outputs": [
        {
          "internalType": "uint256",
          "name": "",
          "type": "uint256"
        }
      ],
      "stateMutability": "view",
      "type": "function"
    },
    {
      "inputs": [
        {
          "internalType": "address",
          "name": "from",
          "type": "address"
        },
        {
          "internalType": "address",
          "name": "to",
          "type": "address"
        },
        {
          "internalType": "uint256",
          "name": "tokenId",
          "type": "uint256"
        }
      ],
      "name": "transferFrom",
      "outputs": [],
      "stateMutability": "payable",
      "type": "function"
    },
    {
      "inputs": [
        {
          "internalType": "address",
          "name": "newOwner",
          "type": "address"
        }
      ],
      "name": "transferOwnership",
      "outputs": [],
      "stateMutability": "nonpayable",
      "type": "function"
    },
    {
      "inputs": [
        {
          "internalType": "uint256",
          "name": "id",
          "type": "uint256"
        },
        {
          "internalType": "string",
          "name": "newDescription",
          "type": "string"
        }
      ],
      "name": "updateDescription",
      "outputs": [],
      "stateMutability": "nonpayable",
      "type": "function"
    },
    {
      "inputs": [
        {
          "internalType": "uint256",
          "name": "id",
          "type": "uint256"
        },
        {
          "internalType": "string",
          "name": "newIPFS",
          "type": "string"
        }
      ],
      "name": "updateIPFS",
      "outputs": [],
      "stateMutability": "nonpayable",
      "type": "function"
    }
  ],
  "bytecode": "0x60806040523480156200001157600080fd5b5060405162004c3f38038062004c3f833981810160405281019062000037919062000307565b818181600290816200004a9190620005d7565b5080600390816200005c9190620005d7565b506200006d6200009d60201b60201c565b60008190555050506200009562000089620000a660201b60201c565b620000ae60201b60201c565b5050620006be565b60006001905090565b600033905090565b6000600860009054906101000a900473ffffffffffffffffffffffffffffffffffffffff16905081600860006101000a81548173ffffffffffffffffffffffffffffffffffffffff021916908373ffffffffffffffffffffffffffffffffffffffff1602179055508173ffffffffffffffffffffffffffffffffffffffff168173ffffffffffffffffffffffffffffffffffffffff167f8be0079c531659141344cd1fd0a4f28419497f9722a3daafe3b4186f6b6457e060405160405180910390a35050565b6000604051905090565b600080fd5b600080fd5b600080fd5b600080fd5b6000601f19601f8301169050919050565b7f4e487b7100000000000000000000000000000000000000000000000000000000600052604160045260246000fd5b620001dd8262000192565b810181811067ffffffffffffffff82111715620001ff57620001fe620001a3565b5b80604052505050565b60006200021462000174565b9050620002228282620001d2565b919050565b600067ffffffffffffffff821115620002455762000244620001a3565b5b620002508262000192565b9050602081019050919050565b60005b838110156200027d57808201518184015260208101905062000260565b60008484015250505050565b6000620002a06200029a8462000227565b62000208565b905082815260208101848484011115620002bf57620002be6200018d565b5b620002cc8482856200025d565b509392505050565b600082601f830112620002ec57620002eb62000188565b5b8151620002fe84826020860162000289565b91505092915050565b600080604083850312156200032157620003206200017e565b5b600083015167ffffffffffffffff81111562000342576200034162000183565b5b6200035085828601620002d4565b925050602083015167ffffffffffffffff81111562000374576200037362000183565b5b6200038285828601620002d4565b9150509250929050565b600081519050919050565b7f4e487b7100000000000000000000000000000000000000000000000000000000600052602260045260246000fd5b60006002820490506001821680620003df57607f821691505b602082108103620003f557620003f462000397565b5b50919050565b60008190508160005260206000209050919050565b60006020601f8301049050919050565b600082821b905092915050565b6000600883026200045f7fffffffffffffffffffffffffffffffffffffffffffffffffffffffffffffffff8262000420565b6200046b868362000420565b95508019841693508086168417925050509392505050565b6000819050919050565b6000819050919050565b6000620004b8620004b2620004ac8462000483565b6200048d565b62000483565b9050919050565b6000819050919050565b620004d48362000497565b620004ec620004e382620004bf565b8484546200042d565b825550505050565b600090565b62000503620004f4565b62000510818484620004c9565b505050565b5b8181101562000538576200052c600082620004f9565b60018101905062000516565b5050565b601f82111562000587576200055181620003fb565b6200055c8462000410565b810160208510156200056c578190505b620005846200057b8562000410565b83018262000515565b50505b505050565b600082821c905092915050565b6000620005ac600019846008026200058c565b1980831691505092915050565b6000620005c7838362000599565b9150826002028217905092915050565b620005e2826200038c565b67ffffffffffffffff811115620005fe57620005fd620001a3565b5b6200060a8254620003c6565b620006178282856200053c565b600060209050601f8311600181146200064f57600084156200063a578287015190505b620006468582620005b9565b865550620006b6565b601f1984166200065f86620003fb565b60005b82811015620006895784890151825560018201915060208501945060208101905062000662565b86831015620006a95784890151620006a5601f89168262000599565b8355505b6001600288020188555050505b505050505050565b61457180620006ce6000396000f3fe60806040526004361061019c5760003560e01c806370a08231116100ec578063a22cb4651161008a578063c87b56dd11610064578063c87b56dd146105b4578063e985e9c5146105f1578063f2fde38b1461062e578063f851a440146106575761019c565b8063a22cb46514610532578063b88d4fde1461055b578063c2692760146105775761019c565b80637fcc83be116100c65780637fcc83be146104885780638da5cb5b146104b357806392e41c6e146104de57806395d89b41146105075761019c565b806370a08231146103f7578063715018a6146104345780637d2d7e301461044b5761019c565b80631e8428b11161015957806342842e0e1161013357806342842e0e146103385780635be08933146103545780636352211e14610391578063704b6c02146103ce5761019c565b80631e8428b1146102b657806323b872dd146102f357806330d8bb9b1461030f5761019c565b806301ffc9a7146101a157806306fdde03146101de578063081812fc14610209578063095ea7b31461024657806314dee4b31461026257806318160ddd1461028b575b600080fd5b3480156101ad57600080fd5b506101c860048036038101906101c39190613268565b610682565b6040516101d591906132b0565b60405180910390f35b3480156101ea57600080fd5b506101f3610714565b604051610200919061335b565b60405180910390f35b34801561021557600080fd5b50610230600480360381019061022b91906133b3565b6107a6565b60405161023d9190613421565b60405180910390f35b610260600480360381019061025b9190613468565b610825565b005b34801561026e57600080fd5b50610289600480360381019061028491906135dd565b610969565b005b34801561029757600080fd5b506102a0610a4f565b6040516102ad9190613648565b60405180910390f35b3480156102c257600080fd5b506102dd60048036038101906102d89190613663565b610a66565b6040516102ea9190613648565b60405180910390f35b61030d6004803603810190610308919061370a565b610c50565b005b34801561031b57600080fd5b50610336600480360381019061033191906135dd565b610f72565b005b610352600480360381019061034d919061370a565b611095565b005b34801561036057600080fd5b5061037b600480360381019061037691906133b3565b6110b5565b6040516103889190613876565b60405180910390f35b34801561039d57600080fd5b506103b860048036038101906103b391906133b3565b611394565b6040516103c59190613421565b60405180910390f35b3480156103da57600080fd5b506103f560048036038101906103f09190613898565b6113a6565b005b34801561040357600080fd5b5061041e60048036038101906104199190613898565b6113f2565b60405161042b9190613648565b60405180910390f35b34801561044057600080fd5b506104496114aa565b005b34801561045757600080fd5b50610472600480360381019061046d9190613898565b6114be565b60405161047f9190613a38565b60405180910390f35b34801561049457600080fd5b5061049d6118f1565b6040516104aa9190613a38565b60405180910390f35b3480156104bf57600080fd5b506104c8611ce8565b6040516104d59190613421565b60405180910390f35b3480156104ea57600080fd5b50610505600480360381019061050091906133b3565b611d12565b005b34801561051357600080fd5b5061051c61209f565b604051610529919061335b565b60405180910390f35b34801561053e57600080fd5b5061055960048036038101906105549190613a86565b612131565b005b61057560048036038101906105709190613b67565b61223c565b005b34801561058357600080fd5b5061059e60048036038101906105999190613bea565b6122af565b6040516105ab9190613648565b60405180910390f35b3480156105c057600080fd5b506105db60048036038101906105d691906133b3565b6124a5565b6040516105e8919061335b565b60405180910390f35b3480156105fd57600080fd5b5061061860048036038101906106139190613c62565b612543565b60405161062591906132b0565b60405180910390f35b34801561063a57600080fd5b5061065560048036038101906106509190613898565b6125d7565b005b34801561066357600080fd5b5061066c61265a565b6040516106799190613421565b60405180910390f35b60006301ffc9a760e01b827bffffffffffffffffffffffffffffffffffffffffffffffffffffffff191614806106dd57506380ac58cd60e01b827bffffffffffffffffffffffffffffffffffffffffffffffffffffffff1916145b8061070d5750635b5e139f60e01b827bffffffffffffffffffffffffffffffffffffffffffffffffffffffff1916145b9050919050565b60606002805461072390613cd1565b80601f016020809104026020016040519081016040528092919081815260200182805461074f90613cd1565b801561079c5780601f106107715761010080835404028352916020019161079c565b820191906000526020600020905b81548152906001019060200180831161077f57829003601f168201915b5050505050905090565b60006107b182612684565b6107e7576040517fcf4700e400000000000000000000000000000000000000000000000000000000815260040160405180910390fd5b6006600083815260200190815260200160002060000160009054906101000a900473ffffffffffffffffffffffffffffffffffffffff169050919050565b600061083082611394565b90508073ffffffffffffffffffffffffffffffffffffffff166108516126e3565b73ffffffffffffffffffffffffffffffffffffffff16146108b45761087d816108786126e3565b612543565b6108b3576040517fcfb3b94200000000000000000000000000000000000000000000000000000000815260040160405180910390fd5b5b826006600084815260200190815260200160002060000160006101000a81548173ffffffffffffffffffffffffffffffffffffffff021916908373ffffffffffffffffffffffffffffffffffffffff160217905550818373ffffffffffffffffffffffffffffffffffffffff168273ffffffffffffffffffffffffffffffffffffffff167f8c5be1e5ebec7d5bd14f71427d1e84f3dd0314c0f7b2291e5b200ac8c7c3b92560405160405180910390a4505050565b61097282612684565b6109b1576040517f08c379a00000000000000000000000000000000000000000000000000000000081526004016109a890613d74565b60405180910390fd5b3373ffffffffffffffffffffffffffffffffffffffff166109d183611394565b73ffffffffffffffffffffffffffffffffffffffff1614610a27576040517f08c379a0000000000000000000000000000000000000000000000000000000008152600401610a1e90613e06565b60405180910390fd5b80600960008481526020019081526020016000206002019081610a4a9190613fd2565b505050565b6000610a596126eb565b6001546000540303905090565b600080610a716126f4565b9050610a7e3360016126fd565b6040518060e001604052808281526020018681526020018581526020013373ffffffffffffffffffffffffffffffffffffffff168152602001604051806020016040528060008152508152602001600081526020018481525060096000838152602001908152602001600020600082015181600001556020820151816001019081610b099190613fd2565b506040820151816002019081610b1f9190613fd2565b5060608201518160030160006101000a81548173ffffffffffffffffffffffffffffffffffffffff021916908373ffffffffffffffffffffffffffffffffffffffff1602179055506080820151816004019081610b7c9190613fd2565b5060a0820151816005015560c0820151816006019081610b9c9190613fd2565b50905050600a60003373ffffffffffffffffffffffffffffffffffffffff1673ffffffffffffffffffffffffffffffffffffffff1681526020019081526020016000208190806001815401808255809150506001900390600052602060002001600090919091909150557f247460063d2be17b2ffed47f0cb18237cacc09ad163e5f2d1ff35e34d3d4d1ee8186338787604051610c3d9594939291906140a4565b60405180910390a1809150509392505050565b6000610c5b8261271b565b90508373ffffffffffffffffffffffffffffffffffffffff168173ffffffffffffffffffffffffffffffffffffffff1614610cc2576040517fa114810000000000000000000000000000000000000000000000000000000000815260040160405180910390fd5b600080610cce846127e7565b91509150610ce48187610cdf6126e3565b61280e565b610d3057610cf986610cf46126e3565b612543565b610d2f576040517f59c896be00000000000000000000000000000000000000000000000000000000815260040160405180910390fd5b5b600073ffffffffffffffffffffffffffffffffffffffff168573ffffffffffffffffffffffffffffffffffffffff1603610d96576040517fea553b3400000000000000000000000000000000000000000000000000000000815260040160405180910390fd5b610da38686866001612852565b8015610dae57600082555b600560008773ffffffffffffffffffffffffffffffffffffffff1673ffffffffffffffffffffffffffffffffffffffff168152602001908152602001600020600081546001900391905081905550600560008673ffffffffffffffffffffffffffffffffffffffff1673ffffffffffffffffffffffffffffffffffffffff1681526020019081526020016000206000815460010191905081905550610e7c85610e58888887612858565b7c020000000000000000000000000000000000000000000000000000000017612880565b600460008681526020019081526020016000208190555060007c0200000000000000000000000000000000000000000000000000000000841603610f025760006001850190506000600460008381526020019081526020016000205403610f00576000548114610eff578360046000838152602001908152602001600020819055505b5b505b838573ffffffffffffffffffffffffffffffffffffffff168773ffffffffffffffffffffffffffffffffffffffff167fddf252ad1be2c89b69c2b068fc378daa952ba7f163c4a11628f55a4df523b3ef60405160405180910390a4610f6a86868660016128ab565b505050505050565b610f7b82612684565b610fba576040517f08c379a0000000000000000000000000000000000000000000000000000000008152600401610fb190613d74565b60405180910390fd5b610fc482336128b1565b611003576040517f08c379a0000000000000000000000000000000000000000000000000000000008152600401610ffa9061417e565b60405180910390fd5b806009600084815260200190815260200160002060040190816110269190613fd2565b504260096000848152602001908152602001600020600501819055503373ffffffffffffffffffffffffffffffffffffffff16827f40a9418af964c87768383b4b3aebe2d80f69c88cb618bbf0d194a1bf203e4e8983604051611089919061335b565b60405180910390a35050565b6110b08383836040518060200160405280600081525061223c565b505050565b6110bd61314c565b600960008381526020019081526020016000206040518060e0016040529081600082015481526020016001820180546110f590613cd1565b80601f016020809104026020016040519081016040528092919081815260200182805461112190613cd1565b801561116e5780601f106111435761010080835404028352916020019161116e565b820191906000526020600020905b81548152906001019060200180831161115157829003601f168201915b5050505050815260200160028201805461118790613cd1565b80601f01602080910402602001604051908101604052809291908181526020018280546111b390613cd1565b80156112005780601f106111d557610100808354040283529160200191611200565b820191906000526020600020905b8154815290600101906020018083116111e357829003601f168201915b505050505081526020016003820160009054906101000a900473ffffffffffffffffffffffffffffffffffffffff1673ffffffffffffffffffffffffffffffffffffffff1673ffffffffffffffffffffffffffffffffffffffff16815260200160048201805461126f90613cd1565b80601f016020809104026020016040519081016040528092919081815260200182805461129b90613cd1565b80156112e85780601f106112bd576101008083540402835291602001916112e8565b820191906000526020600020905b8154815290600101906020018083116112cb57829003601f168201915b505050505081526020016005820154815260200160068201805461130b90613cd1565b80601f016020809104026020016040519081016040528092919081815260200182805461133790613cd1565b80156113845780601f1061135957610100808354040283529160200191611384565b820191906000526020600020905b81548152906001019060200180831161136757829003601f168201915b5050505050815250509050919050565b600061139f8261271b565b9050919050565b6113ae612978565b80600b60006101000a81548173ffffffffffffffffffffffffffffffffffffffff021916908373ffffffffffffffffffffffffffffffffffffffff16021790555050565b60008073ffffffffffffffffffffffffffffffffffffffff168273ffffffffffffffffffffffffffffffffffffffff1603611459576040517f8f4eb60400000000000000000000000000000000000000000000000000000000815260040160405180910390fd5b67ffffffffffffffff600560008473ffffffffffffffffffffffffffffffffffffffff1673ffffffffffffffffffffffffffffffffffffffff16815260200190815260200160002054169050919050565b6114b2612978565b6114bc60006129f6565b565b60606000600a60008473ffffffffffffffffffffffffffffffffffffffff1673ffffffffffffffffffffffffffffffffffffffff1681526020019081526020016000208054905067ffffffffffffffff81111561151e5761151d6134b2565b5b60405190808252806020026020018201604052801561155757816020015b61154461314c565b81526020019060019003908161153c5790505b5090506000805b6115666126f4565b8110156118e6578473ffffffffffffffffffffffffffffffffffffffff166009600083815260200190815260200160002060030160009054906101000a900473ffffffffffffffffffffffffffffffffffffffff1673ffffffffffffffffffffffffffffffffffffffff16036118d357600960008281526020019081526020016000206040518060e00160405290816000820154815260200160018201805461160e90613cd1565b80601f016020809104026020016040519081016040528092919081815260200182805461163a90613cd1565b80156116875780601f1061165c57610100808354040283529160200191611687565b820191906000526020600020905b81548152906001019060200180831161166a57829003601f168201915b505050505081526020016002820180546116a090613cd1565b80601f01602080910402602001604051908101604052809291908181526020018280546116cc90613cd1565b80156117195780601f106116ee57610100808354040283529160200191611719565b820191906000526020600020905b8154815290600101906020018083116116fc57829003601f168201915b505050505081526020016003820160009054906101000a900473ffffffffffffffffffffffffffffffffffffffff1673ffffffffffffffffffffffffffffffffffffffff1673ffffffffffffffffffffffffffffffffffffffff16815260200160048201805461178890613cd1565b80601f01602080910402602001604051908101604052809291908181526020018280546117b490613cd1565b80156118015780601f106117d657610100808354040283529160200191611801565b820191906000526020600020905b8154815290600101906020018083116117e457829003601f168201915b505050505081526020016005820154815260200160068201805461182490613cd1565b80601f016020809104026020016040519081016040528092919081815260200182805461185090613cd1565b801561189d5780601f106118725761010080835404028352916020019161189d565b820191906000526020600020905b81548152906001019060200180831161188057829003601f168201915b5050505050815250508383815181106118b9576118b861419e565b5b602002602001018190525081806118cf906141fc565b9250505b80806118de906141fc565b91505061155e565b508192505050919050565b606060006118fd610a4f565b67ffffffffffffffff811115611916576119156134b2565b5b60405190808252806020026020018201604052801561194f57816020015b61193c61314c565b8152602001906001900390816119345790505b5090506000805b61195e6126f4565b811015611cdf57600073ffffffffffffffffffffffffffffffffffffffff166009600083815260200190815260200160002060030160009054906101000a900473ffffffffffffffffffffffffffffffffffffffff1673ffffffffffffffffffffffffffffffffffffffff1614611ccc57600960008281526020019081526020016000206040518060e001604052908160008201548152602001600182018054611a0790613cd1565b80601f0160208091040260200160405190810160405280929190818152602001828054611a3390613cd1565b8015611a805780601f10611a5557610100808354040283529160200191611a80565b820191906000526020600020905b815481529060010190602001808311611a6357829003601f168201915b50505050508152602001600282018054611a9990613cd1565b80601f0160208091040260200160405190810160405280929190818152602001828054611ac590613cd1565b8015611b125780601f10611ae757610100808354040283529160200191611b12565b820191906000526020600020905b815481529060010190602001808311611af557829003601f168201915b505050505081526020016003820160009054906101000a900473ffffffffffffffffffffffffffffffffffffffff1673ffffffffffffffffffffffffffffffffffffffff1673ffffffffffffffffffffffffffffffffffffffff168152602001600482018054611b8190613cd1565b80601f0160208091040260200160405190810160405280929190818152602001828054611bad90613cd1565b8015611bfa5780601f10611bcf57610100808354040283529160200191611bfa565b820191906000526020600020905b815481529060010190602001808311611bdd57829003601f168201915b5050505050815260200160058201548152602001600682018054611c1d90613cd1565b80601f0160208091040260200160405190810160405280929190818152602001828054611c4990613cd1565b8015611c965780601f10611c6b57610100808354040283529160200191611c96565b820191906000526020600020905b815481529060010190602001808311611c7957829003601f168201915b505050505081525050838381518110611cb257611cb161419e565b5b60200260200101819052508180611cc8906141fc565b9250505b8080611cd7906141fc565b915050611956565b50819250505090565b6000600860009054906101000a900473ffffffffffffffffffffffffffffffffffffffff16905090565b611d1b81612684565b611d5a576040517f08c379a0000000000000000000000000000000000000000000000000000000008152600401611d5190613d74565b60405180910390fd5b3373ffffffffffffffffffffffffffffffffffffffff16611d7a82611394565b73ffffffffffffffffffffffffffffffffffffffff1614611dd0576040517f08c379a0000000000000000000000000000000000000000000000000000000008152600401611dc790613e06565b60405180910390fd5b611dd981612abc565b60096000828152602001908152602001600020600080820160009055600182016000611e05919061319f565b600282016000611e15919061319f565b6003820160006101000a81549073ffffffffffffffffffffffffffffffffffffffff0219169055600482016000611e4c919061319f565b6005820160009055600682016000611e64919061319f565b505060005b600a60003373ffffffffffffffffffffffffffffffffffffffff1673ffffffffffffffffffffffffffffffffffffffff1681526020019081526020016000208054905081101561209b5781600a60003373ffffffffffffffffffffffffffffffffffffffff1673ffffffffffffffffffffffffffffffffffffffff1681526020019081526020016000208281548110611f0557611f0461419e565b5b90600052602060002001540361208857600a60003373ffffffffffffffffffffffffffffffffffffffff1673ffffffffffffffffffffffffffffffffffffffff1681526020019081526020016000206001600a60003373ffffffffffffffffffffffffffffffffffffffff1673ffffffffffffffffffffffffffffffffffffffff16815260200190815260200160002080549050611fa39190614244565b81548110611fb457611fb361419e565b5b9060005260206000200154600a60003373ffffffffffffffffffffffffffffffffffffffff1673ffffffffffffffffffffffffffffffffffffffff16815260200190815260200160002082815481106120105761200f61419e565b5b9060005260206000200181905550600a60003373ffffffffffffffffffffffffffffffffffffffff1673ffffffffffffffffffffffffffffffffffffffff16815260200190815260200160002080548061206d5761206c614278565b5b6001900381819060005260206000200160009055905561209b565b8080612093906141fc565b915050611e69565b5050565b6060600380546120ae90613cd1565b80601f01602080910402602001604051908101604052809291908181526020018280546120da90613cd1565b80156121275780601f106120fc57610100808354040283529160200191612127565b820191906000526020600020905b81548152906001019060200180831161210a57829003601f168201915b5050505050905090565b806007600061213e6126e3565b73ffffffffffffffffffffffffffffffffffffffff1673ffffffffffffffffffffffffffffffffffffffff16815260200190815260200160002060008473ffffffffffffffffffffffffffffffffffffffff1673ffffffffffffffffffffffffffffffffffffffff16815260200190815260200160002060006101000a81548160ff0219169083151502179055508173ffffffffffffffffffffffffffffffffffffffff166121eb6126e3565b73ffffffffffffffffffffffffffffffffffffffff167f17307eab39ab6107e8899845ad3d59bd9653f200f220920489ca2b5937696c318360405161223091906132b0565b60405180910390a35050565b612247848484610c50565b60008373ffffffffffffffffffffffffffffffffffffffff163b146122a95761227284848484612aca565b6122a8576040517fd1a57ed600000000000000000000000000000000000000000000000000000000815260040160405180910390fd5b5b50505050565b6000806122ba6126f4565b90506122c73360016126fd565b6040518060e001604052808281526020018581526020018481526020013373ffffffffffffffffffffffffffffffffffffffff1681526020016040518060200160405280600081525081526020016000815260200160405180602001604052806000815250815250600960008381526020019081526020016000206000820151816000015560208201518160010190816123619190613fd2565b5060408201518160020190816123779190613fd2565b5060608201518160030160006101000a81548173ffffffffffffffffffffffffffffffffffffffff021916908373ffffffffffffffffffffffffffffffffffffffff16021790555060808201518160040190816123d49190613fd2565b5060a0820151816005015560c08201518160060190816123f49190613fd2565b50905050600a60003373ffffffffffffffffffffffffffffffffffffffff1673ffffffffffffffffffffffffffffffffffffffff1681526020019081526020016000208190806001815401808255809150506001900390600052602060002001600090919091909150557f5cf1e457076521acb7531066dee0401e9eb2b6fbf964617e4593c4a7c2f2e77e8185338660405161249394939291906142a7565b60405180910390a18091505092915050565b60606124b082612684565b6124e6576040517fa14c4b5000000000000000000000000000000000000000000000000000000000815260040160405180910390fd5b60006124f0612c1a565b90506000815103612510576040518060200160405280600081525061253b565b8061251a84612c31565b60405160200161252b929190614336565b6040516020818303038152906040525b915050919050565b6000600760008473ffffffffffffffffffffffffffffffffffffffff1673ffffffffffffffffffffffffffffffffffffffff16815260200190815260200160002060008373ffffffffffffffffffffffffffffffffffffffff1673ffffffffffffffffffffffffffffffffffffffff16815260200190815260200160002060009054906101000a900460ff16905092915050565b6125df612978565b600073ffffffffffffffffffffffffffffffffffffffff168173ffffffffffffffffffffffffffffffffffffffff160361264e576040517f08c379a0000000000000000000000000000000000000000000000000000000008152600401612645906143cc565b60405180910390fd5b612657816129f6565b50565b6000600b60009054906101000a900473ffffffffffffffffffffffffffffffffffffffff16905090565b60008161268f6126eb565b1115801561269e575060005482105b80156126dc575060007c0100000000000000000000000000000000000000000000000000000000600460008581526020019081526020016000205416145b9050919050565b600033905090565b60006001905090565b60008054905090565b612717828260405180602001604052806000815250612c81565b5050565b6000808290508061272a6126eb565b116127b0576000548110156127af5760006004600083815260200190815260200160002054905060007c01000000000000000000000000000000000000000000000000000000008216036127ad575b600081036127a3576004600083600190039350838152602001908152602001600020549050612779565b80925050506127e2565b505b5b6040517fdf2d9b4200000000000000000000000000000000000000000000000000000000815260040160405180910390fd5b919050565b60008060006006600085815260200190815260200160002090508092508254915050915091565b600073ffffffffffffffffffffffffffffffffffffffff8316925073ffffffffffffffffffffffffffffffffffffffff821691508382148383141790509392505050565b50505050565b60008060e883901c905060e861286f868684612d1e565b62ffffff16901b9150509392505050565b600073ffffffffffffffffffffffffffffffffffffffff83169250814260a01b178317905092915050565b50505050565b60008173ffffffffffffffffffffffffffffffffffffffff166009600085815260200190815260200160002060030160009054906101000a900473ffffffffffffffffffffffffffffffffffffffff1673ffffffffffffffffffffffffffffffffffffffff16148061297057508173ffffffffffffffffffffffffffffffffffffffff16600b60009054906101000a900473ffffffffffffffffffffffffffffffffffffffff1673ffffffffffffffffffffffffffffffffffffffff16145b905092915050565b612980612d27565b73ffffffffffffffffffffffffffffffffffffffff1661299e611ce8565b73ffffffffffffffffffffffffffffffffffffffff16146129f4576040517f08c379a00000000000000000000000000000000000000000000000000000000081526004016129eb90614438565b60405180910390fd5b565b6000600860009054906101000a900473ffffffffffffffffffffffffffffffffffffffff16905081600860006101000a81548173ffffffffffffffffffffffffffffffffffffffff021916908373ffffffffffffffffffffffffffffffffffffffff1602179055508173ffffffffffffffffffffffffffffffffffffffff168173ffffffffffffffffffffffffffffffffffffffff167f8be0079c531659141344cd1fd0a4f28419497f9722a3daafe3b4186f6b6457e060405160405180910390a35050565b612ac7816000612d2f565b50565b60008373ffffffffffffffffffffffffffffffffffffffff1663150b7a02612af06126e3565b8786866040518563ffffffff1660e01b8152600401612b1294939291906144ad565b6020604051808303816000875af1925050508015612b4e57506040513d601f19601f82011682018060405250810190612b4b919061450e565b60015b612bc7573d8060008114612b7e576040519150601f19603f3d011682016040523d82523d6000602084013e612b83565b606091505b506000815103612bbf576040517fd1a57ed600000000000000000000000000000000000000000000000000000000815260040160405180910390fd5b805181602001fd5b63150b7a0260e01b7bffffffffffffffffffffffffffffffffffffffffffffffffffffffff1916817bffffffffffffffffffffffffffffffffffffffffffffffffffffffff191614915050949350505050565b606060405180602001604052806000815250905090565b606060a060405101806040526020810391506000825281835b600115612c6c57600184039350600a81066030018453600a8104905080612c4a575b50828103602084039350808452505050919050565b612c8b8383612f81565b60008373ffffffffffffffffffffffffffffffffffffffff163b14612d1957600080549050600083820390505b612ccb6000868380600101945086612aca565b612d01576040517fd1a57ed600000000000000000000000000000000000000000000000000000000815260040160405180910390fd5b818110612cb8578160005414612d1657600080fd5b50505b505050565b60009392505050565b600033905090565b6000612d3a8361271b565b90506000819050600080612d4d866127e7565b915091508415612db657612d698184612d646126e3565b61280e565b612db557612d7e83612d796126e3565b612543565b612db4576040517f59c896be00000000000000000000000000000000000000000000000000000000815260040160405180910390fd5b5b5b612dc4836000886001612852565b8015612dcf57600082555b600160806001901b03600560008573ffffffffffffffffffffffffffffffffffffffff1673ffffffffffffffffffffffffffffffffffffffff16815260200190815260200160002060008282540192505081905550612e7783612e3485600088612858565b7c02000000000000000000000000000000000000000000000000000000007c01000000000000000000000000000000000000000000000000000000001717612880565b600460008881526020019081526020016000208190555060007c0200000000000000000000000000000000000000000000000000000000851603612efd5760006001870190506000600460008381526020019081526020016000205403612efb576000548114612efa578460046000838152602001908152602001600020819055505b5b505b85600073ffffffffffffffffffffffffffffffffffffffff168473ffffffffffffffffffffffffffffffffffffffff167fddf252ad1be2c89b69c2b068fc378daa952ba7f163c4a11628f55a4df523b3ef60405160405180910390a4612f678360008860016128ab565b600160008154809291906001019190505550505050505050565b60008054905060008203612fc1576040517fb562e8dd00000000000000000000000000000000000000000000000000000000815260040160405180910390fd5b612fce6000848385612852565b600160406001901b178202600560008573ffffffffffffffffffffffffffffffffffffffff1673ffffffffffffffffffffffffffffffffffffffff16815260200190815260200160002060008282540192505081905550613045836130366000866000612858565b61303f8561313c565b17612880565b6004600083815260200190815260200160002081905550600080838301905073ffffffffffffffffffffffffffffffffffffffff85169150828260007fddf252ad1be2c89b69c2b068fc378daa952ba7f163c4a11628f55a4df523b3ef600080a4600183015b8181146130e657808360007fddf252ad1be2c89b69c2b068fc378daa952ba7f163c4a11628f55a4df523b3ef600080a46001810190506130ab565b5060008203613121576040517f2e07630000000000000000000000000000000000000000000000000000000000815260040160405180910390fd5b80600081905550505061313760008483856128ab565b505050565b60006001821460e11b9050919050565b6040518060e00160405280600081526020016060815260200160608152602001600073ffffffffffffffffffffffffffffffffffffffff1681526020016060815260200160008152602001606081525090565b5080546131ab90613cd1565b6000825580601f106131bd57506131dc565b601f0160209004906000526020600020908101906131db91906131df565b5b50565b5b808211156131f85760008160009055506001016131e0565b5090565b6000604051905090565b600080fd5b600080fd5b60007fffffffff0000000000000000000000000000000000000000000000000000000082169050919050565b61324581613210565b811461325057600080fd5b50565b6000813590506132628161323c565b92915050565b60006020828403121561327e5761327d613206565b5b600061328c84828501613253565b91505092915050565b60008115159050919050565b6132aa81613295565b82525050565b60006020820190506132c560008301846132a1565b92915050565b600081519050919050565b600082825260208201905092915050565b60005b838110156133055780820151818401526020810190506132ea565b60008484015250505050565b6000601f19601f8301169050919050565b600061332d826132cb565b61333781856132d6565b93506133478185602086016132e7565b61335081613311565b840191505092915050565b600060208201905081810360008301526133758184613322565b905092915050565b6000819050919050565b6133908161337d565b811461339b57600080fd5b50565b6000813590506133ad81613387565b92915050565b6000602082840312156133c9576133c8613206565b5b60006133d78482850161339e565b91505092915050565b600073ffffffffffffffffffffffffffffffffffffffff82169050919050565b600061340b826133e0565b9050919050565b61341b81613400565b82525050565b60006020820190506134366000830184613412565b92915050565b61344581613400565b811461345057600080fd5b50565b6000813590506134628161343c565b92915050565b6000806040838503121561347f5761347e613206565b5b600061348d85828601613453565b925050602061349e8582860161339e565b9150509250929050565b600080fd5b600080fd5b7f4e487b7100000000000000000000000000000000000000000000000000000000600052604160045260246000fd5b6134ea82613311565b810181811067ffffffffffffffff82111715613509576135086134b2565b5b80604052505050565b600061351c6131fc565b905061352882826134e1565b919050565b600067ffffffffffffffff821115613548576135476134b2565b5b61355182613311565b9050602081019050919050565b82818337600083830152505050565b600061358061357b8461352d565b613512565b90508281526020810184848401111561359c5761359b6134ad565b5b6135a784828561355e565b509392505050565b600082601f8301126135c4576135c36134a8565b5b81356135d484826020860161356d565b91505092915050565b600080604083850312156135f4576135f3613206565b5b60006136028582860161339e565b925050602083013567ffffffffffffffff8111156136235761362261320b565b5b61362f858286016135af565b9150509250929050565b6136428161337d565b82525050565b600060208201905061365d6000830184613639565b92915050565b60008060006060848603121561367c5761367b613206565b5b600084013567ffffffffffffffff81111561369a5761369961320b565b5b6136a6868287016135af565b935050602084013567ffffffffffffffff8111156136c7576136c661320b565b5b6136d3868287016135af565b925050604084013567ffffffffffffffff8111156136f4576136f361320b565b5b613700868287016135af565b9150509250925092565b60008060006060848603121561372357613722613206565b5b600061373186828701613453565b935050602061374286828701613453565b92505060406137538682870161339e565b9150509250925092565b6137668161337d565b82525050565b600082825260208201905092915050565b6000613788826132cb565b613792818561376c565b93506137a28185602086016132e7565b6137ab81613311565b840191505092915050565b6137bf81613400565b82525050565b600060e0830160008301516137dd600086018261375d565b50602083015184820360208601526137f5828261377d565b9150506040830151848203604086015261380f828261377d565b915050606083015161382460608601826137b6565b506080830151848203608086015261383c828261377d565b91505060a083015161385160a086018261375d565b5060c083015184820360c0860152613869828261377d565b9150508091505092915050565b6000602082019050818103600083015261389081846137c5565b905092915050565b6000602082840312156138ae576138ad613206565b5b60006138bc84828501613453565b91505092915050565b600081519050919050565b600082825260208201905092915050565b6000819050602082019050919050565b600060e083016000830151613909600086018261375d565b5060208301518482036020860152613921828261377d565b9150506040830151848203604086015261393b828261377d565b915050606083015161395060608601826137b6565b5060808301518482036080860152613968828261377d565b91505060a083015161397d60a086018261375d565b5060c083015184820360c0860152613995828261377d565b9150508091505092915050565b60006139ae83836138f1565b905092915050565b6000602082019050919050565b60006139ce826138c5565b6139d881856138d0565b9350836020820285016139ea856138e1565b8060005b85811015613a265784840389528151613a0785826139a2565b9450613a12836139b6565b925060208a019950506001810190506139ee565b50829750879550505050505092915050565b60006020820190508181036000830152613a5281846139c3565b905092915050565b613a6381613295565b8114613a6e57600080fd5b50565b600081359050613a8081613a5a565b92915050565b60008060408385031215613a9d57613a9c613206565b5b6000613aab85828601613453565b9250506020613abc85828601613a71565b9150509250929050565b600067ffffffffffffffff821115613ae157613ae06134b2565b5b613aea82613311565b9050602081019050919050565b6000613b0a613b0584613ac6565b613512565b905082815260208101848484011115613b2657613b256134ad565b5b613b3184828561355e565b509392505050565b600082601f830112613b4e57613b4d6134a8565b5b8135613b5e848260208601613af7565b91505092915050565b60008060008060808587031215613b8157613b80613206565b5b6000613b8f87828801613453565b9450506020613ba087828801613453565b9350506040613bb18782880161339e565b925050606085013567ffffffffffffffff811115613bd257613bd161320b565b5b613bde87828801613b39565b91505092959194509250565b60008060408385031215613c0157613c00613206565b5b600083013567ffffffffffffffff811115613c1f57613c1e61320b565b5b613c2b858286016135af565b925050602083013567ffffffffffffffff811115613c4c57613c4b61320b565b5b613c58858286016135af565b9150509250929050565b60008060408385031215613c7957613c78613206565b5b6000613c8785828601613453565b9250506020613c9885828601613453565b9150509250929050565b7f4e487b7100000000000000000000000000000000000000000000000000000000600052602260045260246000fd5b60006002820490506001821680613ce957607f821691505b602082108103613cfc57613cfb613ca2565b5b50919050565b7f4769747365633a206e6f207265706f7369746f727920666f756e64206279206760008201527f6976656e20494400000000000000000000000000000000000000000000000000602082015250565b6000613d5e6027836132d6565b9150613d6982613d02565b604082019050919050565b60006020820190508181036000830152613d8d81613d51565b9050919050565b7f4769747365633a2063616c6c6572206973206e6f7420746865207265706f736960008201527f746f7279206f776e657200000000000000000000000000000000000000000000602082015250565b6000613df0602a836132d6565b9150613dfb82613d94565b604082019050919050565b60006020820190508181036000830152613e1f81613de3565b9050919050565b60008190508160005260206000209050919050565b60006020601f8301049050919050565b600082821b905092915050565b600060088302613e887fffffffffffffffffffffffffffffffffffffffffffffffffffffffffffffffff82613e4b565b613e928683613e4b565b95508019841693508086168417925050509392505050565b6000819050919050565b6000613ecf613eca613ec58461337d565b613eaa565b61337d565b9050919050565b6000819050919050565b613ee983613eb4565b613efd613ef582613ed6565b848454613e58565b825550505050565b600090565b613f12613f05565b613f1d818484613ee0565b505050565b5b81811015613f4157613f36600082613f0a565b600181019050613f23565b5050565b601f821115613f8657613f5781613e26565b613f6084613e3b565b81016020851015613f6f578190505b613f83613f7b85613e3b565b830182613f22565b50505b505050565b600082821c905092915050565b6000613fa960001984600802613f8b565b1980831691505092915050565b6000613fc28383613f98565b9150826002028217905092915050565b613fdb826132cb565b67ffffffffffffffff811115613ff457613ff36134b2565b5b613ffe8254613cd1565b614009828285613f45565b600060209050601f83116001811461403c576000841561402a578287015190505b6140348582613fb6565b86555061409c565b601f19841661404a86613e26565b60005b828110156140725784890151825560018201915060208501945060208101905061404d565b8683101561408f578489015161408b601f891682613f98565b8355505b6001600288020188555050505b505050505050565b600060a0820190506140b96000830188613639565b81810360208301526140cb8187613322565b90506140da6040830186613412565b81810360608301526140ec8185613322565b905081810360808301526141008184613322565b90509695505050505050565b7f4769747365633a2063616c6c6572206973206e6f7420746865207265706f736960008201527f746f7279206f776e6572206f722061646d696e00000000000000000000000000602082015250565b60006141686033836132d6565b91506141738261410c565b604082019050919050565b600060208201905081810360008301526141978161415b565b9050919050565b7f4e487b7100000000000000000000000000000000000000000000000000000000600052603260045260246000fd5b7f4e487b7100000000000000000000000000000000000000000000000000000000600052601160045260246000fd5b60006142078261337d565b91507fffffffffffffffffffffffffffffffffffffffffffffffffffffffffffffffff8203614239576142386141cd565b5b600182019050919050565b600061424f8261337d565b915061425a8361337d565b9250828203905081811115614272576142716141cd565b5b92915050565b7f4e487b7100000000000000000000000000000000000000000000000000000000600052603160045260246000fd5b60006080820190506142bc6000830187613639565b81810360208301526142ce8186613322565b90506142dd6040830185613412565b81810360608301526142ef8184613322565b905095945050505050565b600081905092915050565b6000614310826132cb565b61431a81856142fa565b935061432a8185602086016132e7565b80840191505092915050565b60006143428285614305565b915061434e8284614305565b91508190509392505050565b7f4f776e61626c653a206e6577206f776e657220697320746865207a65726f206160008201527f6464726573730000000000000000000000000000000000000000000000000000602082015250565b60006143b66026836132d6565b91506143c18261435a565b604082019050919050565b600060208201905081810360008301526143e5816143a9565b9050919050565b7f4f776e61626c653a2063616c6c6572206973206e6f7420746865206f776e6572600082015250565b60006144226020836132d6565b915061442d826143ec565b602082019050919050565b6000602082019050818103600083015261445181614415565b9050919050565b600081519050919050565b600082825260208201905092915050565b600061447f82614458565b6144898185614463565b93506144998185602086016132e7565b6144a281613311565b840191505092915050565b60006080820190506144c26000830187613412565b6144cf6020830186613412565b6144dc6040830185613639565b81810360608301526144ee8184614474565b905095945050505050565b6000815190506145088161323c565b92915050565b60006020828403121561452457614523613206565b5b6000614532848285016144f9565b9150509291505056fea26469706673582212208f64b54993cb7ac9dbfa9476c48320af2a88f5997344aa6fa027552a69f1fa4964736f6c63430008110033",
  "linkReferences": {},
  "deployedLinkReferences": {}
}