{
  "_format": "hh-sol-artifact-1",
  "contractName": "Gitsec",
  "sourceName": "contracts/Gitsec.sol",
  "abi": [
    {
      "inputs": [
        {
          "internalType": "string",
          "name": "name",
          "type": "string"
        },
        {
          "internalType": "string",
          "name": "symbol",
          "type": "string"
        }
      ],
      "stateMutability": "nonpayable",
      "type": "constructor"
    },
    {
      "inputs": [],
      "name": "ApprovalCallerNotOwnerNorApproved",
      "type": "error"
    },
    {
      "inputs": [],
      "name": "ApprovalQueryForNonexistentToken",
      "type": "error"
    },
    {
      "inputs": [],
      "name": "BalanceQueryForZeroAddress",
      "type": "error"
    },
    {
      "inputs": [],
      "name": "MintERC2309QuantityExceedsLimit",
      "type": "error"
    },
    {
      "inputs": [],
      "name": "MintToZeroAddress",
      "type": "error"
    },
    {
      "inputs": [],
      "name": "MintZeroQuantity",
      "type": "error"
    },
    {
      "inputs": [],
      "name": "OwnerQueryForNonexistentToken",
      "type": "error"
    },
    {
      "inputs": [],
      "name": "OwnershipNotInitializedForExtraData",
      "type": "error"
    },
    {
      "inputs": [],
      "name": "TransferCallerNotOwnerNorApproved",
      "type": "error"
    },
    {
      "inputs": [],
      "name": "TransferFromIncorrectOwner",
      "type": "error"
    },
    {
      "inputs": [],
      "name": "TransferToNonERC721ReceiverImplementer",
      "type": "error"
    },
    {
      "inputs": [],
      "name": "TransferToZeroAddress",
      "type": "error"
    },
    {
      "inputs": [],
      "name": "URIQueryForNonexistentToken",
      "type": "error"
    },
    {
      "anonymous": false,
      "inputs": [
        {
          "indexed": true,
          "internalType": "address",
          "name": "owner",
          "type": "address"
        },
        {
          "indexed": true,
          "internalType": "address",
          "name": "approved",
          "type": "address"
        },
        {
          "indexed": true,
          "internalType": "uint256",
          "name": "tokenId",
          "type": "uint256"
        }
      ],
      "name": "Approval",
      "type": "event"
    },
    {
      "anonymous": false,
      "inputs": [
        {
          "indexed": true,
          "internalType": "address",
          "name": "owner",
          "type": "address"
        },
        {
          "indexed": true,
          "internalType": "address",
          "name": "operator",
          "type": "address"
        },
        {
          "indexed": false,
          "internalType": "bool",
          "name": "approved",
          "type": "bool"
        }
      ],
      "name": "ApprovalForAll",
      "type": "event"
    },
    {
      "anonymous": false,
      "inputs": [
        {
          "indexed": true,
          "internalType": "uint256",
          "name": "fromTokenId",
          "type": "uint256"
        },
        {
          "indexed": false,
          "internalType": "uint256",
          "name": "toTokenId",
          "type": "uint256"
        },
        {
          "indexed": true,
          "internalType": "address",
          "name": "from",
          "type": "address"
        },
        {
          "indexed": true,
          "internalType": "address",
          "name": "to",
          "type": "address"
        }
      ],
      "name": "ConsecutiveTransfer",
      "type": "event"
    },
    {
      "anonymous": false,
      "inputs": [
        {
          "indexed": true,
          "internalType": "uint256",
          "name": "repId",
          "type": "uint256"
        },
        {
          "indexed": true,
          "internalType": "address",
          "name": "owner",
          "type": "address"
        },
        {
          "indexed": false,
          "internalType": "string",
          "name": "IPFS",
          "type": "string"
        }
      ],
      "name": "IPFSHashUpdated",
      "type": "event"
    },
    {
      "anonymous": false,
      "inputs": [
        {
          "indexed": true,
          "internalType": "address",
          "name": "previousOwner",
          "type": "address"
        },
        {
          "indexed": true,
          "internalType": "address",
          "name": "newOwner",
          "type": "address"
        }
      ],
      "name": "OwnershipTransferred",
      "type": "event"
    },
    {
      "anonymous": false,
      "inputs": [
        {
          "indexed": false,
          "internalType": "uint256",
          "name": "repId",
          "type": "uint256"
        },
        {
          "indexed": false,
          "internalType": "string",
          "name": "repName",
          "type": "string"
        },
        {
          "indexed": false,
          "internalType": "address",
          "name": "owner",
          "type": "address"
        }
      ],
      "name": "RepositoryCreated",
      "type": "event"
    },
    {
      "anonymous": false,
      "inputs": [
        {
          "indexed": true,
          "internalType": "address",
          "name": "from",
          "type": "address"
        },
        {
          "indexed": true,
          "internalType": "address",
          "name": "to",
          "type": "address"
        },
        {
          "indexed": true,
          "internalType": "uint256",
          "name": "tokenId",
          "type": "uint256"
        }
      ],
      "name": "Transfer",
      "type": "event"
    },
    {
      "inputs": [
        {
          "internalType": "address",
          "name": "to",
          "type": "address"
        },
        {
          "internalType": "uint256",
          "name": "tokenId",
          "type": "uint256"
        }
      ],
      "name": "approve",
      "outputs": [],
      "stateMutability": "payable",
      "type": "function"
    },
    {
      "inputs": [
        {
          "internalType": "address",
          "name": "owner",
          "type": "address"
        }
      ],
      "name": "balanceOf",
      "outputs": [
        {
          "internalType": "uint256",
          "name": "",
          "type": "uint256"
        }
      ],
      "stateMutability": "view",
      "type": "function"
    },
    {
      "inputs": [
        {
          "internalType": "string",
          "name": "name",
          "type": "string"
        },
        {
          "internalType": "string",
          "name": "description",
          "type": "string"
        }
      ],
      "name": "createRepository",
      "outputs": [
        {
          "internalType": "uint256",
          "name": "",
          "type": "uint256"
        }
      ],
      "stateMutability": "nonpayable",
      "type": "function"
    },
    {
      "inputs": [
        {
          "internalType": "uint256",
          "name": "id",
          "type": "uint256"
        }
      ],
      "name": "deleteRepository",
      "outputs": [],
      "stateMutability": "nonpayable",
      "type": "function"
    },
    {
      "inputs": [
        {
          "internalType": "uint256",
          "name": "tokenId",
          "type": "uint256"
        }
      ],
      "name": "getApproved",
      "outputs": [
        {
          "internalType": "address",
          "name": "",
          "type": "address"
        }
      ],
      "stateMutability": "view",
      "type": "function"
    },
    {
      "inputs": [
        {
          "internalType": "uint256",
          "name": "id",
          "type": "uint256"
        }
      ],
      "name": "getRepository",
      "outputs": [
        {
          "components": [
            {
              "internalType": "uint256",
              "name": "id",
              "type": "uint256"
            },
            {
              "internalType": "string",
              "name": "name",
              "type": "string"
            },
            {
              "internalType": "string",
              "name": "description",
              "type": "string"
            },
            {
              "internalType": "address",
              "name": "owner",
              "type": "address"
            },
            {
              "internalType": "string",
              "name": "IPFS",
              "type": "string"
            }
          ],
          "internalType": "struct Gitsec.Repository",
          "name": "",
          "type": "tuple"
        }
      ],
      "stateMutability": "view",
      "type": "function"
    },
    {
      "inputs": [
        {
          "internalType": "address",
          "name": "owner",
          "type": "address"
        },
        {
          "internalType": "address",
          "name": "operator",
          "type": "address"
        }
      ],
      "name": "isApprovedForAll",
      "outputs": [
        {
          "internalType": "bool",
          "name": "",
          "type": "bool"
        }
      ],
      "stateMutability": "view",
      "type": "function"
    },
    {
      "inputs": [],
      "name": "name",
      "outputs": [
        {
          "internalType": "string",
          "name": "",
          "type": "string"
        }
      ],
      "stateMutability": "view",
      "type": "function"
    },
    {
      "inputs": [],
      "name": "owner",
      "outputs": [
        {
          "internalType": "address",
          "name": "",
          "type": "address"
        }
      ],
      "stateMutability": "view",
      "type": "function"
    },
    {
      "inputs": [
        {
          "internalType": "uint256",
          "name": "tokenId",
          "type": "uint256"
        }
      ],
      "name": "ownerOf",
      "outputs": [
        {
          "internalType": "address",
          "name": "",
          "type": "address"
        }
      ],
      "stateMutability": "view",
      "type": "function"
    },
    {
      "inputs": [],
      "name": "renounceOwnership",
      "outputs": [],
      "stateMutability": "nonpayable",
      "type": "function"
    },
    {
      "inputs": [
        {
          "internalType": "address",
          "name": "from",
          "type": "address"
        },
        {
          "internalType": "address",
          "name": "to",
          "type": "address"
        },
        {
          "internalType": "uint256",
          "name": "tokenId",
          "type": "uint256"
        }
      ],
      "name": "safeTransferFrom",
      "outputs": [],
      "stateMutability": "payable",
      "type": "function"
    },
    {
      "inputs": [
        {
          "internalType": "address",
          "name": "from",
          "type": "address"
        },
        {
          "internalType": "address",
          "name": "to",
          "type": "address"
        },
        {
          "internalType": "uint256",
          "name": "tokenId",
          "type": "uint256"
        },
        {
          "internalType": "bytes",
          "name": "_data",
          "type": "bytes"
        }
      ],
      "name": "safeTransferFrom",
      "outputs": [],
      "stateMutability": "payable",
      "type": "function"
    },
    {
      "inputs": [
        {
          "internalType": "address",
          "name": "operator",
          "type": "address"
        },
        {
          "internalType": "bool",
          "name": "approved",
          "type": "bool"
        }
      ],
      "name": "setApprovalForAll",
      "outputs": [],
      "stateMutability": "nonpayable",
      "type": "function"
    },
    {
      "inputs": [
        {
          "internalType": "bytes4",
          "name": "interfaceId",
          "type": "bytes4"
        }
      ],
      "name": "supportsInterface",
      "outputs": [
        {
          "internalType": "bool",
          "name": "",
          "type": "bool"
        }
      ],
      "stateMutability": "view",
      "type": "function"
    },
    {
      "inputs": [],
      "name": "symbol",
      "outputs": [
        {
          "internalType": "string",
          "name": "",
          "type": "string"
        }
      ],
      "stateMutability": "view",
      "type": "function"
    },
    {
      "inputs": [
        {
          "internalType": "uint256",
          "name": "tokenId",
          "type": "uint256"
        }
      ],
      "name": "tokenURI",
      "outputs": [
        {
          "internalType": "string",
          "name": "",
          "type": "string"
        }
      ],
      "stateMutability": "view",
      "type": "function"
    },
    {
      "inputs": [],
      "name": "totalSupply",
      "outputs": [
        {
          "internalType": "uint256",
          "name": "",
          "type": "uint256"
        }
      ],
      "stateMutability": "view",
      "type": "function"
    },
    {
      "inputs": [
        {
          "internalType": "address",
          "name": "from",
          "type": "address"
        },
        {
          "internalType": "address",
          "name": "to",
          "type": "address"
        },
        {
          "internalType": "uint256",
          "name": "tokenId",
          "type": "uint256"
        }
      ],
      "name": "transferFrom",
      "outputs": [],
      "stateMutability": "payable",
      "type": "function"
    },
    {
      "inputs": [
        {
          "internalType": "address",
          "name": "newOwner",
          "type": "address"
        }
      ],
      "name": "transferOwnership",
      "outputs": [],
      "stateMutability": "nonpayable",
      "type": "function"
    },
    {
      "inputs": [
        {
          "internalType": "uint256",
          "name": "id",
          "type": "uint256"
        },
        {
          "internalType": "string",
          "name": "newDescription",
          "type": "string"
        }
      ],
      "name": "updateDescription",
      "outputs": [],
      "stateMutability": "nonpayable",
      "type": "function"
    },
    {
      "inputs": [
        {
          "internalType": "uint256",
          "name": "id",
          "type": "uint256"
        },
        {
          "internalType": "string",
          "name": "newIPFS",
          "type": "string"
        }
      ],
      "name": "updateIPFS",
      "outputs": [],
      "stateMutability": "nonpayable",
      "type": "function"
    }
  ],
  "bytecode": "0x60806040523480156200001157600080fd5b506040516200377b3803806200377b833981810160405281019062000037919062000303565b818181600290816200004a9190620005d3565b5080600390816200005c9190620005d3565b506200006d6200009d60201b60201c565b60008190555050506200009562000089620000a260201b60201c565b620000aa60201b60201c565b5050620006ba565b600090565b600033905090565b6000600860009054906101000a900473ffffffffffffffffffffffffffffffffffffffff16905081600860006101000a81548173ffffffffffffffffffffffffffffffffffffffff021916908373ffffffffffffffffffffffffffffffffffffffff1602179055508173ffffffffffffffffffffffffffffffffffffffff168173ffffffffffffffffffffffffffffffffffffffff167f8be0079c531659141344cd1fd0a4f28419497f9722a3daafe3b4186f6b6457e060405160405180910390a35050565b6000604051905090565b600080fd5b600080fd5b600080fd5b600080fd5b6000601f19601f8301169050919050565b7f4e487b7100000000000000000000000000000000000000000000000000000000600052604160045260246000fd5b620001d9826200018e565b810181811067ffffffffffffffff82111715620001fb57620001fa6200019f565b5b80604052505050565b60006200021062000170565b90506200021e8282620001ce565b919050565b600067ffffffffffffffff8211156200024157620002406200019f565b5b6200024c826200018e565b9050602081019050919050565b60005b83811015620002795780820151818401526020810190506200025c565b60008484015250505050565b60006200029c620002968462000223565b62000204565b905082815260208101848484011115620002bb57620002ba62000189565b5b620002c884828562000259565b509392505050565b600082601f830112620002e857620002e762000184565b5b8151620002fa84826020860162000285565b91505092915050565b600080604083850312156200031d576200031c6200017a565b5b600083015167ffffffffffffffff8111156200033e576200033d6200017f565b5b6200034c85828601620002d0565b925050602083015167ffffffffffffffff81111562000370576200036f6200017f565b5b6200037e85828601620002d0565b9150509250929050565b600081519050919050565b7f4e487b7100000000000000000000000000000000000000000000000000000000600052602260045260246000fd5b60006002820490506001821680620003db57607f821691505b602082108103620003f157620003f062000393565b5b50919050565b60008190508160005260206000209050919050565b60006020601f8301049050919050565b600082821b905092915050565b6000600883026200045b7fffffffffffffffffffffffffffffffffffffffffffffffffffffffffffffffff826200041c565b6200046786836200041c565b95508019841693508086168417925050509392505050565b6000819050919050565b6000819050919050565b6000620004b4620004ae620004a8846200047f565b62000489565b6200047f565b9050919050565b6000819050919050565b620004d08362000493565b620004e8620004df82620004bb565b84845462000429565b825550505050565b600090565b620004ff620004f0565b6200050c818484620004c5565b505050565b5b81811015620005345762000528600082620004f5565b60018101905062000512565b5050565b601f82111562000583576200054d81620003f7565b62000558846200040c565b8101602085101562000568578190505b6200058062000577856200040c565b83018262000511565b50505b505050565b600082821c905092915050565b6000620005a86000198460080262000588565b1980831691505092915050565b6000620005c3838362000595565b9150826002028217905092915050565b620005de8262000388565b67ffffffffffffffff811115620005fa57620005f96200019f565b5b620006068254620003c2565b6200061382828562000538565b600060209050601f8311600181146200064b576000841562000636578287015190505b620006428582620005b5565b865550620006b2565b601f1984166200065b86620003f7565b60005b8281101562000685578489015182556001820191506020850194506020810190506200065e565b86831015620006a55784890151620006a1601f89168262000595565b8355505b6001600288020188555050505b505050505050565b6130b180620006ca6000396000f3fe6080604052600436106101355760003560e01c806370a08231116100ab578063a22cb4651161006f578063a22cb465146103fd578063b88d4fde14610426578063c269276014610442578063c87b56dd1461047f578063e985e9c5146104bc578063f2fde38b146104f957610135565b806370a082311461032a578063715018a6146103675780638da5cb5b1461037e57806392e41c6e146103a957806395d89b41146103d257610135565b806318160ddd116100fd57806318160ddd1461022457806323b872dd1461024f57806330d8bb9b1461026b57806342842e0e146102945780635be08933146102b05780636352211e146102ed57610135565b806301ffc9a71461013a57806306fdde0314610177578063081812fc146101a2578063095ea7b3146101df57806314dee4b3146101fb575b600080fd5b34801561014657600080fd5b50610161600480360381019061015c9190612229565b610522565b60405161016e9190612271565b60405180910390f35b34801561018357600080fd5b5061018c6105b4565b604051610199919061231c565b60405180910390f35b3480156101ae57600080fd5b506101c960048036038101906101c49190612374565b610646565b6040516101d691906123e2565b60405180910390f35b6101f960048036038101906101f49190612429565b6106c5565b005b34801561020757600080fd5b50610222600480360381019061021d919061259e565b610809565b005b34801561023057600080fd5b506102396108ef565b6040516102469190612609565b60405180910390f35b61026960048036038101906102649190612624565b610906565b005b34801561027757600080fd5b50610292600480360381019061028d919061259e565b610c28565b005b6102ae60048036038101906102a99190612624565b610d5d565b005b3480156102bc57600080fd5b506102d760048036038101906102d29190612374565b610d7d565b6040516102e49190612763565b60405180910390f35b3480156102f957600080fd5b50610314600480360381019061030f9190612374565b610fc0565b60405161032191906123e2565b60405180910390f35b34801561033657600080fd5b50610351600480360381019061034c9190612785565b610fd2565b60405161035e9190612609565b60405180910390f35b34801561037357600080fd5b5061037c61108a565b005b34801561038a57600080fd5b5061039361109e565b6040516103a091906123e2565b60405180910390f35b3480156103b557600080fd5b506103d060048036038101906103cb9190612374565b6110c8565b005b3480156103de57600080fd5b506103e7611207565b6040516103f4919061231c565b60405180910390f35b34801561040957600080fd5b50610424600480360381019061041f91906127de565b611299565b005b610440600480360381019061043b91906128bf565b6113a4565b005b34801561044e57600080fd5b5061046960048036038101906104649190612942565b611417565b6040516104769190612609565b60405180910390f35b34801561048b57600080fd5b506104a660048036038101906104a19190612374565b611569565b6040516104b3919061231c565b60405180910390f35b3480156104c857600080fd5b506104e360048036038101906104de91906129ba565b611607565b6040516104f09190612271565b60405180910390f35b34801561050557600080fd5b50610520600480360381019061051b9190612785565b61169b565b005b60006301ffc9a760e01b827bffffffffffffffffffffffffffffffffffffffffffffffffffffffff1916148061057d57506380ac58cd60e01b827bffffffffffffffffffffffffffffffffffffffffffffffffffffffff1916145b806105ad5750635b5e139f60e01b827bffffffffffffffffffffffffffffffffffffffffffffffffffffffff1916145b9050919050565b6060600280546105c390612a29565b80601f01602080910402602001604051908101604052809291908181526020018280546105ef90612a29565b801561063c5780601f106106115761010080835404028352916020019161063c565b820191906000526020600020905b81548152906001019060200180831161061f57829003601f168201915b5050505050905090565b60006106518261171e565b610687576040517fcf4700e400000000000000000000000000000000000000000000000000000000815260040160405180910390fd5b6006600083815260200190815260200160002060000160009054906101000a900473ffffffffffffffffffffffffffffffffffffffff169050919050565b60006106d082610fc0565b90508073ffffffffffffffffffffffffffffffffffffffff166106f161177d565b73ffffffffffffffffffffffffffffffffffffffff16146107545761071d8161071861177d565b611607565b610753576040517fcfb3b94200000000000000000000000000000000000000000000000000000000815260040160405180910390fd5b5b826006600084815260200190815260200160002060000160006101000a81548173ffffffffffffffffffffffffffffffffffffffff021916908373ffffffffffffffffffffffffffffffffffffffff160217905550818373ffffffffffffffffffffffffffffffffffffffff168273ffffffffffffffffffffffffffffffffffffffff167f8c5be1e5ebec7d5bd14f71427d1e84f3dd0314c0f7b2291e5b200ac8c7c3b92560405160405180910390a4505050565b6108128261171e565b610851576040517f08c379a000000000000000000000000000000000000000000000000000000000815260040161084890612acc565b60405180910390fd5b3373ffffffffffffffffffffffffffffffffffffffff1661087183610fc0565b73ffffffffffffffffffffffffffffffffffffffff16146108c7576040517f08c379a00000000000000000000000000000000000000000000000000000000081526004016108be90612b5e565b60405180910390fd5b806009600084815260200190815260200160002060020190816108ea9190612d2a565b505050565b60006108f9611785565b6001546000540303905090565b60006109118261178a565b90508373ffffffffffffffffffffffffffffffffffffffff168173ffffffffffffffffffffffffffffffffffffffff1614610978576040517fa114810000000000000000000000000000000000000000000000000000000000815260040160405180910390fd5b60008061098484611856565b9150915061099a818761099561177d565b61187d565b6109e6576109af866109aa61177d565b611607565b6109e5576040517f59c896be00000000000000000000000000000000000000000000000000000000815260040160405180910390fd5b5b600073ffffffffffffffffffffffffffffffffffffffff168573ffffffffffffffffffffffffffffffffffffffff1603610a4c576040517fea553b3400000000000000000000000000000000000000000000000000000000815260040160405180910390fd5b610a5986868660016118c1565b8015610a6457600082555b600560008773ffffffffffffffffffffffffffffffffffffffff1673ffffffffffffffffffffffffffffffffffffffff168152602001908152602001600020600081546001900391905081905550600560008673ffffffffffffffffffffffffffffffffffffffff1673ffffffffffffffffffffffffffffffffffffffff1681526020019081526020016000206000815460010191905081905550610b3285610b0e8888876118c7565b7c0200000000000000000000000000000000000000000000000000000000176118ef565b600460008681526020019081526020016000208190555060007c0200000000000000000000000000000000000000000000000000000000841603610bb85760006001850190506000600460008381526020019081526020016000205403610bb6576000548114610bb5578360046000838152602001908152602001600020819055505b5b505b838573ffffffffffffffffffffffffffffffffffffffff168773ffffffffffffffffffffffffffffffffffffffff167fddf252ad1be2c89b69c2b068fc378daa952ba7f163c4a11628f55a4df523b3ef60405160405180910390a4610c20868686600161191a565b505050505050565b610c318261171e565b610c70576040517f08c379a0000000000000000000000000000000000000000000000000000000008152600401610c6790612acc565b60405180910390fd5b3373ffffffffffffffffffffffffffffffffffffffff16610c9083610fc0565b73ffffffffffffffffffffffffffffffffffffffff1614610ce6576040517f08c379a0000000000000000000000000000000000000000000000000000000008152600401610cdd90612b5e565b60405180910390fd5b80600960008481526020019081526020016000206004019081610d099190612d2a565b503373ffffffffffffffffffffffffffffffffffffffff16827f40a9418af964c87768383b4b3aebe2d80f69c88cb618bbf0d194a1bf203e4e8983604051610d51919061231c565b60405180910390a35050565b610d78838383604051806020016040528060008152506113a4565b505050565b610d8561211b565b600960008381526020019081526020016000206040518060a001604052908160008201548152602001600182018054610dbd90612a29565b80601f0160208091040260200160405190810160405280929190818152602001828054610de990612a29565b8015610e365780601f10610e0b57610100808354040283529160200191610e36565b820191906000526020600020905b815481529060010190602001808311610e1957829003601f168201915b50505050508152602001600282018054610e4f90612a29565b80601f0160208091040260200160405190810160405280929190818152602001828054610e7b90612a29565b8015610ec85780601f10610e9d57610100808354040283529160200191610ec8565b820191906000526020600020905b815481529060010190602001808311610eab57829003601f168201915b505050505081526020016003820160009054906101000a900473ffffffffffffffffffffffffffffffffffffffff1673ffffffffffffffffffffffffffffffffffffffff1673ffffffffffffffffffffffffffffffffffffffff168152602001600482018054610f3790612a29565b80601f0160208091040260200160405190810160405280929190818152602001828054610f6390612a29565b8015610fb05780601f10610f8557610100808354040283529160200191610fb0565b820191906000526020600020905b815481529060010190602001808311610f9357829003601f168201915b5050505050815250509050919050565b6000610fcb8261178a565b9050919050565b60008073ffffffffffffffffffffffffffffffffffffffff168273ffffffffffffffffffffffffffffffffffffffff1603611039576040517f8f4eb60400000000000000000000000000000000000000000000000000000000815260040160405180910390fd5b67ffffffffffffffff600560008473ffffffffffffffffffffffffffffffffffffffff1673ffffffffffffffffffffffffffffffffffffffff16815260200190815260200160002054169050919050565b611092611920565b61109c600061199e565b565b6000600860009054906101000a900473ffffffffffffffffffffffffffffffffffffffff16905090565b6110d18161171e565b611110576040517f08c379a000000000000000000000000000000000000000000000000000000000815260040161110790612acc565b60405180910390fd5b3373ffffffffffffffffffffffffffffffffffffffff1661113082610fc0565b73ffffffffffffffffffffffffffffffffffffffff1614611186576040517f08c379a000000000000000000000000000000000000000000000000000000000815260040161117d90612b5e565b60405180910390fd5b61118f81611a64565b600960008281526020019081526020016000206000808201600090556001820160006111bb9190612160565b6002820160006111cb9190612160565b6003820160006101000a81549073ffffffffffffffffffffffffffffffffffffffff02191690556004820160006112029190612160565b505050565b60606003805461121690612a29565b80601f016020809104026020016040519081016040528092919081815260200182805461124290612a29565b801561128f5780601f106112645761010080835404028352916020019161128f565b820191906000526020600020905b81548152906001019060200180831161127257829003601f168201915b5050505050905090565b80600760006112a661177d565b73ffffffffffffffffffffffffffffffffffffffff1673ffffffffffffffffffffffffffffffffffffffff16815260200190815260200160002060008473ffffffffffffffffffffffffffffffffffffffff1673ffffffffffffffffffffffffffffffffffffffff16815260200190815260200160002060006101000a81548160ff0219169083151502179055508173ffffffffffffffffffffffffffffffffffffffff1661135361177d565b73ffffffffffffffffffffffffffffffffffffffff167f17307eab39ab6107e8899845ad3d59bd9653f200f220920489ca2b5937696c31836040516113989190612271565b60405180910390a35050565b6113af848484610906565b60008373ffffffffffffffffffffffffffffffffffffffff163b14611411576113da84848484611a72565b611410576040517fd1a57ed600000000000000000000000000000000000000000000000000000000815260040160405180910390fd5b5b50505050565b600080611422611bc2565b905061142f336001611bcb565b6040518060a001604052808281526020018581526020018481526020013373ffffffffffffffffffffffffffffffffffffffff16815260200160405180602001604052806000815250815250600960008381526020019081526020016000206000820151816000015560208201518160010190816114ad9190612d2a565b5060408201518160020190816114c39190612d2a565b5060608201518160030160006101000a81548173ffffffffffffffffffffffffffffffffffffffff021916908373ffffffffffffffffffffffffffffffffffffffff16021790555060808201518160040190816115209190612d2a565b509050507f5041508c74c5ad5ddc4c2c1f09ab873b5f067367dd2e8af9c7561d3556adb52781853360405161155793929190612dfc565b60405180910390a18091505092915050565b60606115748261171e565b6115aa576040517fa14c4b5000000000000000000000000000000000000000000000000000000000815260040160405180910390fd5b60006115b4611be9565b905060008151036115d457604051806020016040528060008152506115ff565b806115de84611c00565b6040516020016115ef929190612e76565b6040516020818303038152906040525b915050919050565b6000600760008473ffffffffffffffffffffffffffffffffffffffff1673ffffffffffffffffffffffffffffffffffffffff16815260200190815260200160002060008373ffffffffffffffffffffffffffffffffffffffff1673ffffffffffffffffffffffffffffffffffffffff16815260200190815260200160002060009054906101000a900460ff16905092915050565b6116a3611920565b600073ffffffffffffffffffffffffffffffffffffffff168173ffffffffffffffffffffffffffffffffffffffff1603611712576040517f08c379a000000000000000000000000000000000000000000000000000000000815260040161170990612f0c565b60405180910390fd5b61171b8161199e565b50565b600081611729611785565b11158015611738575060005482105b8015611776575060007c0100000000000000000000000000000000000000000000000000000000600460008581526020019081526020016000205416145b9050919050565b600033905090565b600090565b60008082905080611799611785565b1161181f5760005481101561181e5760006004600083815260200190815260200160002054905060007c010000000000000000000000000000000000000000000000000000000082160361181c575b600081036118125760046000836001900393508381526020019081526020016000205490506117e8565b8092505050611851565b505b5b6040517fdf2d9b4200000000000000000000000000000000000000000000000000000000815260040160405180910390fd5b919050565b60008060006006600085815260200190815260200160002090508092508254915050915091565b600073ffffffffffffffffffffffffffffffffffffffff8316925073ffffffffffffffffffffffffffffffffffffffff821691508382148383141790509392505050565b50505050565b60008060e883901c905060e86118de868684611c50565b62ffffff16901b9150509392505050565b600073ffffffffffffffffffffffffffffffffffffffff83169250814260a01b178317905092915050565b50505050565b611928611c59565b73ffffffffffffffffffffffffffffffffffffffff1661194661109e565b73ffffffffffffffffffffffffffffffffffffffff161461199c576040517f08c379a000000000000000000000000000000000000000000000000000000000815260040161199390612f78565b60405180910390fd5b565b6000600860009054906101000a900473ffffffffffffffffffffffffffffffffffffffff16905081600860006101000a81548173ffffffffffffffffffffffffffffffffffffffff021916908373ffffffffffffffffffffffffffffffffffffffff1602179055508173ffffffffffffffffffffffffffffffffffffffff168173ffffffffffffffffffffffffffffffffffffffff167f8be0079c531659141344cd1fd0a4f28419497f9722a3daafe3b4186f6b6457e060405160405180910390a35050565b611a6f816000611c61565b50565b60008373ffffffffffffffffffffffffffffffffffffffff1663150b7a02611a9861177d565b8786866040518563ffffffff1660e01b8152600401611aba9493929190612fed565b6020604051808303816000875af1925050508015611af657506040513d601f19601f82011682018060405250810190611af3919061304e565b60015b611b6f573d8060008114611b26576040519150601f19603f3d011682016040523d82523d6000602084013e611b2b565b606091505b506000815103611b67576040517fd1a57ed600000000000000000000000000000000000000000000000000000000815260040160405180910390fd5b805181602001fd5b63150b7a0260e01b7bffffffffffffffffffffffffffffffffffffffffffffffffffffffff1916817bffffffffffffffffffffffffffffffffffffffffffffffffffffffff191614915050949350505050565b60008054905090565b611be5828260405180602001604052806000815250611eb3565b5050565b606060405180602001604052806000815250905090565b606060a060405101806040526020810391506000825281835b600115611c3b57600184039350600a81066030018453600a8104905080611c19575b50828103602084039350808452505050919050565b60009392505050565b600033905090565b6000611c6c8361178a565b90506000819050600080611c7f86611856565b915091508415611ce857611c9b8184611c9661177d565b61187d565b611ce757611cb083611cab61177d565b611607565b611ce6576040517f59c896be00000000000000000000000000000000000000000000000000000000815260040160405180910390fd5b5b5b611cf68360008860016118c1565b8015611d0157600082555b600160806001901b03600560008573ffffffffffffffffffffffffffffffffffffffff1673ffffffffffffffffffffffffffffffffffffffff16815260200190815260200160002060008282540192505081905550611da983611d66856000886118c7565b7c02000000000000000000000000000000000000000000000000000000007c010000000000000000000000000000000000000000000000000000000017176118ef565b600460008881526020019081526020016000208190555060007c0200000000000000000000000000000000000000000000000000000000851603611e2f5760006001870190506000600460008381526020019081526020016000205403611e2d576000548114611e2c578460046000838152602001908152602001600020819055505b5b505b85600073ffffffffffffffffffffffffffffffffffffffff168473ffffffffffffffffffffffffffffffffffffffff167fddf252ad1be2c89b69c2b068fc378daa952ba7f163c4a11628f55a4df523b3ef60405160405180910390a4611e9983600088600161191a565b600160008154809291906001019190505550505050505050565b611ebd8383611f50565b60008373ffffffffffffffffffffffffffffffffffffffff163b14611f4b57600080549050600083820390505b611efd6000868380600101945086611a72565b611f33576040517fd1a57ed600000000000000000000000000000000000000000000000000000000815260040160405180910390fd5b818110611eea578160005414611f4857600080fd5b50505b505050565b60008054905060008203611f90576040517fb562e8dd00000000000000000000000000000000000000000000000000000000815260040160405180910390fd5b611f9d60008483856118c1565b600160406001901b178202600560008573ffffffffffffffffffffffffffffffffffffffff1673ffffffffffffffffffffffffffffffffffffffff168152602001908152602001600020600082825401925050819055506120148361200560008660006118c7565b61200e8561210b565b176118ef565b6004600083815260200190815260200160002081905550600080838301905073ffffffffffffffffffffffffffffffffffffffff85169150828260007fddf252ad1be2c89b69c2b068fc378daa952ba7f163c4a11628f55a4df523b3ef600080a4600183015b8181146120b557808360007fddf252ad1be2c89b69c2b068fc378daa952ba7f163c4a11628f55a4df523b3ef600080a460018101905061207a565b50600082036120f0576040517f2e07630000000000000000000000000000000000000000000000000000000000815260040160405180910390fd5b806000819055505050612106600084838561191a565b505050565b60006001821460e11b9050919050565b6040518060a00160405280600081526020016060815260200160608152602001600073ffffffffffffffffffffffffffffffffffffffff168152602001606081525090565b50805461216c90612a29565b6000825580601f1061217e575061219d565b601f01602090049060005260206000209081019061219c91906121a0565b5b50565b5b808211156121b95760008160009055506001016121a1565b5090565b6000604051905090565b600080fd5b600080fd5b60007fffffffff0000000000000000000000000000000000000000000000000000000082169050919050565b612206816121d1565b811461221157600080fd5b50565b600081359050612223816121fd565b92915050565b60006020828403121561223f5761223e6121c7565b5b600061224d84828501612214565b91505092915050565b60008115159050919050565b61226b81612256565b82525050565b60006020820190506122866000830184612262565b92915050565b600081519050919050565b600082825260208201905092915050565b60005b838110156122c65780820151818401526020810190506122ab565b60008484015250505050565b6000601f19601f8301169050919050565b60006122ee8261228c565b6122f88185612297565b93506123088185602086016122a8565b612311816122d2565b840191505092915050565b6000602082019050818103600083015261233681846122e3565b905092915050565b6000819050919050565b6123518161233e565b811461235c57600080fd5b50565b60008135905061236e81612348565b92915050565b60006020828403121561238a576123896121c7565b5b60006123988482850161235f565b91505092915050565b600073ffffffffffffffffffffffffffffffffffffffff82169050919050565b60006123cc826123a1565b9050919050565b6123dc816123c1565b82525050565b60006020820190506123f760008301846123d3565b92915050565b612406816123c1565b811461241157600080fd5b50565b600081359050612423816123fd565b92915050565b600080604083850312156124405761243f6121c7565b5b600061244e85828601612414565b925050602061245f8582860161235f565b9150509250929050565b600080fd5b600080fd5b7f4e487b7100000000000000000000000000000000000000000000000000000000600052604160045260246000fd5b6124ab826122d2565b810181811067ffffffffffffffff821117156124ca576124c9612473565b5b80604052505050565b60006124dd6121bd565b90506124e982826124a2565b919050565b600067ffffffffffffffff82111561250957612508612473565b5b612512826122d2565b9050602081019050919050565b82818337600083830152505050565b600061254161253c846124ee565b6124d3565b90508281526020810184848401111561255d5761255c61246e565b5b61256884828561251f565b509392505050565b600082601f83011261258557612584612469565b5b813561259584826020860161252e565b91505092915050565b600080604083850312156125b5576125b46121c7565b5b60006125c38582860161235f565b925050602083013567ffffffffffffffff8111156125e4576125e36121cc565b5b6125f085828601612570565b9150509250929050565b6126038161233e565b82525050565b600060208201905061261e60008301846125fa565b92915050565b60008060006060848603121561263d5761263c6121c7565b5b600061264b86828701612414565b935050602061265c86828701612414565b925050604061266d8682870161235f565b9150509250925092565b6126808161233e565b82525050565b600082825260208201905092915050565b60006126a28261228c565b6126ac8185612686565b93506126bc8185602086016122a8565b6126c5816122d2565b840191505092915050565b6126d9816123c1565b82525050565b600060a0830160008301516126f76000860182612677565b506020830151848203602086015261270f8282612697565b915050604083015184820360408601526127298282612697565b915050606083015161273e60608601826126d0565b50608083015184820360808601526127568282612697565b9150508091505092915050565b6000602082019050818103600083015261277d81846126df565b905092915050565b60006020828403121561279b5761279a6121c7565b5b60006127a984828501612414565b91505092915050565b6127bb81612256565b81146127c657600080fd5b50565b6000813590506127d8816127b2565b92915050565b600080604083850312156127f5576127f46121c7565b5b600061280385828601612414565b9250506020612814858286016127c9565b9150509250929050565b600067ffffffffffffffff82111561283957612838612473565b5b612842826122d2565b9050602081019050919050565b600061286261285d8461281e565b6124d3565b90508281526020810184848401111561287e5761287d61246e565b5b61288984828561251f565b509392505050565b600082601f8301126128a6576128a5612469565b5b81356128b684826020860161284f565b91505092915050565b600080600080608085870312156128d9576128d86121c7565b5b60006128e787828801612414565b94505060206128f887828801612414565b93505060406129098782880161235f565b925050606085013567ffffffffffffffff81111561292a576129296121cc565b5b61293687828801612891565b91505092959194509250565b60008060408385031215612959576129586121c7565b5b600083013567ffffffffffffffff811115612977576129766121cc565b5b61298385828601612570565b925050602083013567ffffffffffffffff8111156129a4576129a36121cc565b5b6129b085828601612570565b9150509250929050565b600080604083850312156129d1576129d06121c7565b5b60006129df85828601612414565b92505060206129f085828601612414565b9150509250929050565b7f4e487b7100000000000000000000000000000000000000000000000000000000600052602260045260246000fd5b60006002820490506001821680612a4157607f821691505b602082108103612a5457612a536129fa565b5b50919050565b7f4769747365633a206e6f207265706f7369746f727920666f756e64206279206760008201527f6976656e20494400000000000000000000000000000000000000000000000000602082015250565b6000612ab6602783612297565b9150612ac182612a5a565b604082019050919050565b60006020820190508181036000830152612ae581612aa9565b9050919050565b7f4769747365633a2063616c6c6572206973206e6f7420746865207265706f736960008201527f746f7279206f776e657200000000000000000000000000000000000000000000602082015250565b6000612b48602a83612297565b9150612b5382612aec565b604082019050919050565b60006020820190508181036000830152612b7781612b3b565b9050919050565b60008190508160005260206000209050919050565b60006020601f8301049050919050565b600082821b905092915050565b600060088302612be07fffffffffffffffffffffffffffffffffffffffffffffffffffffffffffffffff82612ba3565b612bea8683612ba3565b95508019841693508086168417925050509392505050565b6000819050919050565b6000612c27612c22612c1d8461233e565b612c02565b61233e565b9050919050565b6000819050919050565b612c4183612c0c565b612c55612c4d82612c2e565b848454612bb0565b825550505050565b600090565b612c6a612c5d565b612c75818484612c38565b505050565b5b81811015612c9957612c8e600082612c62565b600181019050612c7b565b5050565b601f821115612cde57612caf81612b7e565b612cb884612b93565b81016020851015612cc7578190505b612cdb612cd385612b93565b830182612c7a565b50505b505050565b600082821c905092915050565b6000612d0160001984600802612ce3565b1980831691505092915050565b6000612d1a8383612cf0565b9150826002028217905092915050565b612d338261228c565b67ffffffffffffffff811115612d4c57612d4b612473565b5b612d568254612a29565b612d61828285612c9d565b600060209050601f831160018114612d945760008415612d82578287015190505b612d8c8582612d0e565b865550612df4565b601f198416612da286612b7e565b60005b82811015612dca57848901518255600182019150602085019450602081019050612da5565b86831015612de75784890151612de3601f891682612cf0565b8355505b6001600288020188555050505b505050505050565b6000606082019050612e1160008301866125fa565b8181036020830152612e2381856122e3565b9050612e3260408301846123d3565b949350505050565b600081905092915050565b6000612e508261228c565b612e5a8185612e3a565b9350612e6a8185602086016122a8565b80840191505092915050565b6000612e828285612e45565b9150612e8e8284612e45565b91508190509392505050565b7f4f776e61626c653a206e6577206f776e657220697320746865207a65726f206160008201527f6464726573730000000000000000000000000000000000000000000000000000602082015250565b6000612ef6602683612297565b9150612f0182612e9a565b604082019050919050565b60006020820190508181036000830152612f2581612ee9565b9050919050565b7f4f776e61626c653a2063616c6c6572206973206e6f7420746865206f776e6572600082015250565b6000612f62602083612297565b9150612f6d82612f2c565b602082019050919050565b60006020820190508181036000830152612f9181612f55565b9050919050565b600081519050919050565b600082825260208201905092915050565b6000612fbf82612f98565b612fc98185612fa3565b9350612fd98185602086016122a8565b612fe2816122d2565b840191505092915050565b600060808201905061300260008301876123d3565b61300f60208301866123d3565b61301c60408301856125fa565b818103606083015261302e8184612fb4565b905095945050505050565b600081519050613048816121fd565b92915050565b600060208284031215613064576130636121c7565b5b600061307284828501613039565b9150509291505056fea26469706673582212208f64cf9744811b9833bea9ee013631f6c5640be4d51b811c82572ce253bd3e0a64736f6c63430008110033",
  "linkReferences": {},
  "deployedLinkReferences": {}
}