{
  "_format": "hh-sol-artifact-1",
  "contractName": "Gitsec",
  "sourceName": "contracts/Gitsec.sol",
  "abi": [
    {
      "inputs": [
        {
          "internalType": "string",
          "name": "name",
          "type": "string"
        },
        {
          "internalType": "string",
          "name": "symbol",
          "type": "string"
        }
      ],
      "stateMutability": "nonpayable",
      "type": "constructor"
    },
    {
      "inputs": [],
      "name": "ApprovalCallerNotOwnerNorApproved",
      "type": "error"
    },
    {
      "inputs": [],
      "name": "ApprovalQueryForNonexistentToken",
      "type": "error"
    },
    {
      "inputs": [],
      "name": "BalanceQueryForZeroAddress",
      "type": "error"
    },
    {
      "inputs": [],
      "name": "MintERC2309QuantityExceedsLimit",
      "type": "error"
    },
    {
      "inputs": [],
      "name": "MintToZeroAddress",
      "type": "error"
    },
    {
      "inputs": [],
      "name": "MintZeroQuantity",
      "type": "error"
    },
    {
      "inputs": [],
      "name": "OwnerQueryForNonexistentToken",
      "type": "error"
    },
    {
      "inputs": [],
      "name": "OwnershipNotInitializedForExtraData",
      "type": "error"
    },
    {
      "inputs": [],
      "name": "TransferCallerNotOwnerNorApproved",
      "type": "error"
    },
    {
      "inputs": [],
      "name": "TransferFromIncorrectOwner",
      "type": "error"
    },
    {
      "inputs": [],
      "name": "TransferToNonERC721ReceiverImplementer",
      "type": "error"
    },
    {
      "inputs": [],
      "name": "TransferToZeroAddress",
      "type": "error"
    },
    {
      "inputs": [],
      "name": "URIQueryForNonexistentToken",
      "type": "error"
    },
    {
      "anonymous": false,
      "inputs": [
        {
          "indexed": true,
          "internalType": "address",
          "name": "owner",
          "type": "address"
        },
        {
          "indexed": true,
          "internalType": "address",
          "name": "approved",
          "type": "address"
        },
        {
          "indexed": true,
          "internalType": "uint256",
          "name": "tokenId",
          "type": "uint256"
        }
      ],
      "name": "Approval",
      "type": "event"
    },
    {
      "anonymous": false,
      "inputs": [
        {
          "indexed": true,
          "internalType": "address",
          "name": "owner",
          "type": "address"
        },
        {
          "indexed": true,
          "internalType": "address",
          "name": "operator",
          "type": "address"
        },
        {
          "indexed": false,
          "internalType": "bool",
          "name": "approved",
          "type": "bool"
        }
      ],
      "name": "ApprovalForAll",
      "type": "event"
    },
    {
      "anonymous": false,
      "inputs": [
        {
          "indexed": true,
          "internalType": "uint256",
          "name": "fromTokenId",
          "type": "uint256"
        },
        {
          "indexed": false,
          "internalType": "uint256",
          "name": "toTokenId",
          "type": "uint256"
        },
        {
          "indexed": true,
          "internalType": "address",
          "name": "from",
          "type": "address"
        },
        {
          "indexed": true,
          "internalType": "address",
          "name": "to",
          "type": "address"
        }
      ],
      "name": "ConsecutiveTransfer",
      "type": "event"
    },
    {
      "anonymous": false,
      "inputs": [
        {
          "indexed": true,
          "internalType": "uint256",
          "name": "repId",
          "type": "uint256"
        },
        {
          "indexed": true,
          "internalType": "address",
          "name": "owner",
          "type": "address"
        },
        {
          "indexed": false,
          "internalType": "string",
          "name": "IPFS",
          "type": "string"
        }
      ],
      "name": "IPFSHashUpdated",
      "type": "event"
    },
    {
      "anonymous": false,
      "inputs": [
        {
          "indexed": true,
          "internalType": "address",
          "name": "previousOwner",
          "type": "address"
        },
        {
          "indexed": true,
          "internalType": "address",
          "name": "newOwner",
          "type": "address"
        }
      ],
      "name": "OwnershipTransferred",
      "type": "event"
    },
    {
      "anonymous": false,
      "inputs": [
        {
          "indexed": false,
          "internalType": "uint256",
          "name": "repId",
          "type": "uint256"
        },
        {
          "indexed": false,
          "internalType": "string",
          "name": "repName",
          "type": "string"
        },
        {
          "indexed": false,
          "internalType": "address",
          "name": "owner",
          "type": "address"
        }
      ],
      "name": "RepositoryCreated",
      "type": "event"
    },
    {
      "anonymous": false,
      "inputs": [
        {
          "indexed": true,
          "internalType": "address",
          "name": "from",
          "type": "address"
        },
        {
          "indexed": true,
          "internalType": "address",
          "name": "to",
          "type": "address"
        },
        {
          "indexed": true,
          "internalType": "uint256",
          "name": "tokenId",
          "type": "uint256"
        }
      ],
      "name": "Transfer",
      "type": "event"
    },
    {
      "inputs": [],
      "name": "admin",
      "outputs": [
        {
          "internalType": "address",
          "name": "",
          "type": "address"
        }
      ],
      "stateMutability": "view",
      "type": "function"
    },
    {
      "inputs": [
        {
          "internalType": "address",
          "name": "to",
          "type": "address"
        },
        {
          "internalType": "uint256",
          "name": "tokenId",
          "type": "uint256"
        }
      ],
      "name": "approve",
      "outputs": [],
      "stateMutability": "payable",
      "type": "function"
    },
    {
      "inputs": [
        {
          "internalType": "address",
          "name": "owner",
          "type": "address"
        }
      ],
      "name": "balanceOf",
      "outputs": [
        {
          "internalType": "uint256",
          "name": "",
          "type": "uint256"
        }
      ],
      "stateMutability": "view",
      "type": "function"
    },
    {
      "inputs": [
        {
          "internalType": "string",
          "name": "name",
          "type": "string"
        },
        {
          "internalType": "string",
          "name": "description",
          "type": "string"
        }
      ],
      "name": "createRepository",
      "outputs": [
        {
          "internalType": "uint256",
          "name": "",
          "type": "uint256"
        }
      ],
      "stateMutability": "nonpayable",
      "type": "function"
    },
    {
      "inputs": [
        {
          "internalType": "uint256",
          "name": "id",
          "type": "uint256"
        }
      ],
      "name": "deleteRepository",
      "outputs": [],
      "stateMutability": "nonpayable",
      "type": "function"
    },
    {
      "inputs": [],
      "name": "getAllRepositories",
      "outputs": [
        {
          "components": [
            {
              "internalType": "uint256",
              "name": "id",
              "type": "uint256"
            },
            {
              "internalType": "string",
              "name": "name",
              "type": "string"
            },
            {
              "internalType": "string",
              "name": "description",
              "type": "string"
            },
            {
              "internalType": "address",
              "name": "owner",
              "type": "address"
            },
            {
              "internalType": "string",
              "name": "IPFS",
              "type": "string"
            }
          ],
          "internalType": "struct Gitsec.Repository[]",
          "name": "",
          "type": "tuple[]"
        }
      ],
      "stateMutability": "view",
      "type": "function"
    },
    {
      "inputs": [
        {
          "internalType": "uint256",
          "name": "tokenId",
          "type": "uint256"
        }
      ],
      "name": "getApproved",
      "outputs": [
        {
          "internalType": "address",
          "name": "",
          "type": "address"
        }
      ],
      "stateMutability": "view",
      "type": "function"
    },
    {
      "inputs": [
        {
          "internalType": "uint256",
          "name": "id",
          "type": "uint256"
        }
      ],
      "name": "getRepository",
      "outputs": [
        {
          "components": [
            {
              "internalType": "uint256",
              "name": "id",
              "type": "uint256"
            },
            {
              "internalType": "string",
              "name": "name",
              "type": "string"
            },
            {
              "internalType": "string",
              "name": "description",
              "type": "string"
            },
            {
              "internalType": "address",
              "name": "owner",
              "type": "address"
            },
            {
              "internalType": "string",
              "name": "IPFS",
              "type": "string"
            }
          ],
          "internalType": "struct Gitsec.Repository",
          "name": "",
          "type": "tuple"
        }
      ],
      "stateMutability": "view",
      "type": "function"
    },
    {
      "inputs": [
        {
          "internalType": "address",
          "name": "user",
          "type": "address"
        }
      ],
      "name": "getUserRepositories",
      "outputs": [
        {
          "components": [
            {
              "internalType": "uint256",
              "name": "id",
              "type": "uint256"
            },
            {
              "internalType": "string",
              "name": "name",
              "type": "string"
            },
            {
              "internalType": "string",
              "name": "description",
              "type": "string"
            },
            {
              "internalType": "address",
              "name": "owner",
              "type": "address"
            },
            {
              "internalType": "string",
              "name": "IPFS",
              "type": "string"
            }
          ],
          "internalType": "struct Gitsec.Repository[]",
          "name": "",
          "type": "tuple[]"
        }
      ],
      "stateMutability": "view",
      "type": "function"
    },
    {
      "inputs": [
        {
          "internalType": "address",
          "name": "owner",
          "type": "address"
        },
        {
          "internalType": "address",
          "name": "operator",
          "type": "address"
        }
      ],
      "name": "isApprovedForAll",
      "outputs": [
        {
          "internalType": "bool",
          "name": "",
          "type": "bool"
        }
      ],
      "stateMutability": "view",
      "type": "function"
    },
    {
      "inputs": [],
      "name": "name",
      "outputs": [
        {
          "internalType": "string",
          "name": "",
          "type": "string"
        }
      ],
      "stateMutability": "view",
      "type": "function"
    },
    {
      "inputs": [],
      "name": "owner",
      "outputs": [
        {
          "internalType": "address",
          "name": "",
          "type": "address"
        }
      ],
      "stateMutability": "view",
      "type": "function"
    },
    {
      "inputs": [
        {
          "internalType": "uint256",
          "name": "tokenId",
          "type": "uint256"
        }
      ],
      "name": "ownerOf",
      "outputs": [
        {
          "internalType": "address",
          "name": "",
          "type": "address"
        }
      ],
      "stateMutability": "view",
      "type": "function"
    },
    {
      "inputs": [],
      "name": "renounceOwnership",
      "outputs": [],
      "stateMutability": "nonpayable",
      "type": "function"
    },
    {
      "inputs": [
        {
          "internalType": "address",
          "name": "from",
          "type": "address"
        },
        {
          "internalType": "address",
          "name": "to",
          "type": "address"
        },
        {
          "internalType": "uint256",
          "name": "tokenId",
          "type": "uint256"
        }
      ],
      "name": "safeTransferFrom",
      "outputs": [],
      "stateMutability": "payable",
      "type": "function"
    },
    {
      "inputs": [
        {
          "internalType": "address",
          "name": "from",
          "type": "address"
        },
        {
          "internalType": "address",
          "name": "to",
          "type": "address"
        },
        {
          "internalType": "uint256",
          "name": "tokenId",
          "type": "uint256"
        },
        {
          "internalType": "bytes",
          "name": "_data",
          "type": "bytes"
        }
      ],
      "name": "safeTransferFrom",
      "outputs": [],
      "stateMutability": "payable",
      "type": "function"
    },
    {
      "inputs": [
        {
          "internalType": "address",
          "name": "newAdmin",
          "type": "address"
        }
      ],
      "name": "setAdmin",
      "outputs": [],
      "stateMutability": "nonpayable",
      "type": "function"
    },
    {
      "inputs": [
        {
          "internalType": "address",
          "name": "operator",
          "type": "address"
        },
        {
          "internalType": "bool",
          "name": "approved",
          "type": "bool"
        }
      ],
      "name": "setApprovalForAll",
      "outputs": [],
      "stateMutability": "nonpayable",
      "type": "function"
    },
    {
      "inputs": [
        {
          "internalType": "bytes4",
          "name": "interfaceId",
          "type": "bytes4"
        }
      ],
      "name": "supportsInterface",
      "outputs": [
        {
          "internalType": "bool",
          "name": "",
          "type": "bool"
        }
      ],
      "stateMutability": "view",
      "type": "function"
    },
    {
      "inputs": [],
      "name": "symbol",
      "outputs": [
        {
          "internalType": "string",
          "name": "",
          "type": "string"
        }
      ],
      "stateMutability": "view",
      "type": "function"
    },
    {
      "inputs": [
        {
          "internalType": "uint256",
          "name": "tokenId",
          "type": "uint256"
        }
      ],
      "name": "tokenURI",
      "outputs": [
        {
          "internalType": "string",
          "name": "",
          "type": "string"
        }
      ],
      "stateMutability": "view",
      "type": "function"
    },
    {
      "inputs": [],
      "name": "totalSupply",
      "outputs": [
        {
          "internalType": "uint256",
          "name": "",
          "type": "uint256"
        }
      ],
      "stateMutability": "view",
      "type": "function"
    },
    {
      "inputs": [
        {
          "internalType": "address",
          "name": "from",
          "type": "address"
        },
        {
          "internalType": "address",
          "name": "to",
          "type": "address"
        },
        {
          "internalType": "uint256",
          "name": "tokenId",
          "type": "uint256"
        }
      ],
      "name": "transferFrom",
      "outputs": [],
      "stateMutability": "payable",
      "type": "function"
    },
    {
      "inputs": [
        {
          "internalType": "address",
          "name": "newOwner",
          "type": "address"
        }
      ],
      "name": "transferOwnership",
      "outputs": [],
      "stateMutability": "nonpayable",
      "type": "function"
    },
    {
      "inputs": [
        {
          "internalType": "uint256",
          "name": "id",
          "type": "uint256"
        },
        {
          "internalType": "string",
          "name": "newDescription",
          "type": "string"
        }
      ],
      "name": "updateDescription",
      "outputs": [],
      "stateMutability": "nonpayable",
      "type": "function"
    },
    {
      "inputs": [
        {
          "internalType": "uint256",
          "name": "id",
          "type": "uint256"
        },
        {
          "internalType": "string",
          "name": "newIPFS",
          "type": "string"
        }
      ],
      "name": "updateIPFS",
      "outputs": [],
      "stateMutability": "nonpayable",
      "type": "function"
    }
  ],
  "bytecode": "0x60806040523480156200001157600080fd5b506040516200462c3803806200462c833981810160405281019062000037919062000307565b818181600290816200004a9190620005d7565b5080600390816200005c9190620005d7565b506200006d6200009d60201b60201c565b60008190555050506200009562000089620000a660201b60201c565b620000ae60201b60201c565b5050620006be565b60006001905090565b600033905090565b6000600860009054906101000a900473ffffffffffffffffffffffffffffffffffffffff16905081600860006101000a81548173ffffffffffffffffffffffffffffffffffffffff021916908373ffffffffffffffffffffffffffffffffffffffff1602179055508173ffffffffffffffffffffffffffffffffffffffff168173ffffffffffffffffffffffffffffffffffffffff167f8be0079c531659141344cd1fd0a4f28419497f9722a3daafe3b4186f6b6457e060405160405180910390a35050565b6000604051905090565b600080fd5b600080fd5b600080fd5b600080fd5b6000601f19601f8301169050919050565b7f4e487b7100000000000000000000000000000000000000000000000000000000600052604160045260246000fd5b620001dd8262000192565b810181811067ffffffffffffffff82111715620001ff57620001fe620001a3565b5b80604052505050565b60006200021462000174565b9050620002228282620001d2565b919050565b600067ffffffffffffffff821115620002455762000244620001a3565b5b620002508262000192565b9050602081019050919050565b60005b838110156200027d57808201518184015260208101905062000260565b60008484015250505050565b6000620002a06200029a8462000227565b62000208565b905082815260208101848484011115620002bf57620002be6200018d565b5b620002cc8482856200025d565b509392505050565b600082601f830112620002ec57620002eb62000188565b5b8151620002fe84826020860162000289565b91505092915050565b600080604083850312156200032157620003206200017e565b5b600083015167ffffffffffffffff81111562000342576200034162000183565b5b6200035085828601620002d4565b925050602083015167ffffffffffffffff81111562000374576200037362000183565b5b6200038285828601620002d4565b9150509250929050565b600081519050919050565b7f4e487b7100000000000000000000000000000000000000000000000000000000600052602260045260246000fd5b60006002820490506001821680620003df57607f821691505b602082108103620003f557620003f462000397565b5b50919050565b60008190508160005260206000209050919050565b60006020601f8301049050919050565b600082821b905092915050565b6000600883026200045f7fffffffffffffffffffffffffffffffffffffffffffffffffffffffffffffffff8262000420565b6200046b868362000420565b95508019841693508086168417925050509392505050565b6000819050919050565b6000819050919050565b6000620004b8620004b2620004ac8462000483565b6200048d565b62000483565b9050919050565b6000819050919050565b620004d48362000497565b620004ec620004e382620004bf565b8484546200042d565b825550505050565b600090565b62000503620004f4565b62000510818484620004c9565b505050565b5b8181101562000538576200052c600082620004f9565b60018101905062000516565b5050565b601f82111562000587576200055181620003fb565b6200055c8462000410565b810160208510156200056c578190505b620005846200057b8562000410565b83018262000515565b50505b505050565b600082821c905092915050565b6000620005ac600019846008026200058c565b1980831691505092915050565b6000620005c7838362000599565b9150826002028217905092915050565b620005e2826200038c565b67ffffffffffffffff811115620005fe57620005fd620001a3565b5b6200060a8254620003c6565b620006178282856200053c565b600060209050601f8311600181146200064f57600084156200063a578287015190505b620006468582620005b9565b865550620006b6565b601f1984166200065f86620003fb565b60005b82811015620006895784890151825560018201915060208501945060208101905062000662565b86831015620006a95784890151620006a5601f89168262000599565b8355505b6001600288020188555050505b505050505050565b613f5e80620006ce6000396000f3fe6080604052600436106101815760003560e01c8063715018a6116100d1578063a22cb4651161008a578063c87b56dd11610064578063c87b56dd1461055c578063e985e9c514610599578063f2fde38b146105d6578063f851a440146105ff57610181565b8063a22cb465146104da578063b88d4fde14610503578063c26927601461051f57610181565b8063715018a6146103dc5780637d2d7e30146103f35780637fcc83be146104305780638da5cb5b1461045b57806392e41c6e1461048657806395d89b41146104af57610181565b806323b872dd1161013e5780635be08933116101185780635be08933146102fc5780636352211e14610339578063704b6c021461037657806370a082311461039f57610181565b806323b872dd1461029b57806330d8bb9b146102b757806342842e0e146102e057610181565b806301ffc9a71461018657806306fdde03146101c3578063081812fc146101ee578063095ea7b31461022b57806314dee4b31461024757806318160ddd14610270575b600080fd5b34801561019257600080fd5b506101ad60048036038101906101a89190612dd3565b61062a565b6040516101ba9190612e1b565b60405180910390f35b3480156101cf57600080fd5b506101d86106bc565b6040516101e59190612ec6565b60405180910390f35b3480156101fa57600080fd5b5061021560048036038101906102109190612f1e565b61074e565b6040516102229190612f8c565b60405180910390f35b61024560048036038101906102409190612fd3565b6107cd565b005b34801561025357600080fd5b5061026e60048036038101906102699190613148565b610911565b005b34801561027c57600080fd5b506102856109f7565b60405161029291906131b3565b60405180910390f35b6102b560048036038101906102b091906131ce565b610a0e565b005b3480156102c357600080fd5b506102de60048036038101906102d99190613148565b610d30565b005b6102fa60048036038101906102f591906131ce565b610e38565b005b34801561030857600080fd5b50610323600480360381019061031e9190612f1e565b610e58565b604051610330919061330d565b60405180910390f35b34801561034557600080fd5b50610360600480360381019061035b9190612f1e565b61109b565b60405161036d9190612f8c565b60405180910390f35b34801561038257600080fd5b5061039d6004803603810190610398919061332f565b6110ad565b005b3480156103ab57600080fd5b506103c660048036038101906103c1919061332f565b6110f9565b6040516103d391906131b3565b60405180910390f35b3480156103e857600080fd5b506103f16111b1565b005b3480156103ff57600080fd5b5061041a6004803603810190610415919061332f565b6111c5565b60405161042791906134a2565b60405180910390f35b34801561043c57600080fd5b5061044561155c565b60405161045291906134a2565b60405180910390f35b34801561046757600080fd5b506104706118b7565b60405161047d9190612f8c565b60405180910390f35b34801561049257600080fd5b506104ad60048036038101906104a89190612f1e565b6118e1565b005b3480156104bb57600080fd5b506104c4611c56565b6040516104d19190612ec6565b60405180910390f35b3480156104e657600080fd5b5061050160048036038101906104fc91906134f0565b611ce8565b005b61051d600480360381019061051891906135d1565b611df3565b005b34801561052b57600080fd5b5061054660048036038101906105419190613654565b611e66565b60405161055391906131b3565b60405180910390f35b34801561056857600080fd5b50610583600480360381019061057e9190612f1e565b61201e565b6040516105909190612ec6565b60405180910390f35b3480156105a557600080fd5b506105c060048036038101906105bb91906136cc565b6120bc565b6040516105cd9190612e1b565b60405180910390f35b3480156105e257600080fd5b506105fd60048036038101906105f8919061332f565b612150565b005b34801561060b57600080fd5b506106146121d3565b6040516106219190612f8c565b60405180910390f35b60006301ffc9a760e01b827bffffffffffffffffffffffffffffffffffffffffffffffffffffffff1916148061068557506380ac58cd60e01b827bffffffffffffffffffffffffffffffffffffffffffffffffffffffff1916145b806106b55750635b5e139f60e01b827bffffffffffffffffffffffffffffffffffffffffffffffffffffffff1916145b9050919050565b6060600280546106cb9061373b565b80601f01602080910402602001604051908101604052809291908181526020018280546106f79061373b565b80156107445780601f1061071957610100808354040283529160200191610744565b820191906000526020600020905b81548152906001019060200180831161072757829003601f168201915b5050505050905090565b6000610759826121fd565b61078f576040517fcf4700e400000000000000000000000000000000000000000000000000000000815260040160405180910390fd5b6006600083815260200190815260200160002060000160009054906101000a900473ffffffffffffffffffffffffffffffffffffffff169050919050565b60006107d88261109b565b90508073ffffffffffffffffffffffffffffffffffffffff166107f961225c565b73ffffffffffffffffffffffffffffffffffffffff161461085c576108258161082061225c565b6120bc565b61085b576040517fcfb3b94200000000000000000000000000000000000000000000000000000000815260040160405180910390fd5b5b826006600084815260200190815260200160002060000160006101000a81548173ffffffffffffffffffffffffffffffffffffffff021916908373ffffffffffffffffffffffffffffffffffffffff160217905550818373ffffffffffffffffffffffffffffffffffffffff168273ffffffffffffffffffffffffffffffffffffffff167f8c5be1e5ebec7d5bd14f71427d1e84f3dd0314c0f7b2291e5b200ac8c7c3b92560405160405180910390a4505050565b61091a826121fd565b610959576040517f08c379a0000000000000000000000000000000000000000000000000000000008152600401610950906137de565b60405180910390fd5b3373ffffffffffffffffffffffffffffffffffffffff166109798361109b565b73ffffffffffffffffffffffffffffffffffffffff16146109cf576040517f08c379a00000000000000000000000000000000000000000000000000000000081526004016109c690613870565b60405180910390fd5b806009600084815260200190815260200160002060020190816109f29190613a3c565b505050565b6000610a01612264565b6001546000540303905090565b6000610a198261226d565b90508373ffffffffffffffffffffffffffffffffffffffff168173ffffffffffffffffffffffffffffffffffffffff1614610a80576040517fa114810000000000000000000000000000000000000000000000000000000000815260040160405180910390fd5b600080610a8c84612339565b91509150610aa28187610a9d61225c565b612360565b610aee57610ab786610ab261225c565b6120bc565b610aed576040517f59c896be00000000000000000000000000000000000000000000000000000000815260040160405180910390fd5b5b600073ffffffffffffffffffffffffffffffffffffffff168573ffffffffffffffffffffffffffffffffffffffff1603610b54576040517fea553b3400000000000000000000000000000000000000000000000000000000815260040160405180910390fd5b610b6186868660016123a4565b8015610b6c57600082555b600560008773ffffffffffffffffffffffffffffffffffffffff1673ffffffffffffffffffffffffffffffffffffffff168152602001908152602001600020600081546001900391905081905550600560008673ffffffffffffffffffffffffffffffffffffffff1673ffffffffffffffffffffffffffffffffffffffff1681526020019081526020016000206000815460010191905081905550610c3a85610c168888876123aa565b7c0200000000000000000000000000000000000000000000000000000000176123d2565b600460008681526020019081526020016000208190555060007c0200000000000000000000000000000000000000000000000000000000841603610cc05760006001850190506000600460008381526020019081526020016000205403610cbe576000548114610cbd578360046000838152602001908152602001600020819055505b5b505b838573ffffffffffffffffffffffffffffffffffffffff168773ffffffffffffffffffffffffffffffffffffffff167fddf252ad1be2c89b69c2b068fc378daa952ba7f163c4a11628f55a4df523b3ef60405160405180910390a4610d2886868660016123fd565b505050505050565b610d39826121fd565b610d78576040517f08c379a0000000000000000000000000000000000000000000000000000000008152600401610d6f906137de565b60405180910390fd5b610d828233612403565b610dc1576040517f08c379a0000000000000000000000000000000000000000000000000000000008152600401610db890613b80565b60405180910390fd5b80600960008481526020019081526020016000206004019081610de49190613a3c565b503373ffffffffffffffffffffffffffffffffffffffff16827f40a9418af964c87768383b4b3aebe2d80f69c88cb618bbf0d194a1bf203e4e8983604051610e2c9190612ec6565b60405180910390a35050565b610e5383838360405180602001604052806000815250611df3565b505050565b610e60612cc5565b600960008381526020019081526020016000206040518060a001604052908160008201548152602001600182018054610e989061373b565b80601f0160208091040260200160405190810160405280929190818152602001828054610ec49061373b565b8015610f115780601f10610ee657610100808354040283529160200191610f11565b820191906000526020600020905b815481529060010190602001808311610ef457829003601f168201915b50505050508152602001600282018054610f2a9061373b565b80601f0160208091040260200160405190810160405280929190818152602001828054610f569061373b565b8015610fa35780601f10610f7857610100808354040283529160200191610fa3565b820191906000526020600020905b815481529060010190602001808311610f8657829003601f168201915b505050505081526020016003820160009054906101000a900473ffffffffffffffffffffffffffffffffffffffff1673ffffffffffffffffffffffffffffffffffffffff1673ffffffffffffffffffffffffffffffffffffffff1681526020016004820180546110129061373b565b80601f016020809104026020016040519081016040528092919081815260200182805461103e9061373b565b801561108b5780601f106110605761010080835404028352916020019161108b565b820191906000526020600020905b81548152906001019060200180831161106e57829003601f168201915b5050505050815250509050919050565b60006110a68261226d565b9050919050565b6110b56124ca565b80600b60006101000a81548173ffffffffffffffffffffffffffffffffffffffff021916908373ffffffffffffffffffffffffffffffffffffffff16021790555050565b60008073ffffffffffffffffffffffffffffffffffffffff168273ffffffffffffffffffffffffffffffffffffffff1603611160576040517f8f4eb60400000000000000000000000000000000000000000000000000000000815260040160405180910390fd5b67ffffffffffffffff600560008473ffffffffffffffffffffffffffffffffffffffff1673ffffffffffffffffffffffffffffffffffffffff16815260200190815260200160002054169050919050565b6111b96124ca565b6111c36000612548565b565b60606000600a60008473ffffffffffffffffffffffffffffffffffffffff1673ffffffffffffffffffffffffffffffffffffffff1681526020019081526020016000208054905067ffffffffffffffff8111156112255761122461301d565b5b60405190808252806020026020018201604052801561125e57816020015b61124b612cc5565b8152602001906001900390816112435790505b5090506000805b61126d61260e565b811015611551578473ffffffffffffffffffffffffffffffffffffffff166009600083815260200190815260200160002060030160009054906101000a900473ffffffffffffffffffffffffffffffffffffffff1673ffffffffffffffffffffffffffffffffffffffff160361153e57600960008281526020019081526020016000206040518060a0016040529081600082015481526020016001820180546113159061373b565b80601f01602080910402602001604051908101604052809291908181526020018280546113419061373b565b801561138e5780601f106113635761010080835404028352916020019161138e565b820191906000526020600020905b81548152906001019060200180831161137157829003601f168201915b505050505081526020016002820180546113a79061373b565b80601f01602080910402602001604051908101604052809291908181526020018280546113d39061373b565b80156114205780601f106113f557610100808354040283529160200191611420565b820191906000526020600020905b81548152906001019060200180831161140357829003601f168201915b505050505081526020016003820160009054906101000a900473ffffffffffffffffffffffffffffffffffffffff1673ffffffffffffffffffffffffffffffffffffffff1673ffffffffffffffffffffffffffffffffffffffff16815260200160048201805461148f9061373b565b80601f01602080910402602001604051908101604052809291908181526020018280546114bb9061373b565b80156115085780601f106114dd57610100808354040283529160200191611508565b820191906000526020600020905b8154815290600101906020018083116114eb57829003601f168201915b50505050508152505083838151811061152457611523613ba0565b5b6020026020010181905250818061153a90613bfe565b9250505b808061154990613bfe565b915050611265565b508192505050919050565b606060006115686109f7565b67ffffffffffffffff8111156115815761158061301d565b5b6040519080825280602002602001820160405280156115ba57816020015b6115a7612cc5565b81526020019060019003908161159f5790505b5090506000805b6115c961260e565b8110156118ae57600073ffffffffffffffffffffffffffffffffffffffff166009600083815260200190815260200160002060030160009054906101000a900473ffffffffffffffffffffffffffffffffffffffff1673ffffffffffffffffffffffffffffffffffffffff161461189b57600960008281526020019081526020016000206040518060a0016040529081600082015481526020016001820180546116729061373b565b80601f016020809104026020016040519081016040528092919081815260200182805461169e9061373b565b80156116eb5780601f106116c0576101008083540402835291602001916116eb565b820191906000526020600020905b8154815290600101906020018083116116ce57829003601f168201915b505050505081526020016002820180546117049061373b565b80601f01602080910402602001604051908101604052809291908181526020018280546117309061373b565b801561177d5780601f106117525761010080835404028352916020019161177d565b820191906000526020600020905b81548152906001019060200180831161176057829003601f168201915b505050505081526020016003820160009054906101000a900473ffffffffffffffffffffffffffffffffffffffff1673ffffffffffffffffffffffffffffffffffffffff1673ffffffffffffffffffffffffffffffffffffffff1681526020016004820180546117ec9061373b565b80601f01602080910402602001604051908101604052809291908181526020018280546118189061373b565b80156118655780601f1061183a57610100808354040283529160200191611865565b820191906000526020600020905b81548152906001019060200180831161184857829003601f168201915b50505050508152505083838151811061188157611880613ba0565b5b6020026020010181905250818061189790613bfe565b9250505b80806118a690613bfe565b9150506115c1565b50819250505090565b6000600860009054906101000a900473ffffffffffffffffffffffffffffffffffffffff16905090565b6118ea816121fd565b611929576040517f08c379a0000000000000000000000000000000000000000000000000000000008152600401611920906137de565b60405180910390fd5b3373ffffffffffffffffffffffffffffffffffffffff166119498261109b565b73ffffffffffffffffffffffffffffffffffffffff161461199f576040517f08c379a000000000000000000000000000000000000000000000000000000000815260040161199690613870565b60405180910390fd5b6119a881612617565b600960008281526020019081526020016000206000808201600090556001820160006119d49190612d0a565b6002820160006119e49190612d0a565b6003820160006101000a81549073ffffffffffffffffffffffffffffffffffffffff0219169055600482016000611a1b9190612d0a565b505060005b600a60003373ffffffffffffffffffffffffffffffffffffffff1673ffffffffffffffffffffffffffffffffffffffff16815260200190815260200160002080549050811015611c525781600a60003373ffffffffffffffffffffffffffffffffffffffff1673ffffffffffffffffffffffffffffffffffffffff1681526020019081526020016000208281548110611abc57611abb613ba0565b5b906000526020600020015403611c3f57600a60003373ffffffffffffffffffffffffffffffffffffffff1673ffffffffffffffffffffffffffffffffffffffff1681526020019081526020016000206001600a60003373ffffffffffffffffffffffffffffffffffffffff1673ffffffffffffffffffffffffffffffffffffffff16815260200190815260200160002080549050611b5a9190613c46565b81548110611b6b57611b6a613ba0565b5b9060005260206000200154600a60003373ffffffffffffffffffffffffffffffffffffffff1673ffffffffffffffffffffffffffffffffffffffff1681526020019081526020016000208281548110611bc757611bc6613ba0565b5b9060005260206000200181905550600a60003373ffffffffffffffffffffffffffffffffffffffff1673ffffffffffffffffffffffffffffffffffffffff168152602001908152602001600020805480611c2457611c23613c7a565b5b60019003818190600052602060002001600090559055611c52565b8080611c4a90613bfe565b915050611a20565b5050565b606060038054611c659061373b565b80601f0160208091040260200160405190810160405280929190818152602001828054611c919061373b565b8015611cde5780601f10611cb357610100808354040283529160200191611cde565b820191906000526020600020905b815481529060010190602001808311611cc157829003601f168201915b5050505050905090565b8060076000611cf561225c565b73ffffffffffffffffffffffffffffffffffffffff1673ffffffffffffffffffffffffffffffffffffffff16815260200190815260200160002060008473ffffffffffffffffffffffffffffffffffffffff1673ffffffffffffffffffffffffffffffffffffffff16815260200190815260200160002060006101000a81548160ff0219169083151502179055508173ffffffffffffffffffffffffffffffffffffffff16611da261225c565b73ffffffffffffffffffffffffffffffffffffffff167f17307eab39ab6107e8899845ad3d59bd9653f200f220920489ca2b5937696c3183604051611de79190612e1b565b60405180910390a35050565b611dfe848484610a0e565b60008373ffffffffffffffffffffffffffffffffffffffff163b14611e6057611e2984848484612625565b611e5f576040517fd1a57ed600000000000000000000000000000000000000000000000000000000815260040160405180910390fd5b5b50505050565b600080611e7161260e565b9050611e7e336001612775565b6040518060a001604052808281526020018581526020018481526020013373ffffffffffffffffffffffffffffffffffffffff1681526020016040518060200160405280600081525081525060096000838152602001908152602001600020600082015181600001556020820151816001019081611efc9190613a3c565b506040820151816002019081611f129190613a3c565b5060608201518160030160006101000a81548173ffffffffffffffffffffffffffffffffffffffff021916908373ffffffffffffffffffffffffffffffffffffffff1602179055506080820151816004019081611f6f9190613a3c565b50905050600a60003373ffffffffffffffffffffffffffffffffffffffff1673ffffffffffffffffffffffffffffffffffffffff1681526020019081526020016000208190806001815401808255809150506001900390600052602060002001600090919091909150557f5041508c74c5ad5ddc4c2c1f09ab873b5f067367dd2e8af9c7561d3556adb52781853360405161200c93929190613ca9565b60405180910390a18091505092915050565b6060612029826121fd565b61205f576040517fa14c4b5000000000000000000000000000000000000000000000000000000000815260040160405180910390fd5b6000612069612793565b9050600081510361208957604051806020016040528060008152506120b4565b80612093846127aa565b6040516020016120a4929190613d23565b6040516020818303038152906040525b915050919050565b6000600760008473ffffffffffffffffffffffffffffffffffffffff1673ffffffffffffffffffffffffffffffffffffffff16815260200190815260200160002060008373ffffffffffffffffffffffffffffffffffffffff1673ffffffffffffffffffffffffffffffffffffffff16815260200190815260200160002060009054906101000a900460ff16905092915050565b6121586124ca565b600073ffffffffffffffffffffffffffffffffffffffff168173ffffffffffffffffffffffffffffffffffffffff16036121c7576040517f08c379a00000000000000000000000000000000000000000000000000000000081526004016121be90613db9565b60405180910390fd5b6121d081612548565b50565b6000600b60009054906101000a900473ffffffffffffffffffffffffffffffffffffffff16905090565b600081612208612264565b11158015612217575060005482105b8015612255575060007c0100000000000000000000000000000000000000000000000000000000600460008581526020019081526020016000205416145b9050919050565b600033905090565b60006001905090565b6000808290508061227c612264565b11612302576000548110156123015760006004600083815260200190815260200160002054905060007c01000000000000000000000000000000000000000000000000000000008216036122ff575b600081036122f55760046000836001900393508381526020019081526020016000205490506122cb565b8092505050612334565b505b5b6040517fdf2d9b4200000000000000000000000000000000000000000000000000000000815260040160405180910390fd5b919050565b60008060006006600085815260200190815260200160002090508092508254915050915091565b600073ffffffffffffffffffffffffffffffffffffffff8316925073ffffffffffffffffffffffffffffffffffffffff821691508382148383141790509392505050565b50505050565b60008060e883901c905060e86123c18686846127fa565b62ffffff16901b9150509392505050565b600073ffffffffffffffffffffffffffffffffffffffff83169250814260a01b178317905092915050565b50505050565b60008173ffffffffffffffffffffffffffffffffffffffff166009600085815260200190815260200160002060030160009054906101000a900473ffffffffffffffffffffffffffffffffffffffff1673ffffffffffffffffffffffffffffffffffffffff1614806124c257508173ffffffffffffffffffffffffffffffffffffffff16600b60009054906101000a900473ffffffffffffffffffffffffffffffffffffffff1673ffffffffffffffffffffffffffffffffffffffff16145b905092915050565b6124d2612803565b73ffffffffffffffffffffffffffffffffffffffff166124f06118b7565b73ffffffffffffffffffffffffffffffffffffffff1614612546576040517f08c379a000000000000000000000000000000000000000000000000000000000815260040161253d90613e25565b60405180910390fd5b565b6000600860009054906101000a900473ffffffffffffffffffffffffffffffffffffffff16905081600860006101000a81548173ffffffffffffffffffffffffffffffffffffffff021916908373ffffffffffffffffffffffffffffffffffffffff1602179055508173ffffffffffffffffffffffffffffffffffffffff168173ffffffffffffffffffffffffffffffffffffffff167f8be0079c531659141344cd1fd0a4f28419497f9722a3daafe3b4186f6b6457e060405160405180910390a35050565b60008054905090565b61262281600061280b565b50565b60008373ffffffffffffffffffffffffffffffffffffffff1663150b7a0261264b61225c565b8786866040518563ffffffff1660e01b815260040161266d9493929190613e9a565b6020604051808303816000875af19250505080156126a957506040513d601f19601f820116820180604052508101906126a69190613efb565b60015b612722573d80600081146126d9576040519150601f19603f3d011682016040523d82523d6000602084013e6126de565b606091505b50600081510361271a576040517fd1a57ed600000000000000000000000000000000000000000000000000000000815260040160405180910390fd5b805181602001fd5b63150b7a0260e01b7bffffffffffffffffffffffffffffffffffffffffffffffffffffffff1916817bffffffffffffffffffffffffffffffffffffffffffffffffffffffff191614915050949350505050565b61278f828260405180602001604052806000815250612a5d565b5050565b606060405180602001604052806000815250905090565b606060a060405101806040526020810391506000825281835b6001156127e557600184039350600a81066030018453600a81049050806127c3575b50828103602084039350808452505050919050565b60009392505050565b600033905090565b60006128168361226d565b9050600081905060008061282986612339565b91509150841561289257612845818461284061225c565b612360565b6128915761285a8361285561225c565b6120bc565b612890576040517f59c896be00000000000000000000000000000000000000000000000000000000815260040160405180910390fd5b5b5b6128a08360008860016123a4565b80156128ab57600082555b600160806001901b03600560008573ffffffffffffffffffffffffffffffffffffffff1673ffffffffffffffffffffffffffffffffffffffff1681526020019081526020016000206000828254019250508190555061295383612910856000886123aa565b7c02000000000000000000000000000000000000000000000000000000007c010000000000000000000000000000000000000000000000000000000017176123d2565b600460008881526020019081526020016000208190555060007c02000000000000000000000000000000000000000000000000000000008516036129d957600060018701905060006004600083815260200190815260200160002054036129d75760005481146129d6578460046000838152602001908152602001600020819055505b5b505b85600073ffffffffffffffffffffffffffffffffffffffff168473ffffffffffffffffffffffffffffffffffffffff167fddf252ad1be2c89b69c2b068fc378daa952ba7f163c4a11628f55a4df523b3ef60405160405180910390a4612a438360008860016123fd565b600160008154809291906001019190505550505050505050565b612a678383612afa565b60008373ffffffffffffffffffffffffffffffffffffffff163b14612af557600080549050600083820390505b612aa76000868380600101945086612625565b612add576040517fd1a57ed600000000000000000000000000000000000000000000000000000000815260040160405180910390fd5b818110612a94578160005414612af257600080fd5b50505b505050565b60008054905060008203612b3a576040517fb562e8dd00000000000000000000000000000000000000000000000000000000815260040160405180910390fd5b612b4760008483856123a4565b600160406001901b178202600560008573ffffffffffffffffffffffffffffffffffffffff1673ffffffffffffffffffffffffffffffffffffffff16815260200190815260200160002060008282540192505081905550612bbe83612baf60008660006123aa565b612bb885612cb5565b176123d2565b6004600083815260200190815260200160002081905550600080838301905073ffffffffffffffffffffffffffffffffffffffff85169150828260007fddf252ad1be2c89b69c2b068fc378daa952ba7f163c4a11628f55a4df523b3ef600080a4600183015b818114612c5f57808360007fddf252ad1be2c89b69c2b068fc378daa952ba7f163c4a11628f55a4df523b3ef600080a4600181019050612c24565b5060008203612c9a576040517f2e07630000000000000000000000000000000000000000000000000000000000815260040160405180910390fd5b806000819055505050612cb060008483856123fd565b505050565b60006001821460e11b9050919050565b6040518060a00160405280600081526020016060815260200160608152602001600073ffffffffffffffffffffffffffffffffffffffff168152602001606081525090565b508054612d169061373b565b6000825580601f10612d285750612d47565b601f016020900490600052602060002090810190612d469190612d4a565b5b50565b5b80821115612d63576000816000905550600101612d4b565b5090565b6000604051905090565b600080fd5b600080fd5b60007fffffffff0000000000000000000000000000000000000000000000000000000082169050919050565b612db081612d7b565b8114612dbb57600080fd5b50565b600081359050612dcd81612da7565b92915050565b600060208284031215612de957612de8612d71565b5b6000612df784828501612dbe565b91505092915050565b60008115159050919050565b612e1581612e00565b82525050565b6000602082019050612e306000830184612e0c565b92915050565b600081519050919050565b600082825260208201905092915050565b60005b83811015612e70578082015181840152602081019050612e55565b60008484015250505050565b6000601f19601f8301169050919050565b6000612e9882612e36565b612ea28185612e41565b9350612eb2818560208601612e52565b612ebb81612e7c565b840191505092915050565b60006020820190508181036000830152612ee08184612e8d565b905092915050565b6000819050919050565b612efb81612ee8565b8114612f0657600080fd5b50565b600081359050612f1881612ef2565b92915050565b600060208284031215612f3457612f33612d71565b5b6000612f4284828501612f09565b91505092915050565b600073ffffffffffffffffffffffffffffffffffffffff82169050919050565b6000612f7682612f4b565b9050919050565b612f8681612f6b565b82525050565b6000602082019050612fa16000830184612f7d565b92915050565b612fb081612f6b565b8114612fbb57600080fd5b50565b600081359050612fcd81612fa7565b92915050565b60008060408385031215612fea57612fe9612d71565b5b6000612ff885828601612fbe565b925050602061300985828601612f09565b9150509250929050565b600080fd5b600080fd5b7f4e487b7100000000000000000000000000000000000000000000000000000000600052604160045260246000fd5b61305582612e7c565b810181811067ffffffffffffffff821117156130745761307361301d565b5b80604052505050565b6000613087612d67565b9050613093828261304c565b919050565b600067ffffffffffffffff8211156130b3576130b261301d565b5b6130bc82612e7c565b9050602081019050919050565b82818337600083830152505050565b60006130eb6130e684613098565b61307d565b90508281526020810184848401111561310757613106613018565b5b6131128482856130c9565b509392505050565b600082601f83011261312f5761312e613013565b5b813561313f8482602086016130d8565b91505092915050565b6000806040838503121561315f5761315e612d71565b5b600061316d85828601612f09565b925050602083013567ffffffffffffffff81111561318e5761318d612d76565b5b61319a8582860161311a565b9150509250929050565b6131ad81612ee8565b82525050565b60006020820190506131c860008301846131a4565b92915050565b6000806000606084860312156131e7576131e6612d71565b5b60006131f586828701612fbe565b935050602061320686828701612fbe565b925050604061321786828701612f09565b9150509250925092565b61322a81612ee8565b82525050565b600082825260208201905092915050565b600061324c82612e36565b6132568185613230565b9350613266818560208601612e52565b61326f81612e7c565b840191505092915050565b61328381612f6b565b82525050565b600060a0830160008301516132a16000860182613221565b50602083015184820360208601526132b98282613241565b915050604083015184820360408601526132d38282613241565b91505060608301516132e8606086018261327a565b50608083015184820360808601526133008282613241565b9150508091505092915050565b600060208201905081810360008301526133278184613289565b905092915050565b60006020828403121561334557613344612d71565b5b600061335384828501612fbe565b91505092915050565b600081519050919050565b600082825260208201905092915050565b6000819050602082019050919050565b600060a0830160008301516133a06000860182613221565b50602083015184820360208601526133b88282613241565b915050604083015184820360408601526133d28282613241565b91505060608301516133e7606086018261327a565b50608083015184820360808601526133ff8282613241565b9150508091505092915050565b60006134188383613388565b905092915050565b6000602082019050919050565b60006134388261335c565b6134428185613367565b93508360208202850161345485613378565b8060005b858110156134905784840389528151613471858261340c565b945061347c83613420565b925060208a01995050600181019050613458565b50829750879550505050505092915050565b600060208201905081810360008301526134bc818461342d565b905092915050565b6134cd81612e00565b81146134d857600080fd5b50565b6000813590506134ea816134c4565b92915050565b6000806040838503121561350757613506612d71565b5b600061351585828601612fbe565b9250506020613526858286016134db565b9150509250929050565b600067ffffffffffffffff82111561354b5761354a61301d565b5b61355482612e7c565b9050602081019050919050565b600061357461356f84613530565b61307d565b9050828152602081018484840111156135905761358f613018565b5b61359b8482856130c9565b509392505050565b600082601f8301126135b8576135b7613013565b5b81356135c8848260208601613561565b91505092915050565b600080600080608085870312156135eb576135ea612d71565b5b60006135f987828801612fbe565b945050602061360a87828801612fbe565b935050604061361b87828801612f09565b925050606085013567ffffffffffffffff81111561363c5761363b612d76565b5b613648878288016135a3565b91505092959194509250565b6000806040838503121561366b5761366a612d71565b5b600083013567ffffffffffffffff81111561368957613688612d76565b5b6136958582860161311a565b925050602083013567ffffffffffffffff8111156136b6576136b5612d76565b5b6136c28582860161311a565b9150509250929050565b600080604083850312156136e3576136e2612d71565b5b60006136f185828601612fbe565b925050602061370285828601612fbe565b9150509250929050565b7f4e487b7100000000000000000000000000000000000000000000000000000000600052602260045260246000fd5b6000600282049050600182168061375357607f821691505b6020821081036137665761376561370c565b5b50919050565b7f4769747365633a206e6f207265706f7369746f727920666f756e64206279206760008201527f6976656e20494400000000000000000000000000000000000000000000000000602082015250565b60006137c8602783612e41565b91506137d38261376c565b604082019050919050565b600060208201905081810360008301526137f7816137bb565b9050919050565b7f4769747365633a2063616c6c6572206973206e6f7420746865207265706f736960008201527f746f7279206f776e657200000000000000000000000000000000000000000000602082015250565b600061385a602a83612e41565b9150613865826137fe565b604082019050919050565b600060208201905081810360008301526138898161384d565b9050919050565b60008190508160005260206000209050919050565b60006020601f8301049050919050565b600082821b905092915050565b6000600883026138f27fffffffffffffffffffffffffffffffffffffffffffffffffffffffffffffffff826138b5565b6138fc86836138b5565b95508019841693508086168417925050509392505050565b6000819050919050565b600061393961393461392f84612ee8565b613914565b612ee8565b9050919050565b6000819050919050565b6139538361391e565b61396761395f82613940565b8484546138c2565b825550505050565b600090565b61397c61396f565b61398781848461394a565b505050565b5b818110156139ab576139a0600082613974565b60018101905061398d565b5050565b601f8211156139f0576139c181613890565b6139ca846138a5565b810160208510156139d9578190505b6139ed6139e5856138a5565b83018261398c565b50505b505050565b600082821c905092915050565b6000613a13600019846008026139f5565b1980831691505092915050565b6000613a2c8383613a02565b9150826002028217905092915050565b613a4582612e36565b67ffffffffffffffff811115613a5e57613a5d61301d565b5b613a68825461373b565b613a738282856139af565b600060209050601f831160018114613aa65760008415613a94578287015190505b613a9e8582613a20565b865550613b06565b601f198416613ab486613890565b60005b82811015613adc57848901518255600182019150602085019450602081019050613ab7565b86831015613af95784890151613af5601f891682613a02565b8355505b6001600288020188555050505b505050505050565b7f4769747365633a2063616c6c6572206973206e6f7420746865207265706f736960008201527f746f7279206f776e6572206f722061646d696e00000000000000000000000000602082015250565b6000613b6a603383612e41565b9150613b7582613b0e565b604082019050919050565b60006020820190508181036000830152613b9981613b5d565b9050919050565b7f4e487b7100000000000000000000000000000000000000000000000000000000600052603260045260246000fd5b7f4e487b7100000000000000000000000000000000000000000000000000000000600052601160045260246000fd5b6000613c0982612ee8565b91507fffffffffffffffffffffffffffffffffffffffffffffffffffffffffffffffff8203613c3b57613c3a613bcf565b5b600182019050919050565b6000613c5182612ee8565b9150613c5c83612ee8565b9250828203905081811115613c7457613c73613bcf565b5b92915050565b7f4e487b7100000000000000000000000000000000000000000000000000000000600052603160045260246000fd5b6000606082019050613cbe60008301866131a4565b8181036020830152613cd08185612e8d565b9050613cdf6040830184612f7d565b949350505050565b600081905092915050565b6000613cfd82612e36565b613d078185613ce7565b9350613d17818560208601612e52565b80840191505092915050565b6000613d2f8285613cf2565b9150613d3b8284613cf2565b91508190509392505050565b7f4f776e61626c653a206e6577206f776e657220697320746865207a65726f206160008201527f6464726573730000000000000000000000000000000000000000000000000000602082015250565b6000613da3602683612e41565b9150613dae82613d47565b604082019050919050565b60006020820190508181036000830152613dd281613d96565b9050919050565b7f4f776e61626c653a2063616c6c6572206973206e6f7420746865206f776e6572600082015250565b6000613e0f602083612e41565b9150613e1a82613dd9565b602082019050919050565b60006020820190508181036000830152613e3e81613e02565b9050919050565b600081519050919050565b600082825260208201905092915050565b6000613e6c82613e45565b613e768185613e50565b9350613e86818560208601612e52565b613e8f81612e7c565b840191505092915050565b6000608082019050613eaf6000830187612f7d565b613ebc6020830186612f7d565b613ec960408301856131a4565b8181036060830152613edb8184613e61565b905095945050505050565b600081519050613ef581612da7565b92915050565b600060208284031215613f1157613f10612d71565b5b6000613f1f84828501613ee6565b9150509291505056fea2646970667358221220021200232cbf548e14cbe43da281f430df03e19df65b685728bd76bbc01eef8a64736f6c63430008110033",
  "linkReferences": {},
  "deployedLinkReferences": {}
}