{
  "_format": "hh-sol-artifact-1",
  "contractName": "Gitsec",
  "sourceName": "contracts/Gitsec.sol",
  "abi": [
    {
      "inputs": [
        {
          "internalType": "string",
          "name": "name",
          "type": "string"
        },
        {
          "internalType": "string",
          "name": "symbol",
          "type": "string"
        }
      ],
      "stateMutability": "nonpayable",
      "type": "constructor"
    },
    {
      "inputs": [],
      "name": "ApprovalCallerNotOwnerNorApproved",
      "type": "error"
    },
    {
      "inputs": [],
      "name": "ApprovalQueryForNonexistentToken",
      "type": "error"
    },
    {
      "inputs": [],
      "name": "BalanceQueryForZeroAddress",
      "type": "error"
    },
    {
      "inputs": [],
      "name": "MintERC2309QuantityExceedsLimit",
      "type": "error"
    },
    {
      "inputs": [],
      "name": "MintToZeroAddress",
      "type": "error"
    },
    {
      "inputs": [],
      "name": "MintZeroQuantity",
      "type": "error"
    },
    {
      "inputs": [],
      "name": "OwnerQueryForNonexistentToken",
      "type": "error"
    },
    {
      "inputs": [],
      "name": "OwnershipNotInitializedForExtraData",
      "type": "error"
    },
    {
      "inputs": [],
      "name": "TransferCallerNotOwnerNorApproved",
      "type": "error"
    },
    {
      "inputs": [],
      "name": "TransferFromIncorrectOwner",
      "type": "error"
    },
    {
      "inputs": [],
      "name": "TransferToNonERC721ReceiverImplementer",
      "type": "error"
    },
    {
      "inputs": [],
      "name": "TransferToZeroAddress",
      "type": "error"
    },
    {
      "inputs": [],
      "name": "URIQueryForNonexistentToken",
      "type": "error"
    },
    {
      "anonymous": false,
      "inputs": [
        {
          "indexed": true,
          "internalType": "address",
          "name": "owner",
          "type": "address"
        },
        {
          "indexed": true,
          "internalType": "address",
          "name": "approved",
          "type": "address"
        },
        {
          "indexed": true,
          "internalType": "uint256",
          "name": "tokenId",
          "type": "uint256"
        }
      ],
      "name": "Approval",
      "type": "event"
    },
    {
      "anonymous": false,
      "inputs": [
        {
          "indexed": true,
          "internalType": "address",
          "name": "owner",
          "type": "address"
        },
        {
          "indexed": true,
          "internalType": "address",
          "name": "operator",
          "type": "address"
        },
        {
          "indexed": false,
          "internalType": "bool",
          "name": "approved",
          "type": "bool"
        }
      ],
      "name": "ApprovalForAll",
      "type": "event"
    },
    {
      "anonymous": false,
      "inputs": [
        {
          "indexed": true,
          "internalType": "uint256",
          "name": "fromTokenId",
          "type": "uint256"
        },
        {
          "indexed": false,
          "internalType": "uint256",
          "name": "toTokenId",
          "type": "uint256"
        },
        {
          "indexed": true,
          "internalType": "address",
          "name": "from",
          "type": "address"
        },
        {
          "indexed": true,
          "internalType": "address",
          "name": "to",
          "type": "address"
        }
      ],
      "name": "ConsecutiveTransfer",
      "type": "event"
    },
    {
      "anonymous": false,
      "inputs": [
        {
          "indexed": true,
          "internalType": "uint256",
          "name": "repId",
          "type": "uint256"
        },
        {
          "indexed": true,
          "internalType": "address",
          "name": "owner",
          "type": "address"
        },
        {
          "indexed": false,
          "internalType": "string",
          "name": "IPFS",
          "type": "string"
        }
      ],
      "name": "IPFSHashUpdated",
      "type": "event"
    },
    {
      "anonymous": false,
      "inputs": [
        {
          "indexed": true,
          "internalType": "address",
          "name": "previousOwner",
          "type": "address"
        },
        {
          "indexed": true,
          "internalType": "address",
          "name": "newOwner",
          "type": "address"
        }
      ],
      "name": "OwnershipTransferred",
      "type": "event"
    },
    {
      "anonymous": false,
      "inputs": [
        {
          "indexed": false,
          "internalType": "uint256",
          "name": "repId",
          "type": "uint256"
        },
        {
          "indexed": false,
          "internalType": "string",
          "name": "repName",
          "type": "string"
        },
        {
          "indexed": false,
          "internalType": "address",
          "name": "owner",
          "type": "address"
        }
      ],
      "name": "RepositoryCreated",
      "type": "event"
    },
    {
      "anonymous": false,
      "inputs": [
        {
          "indexed": true,
          "internalType": "address",
          "name": "from",
          "type": "address"
        },
        {
          "indexed": true,
          "internalType": "address",
          "name": "to",
          "type": "address"
        },
        {
          "indexed": true,
          "internalType": "uint256",
          "name": "tokenId",
          "type": "uint256"
        }
      ],
      "name": "Transfer",
      "type": "event"
    },
    {
      "inputs": [
        {
          "internalType": "address",
          "name": "to",
          "type": "address"
        },
        {
          "internalType": "uint256",
          "name": "tokenId",
          "type": "uint256"
        }
      ],
      "name": "approve",
      "outputs": [],
      "stateMutability": "payable",
      "type": "function"
    },
    {
      "inputs": [
        {
          "internalType": "address",
          "name": "owner",
          "type": "address"
        }
      ],
      "name": "balanceOf",
      "outputs": [
        {
          "internalType": "uint256",
          "name": "",
          "type": "uint256"
        }
      ],
      "stateMutability": "view",
      "type": "function"
    },
    {
      "inputs": [
        {
          "internalType": "string",
          "name": "name",
          "type": "string"
        },
        {
          "internalType": "string",
          "name": "description",
          "type": "string"
        }
      ],
      "name": "createRepository",
      "outputs": [
        {
          "internalType": "uint256",
          "name": "",
          "type": "uint256"
        }
      ],
      "stateMutability": "nonpayable",
      "type": "function"
    },
    {
      "inputs": [
        {
          "internalType": "uint256",
          "name": "id",
          "type": "uint256"
        }
      ],
      "name": "deleteRepository",
      "outputs": [],
      "stateMutability": "nonpayable",
      "type": "function"
    },
    {
      "inputs": [],
      "name": "getAllRepositories",
      "outputs": [
        {
          "components": [
            {
              "internalType": "uint256",
              "name": "id",
              "type": "uint256"
            },
            {
              "internalType": "string",
              "name": "name",
              "type": "string"
            },
            {
              "internalType": "string",
              "name": "description",
              "type": "string"
            },
            {
              "internalType": "address",
              "name": "owner",
              "type": "address"
            },
            {
              "internalType": "string",
              "name": "IPFS",
              "type": "string"
            }
          ],
          "internalType": "struct Gitsec.Repository[]",
          "name": "",
          "type": "tuple[]"
        }
      ],
      "stateMutability": "view",
      "type": "function"
    },
    {
      "inputs": [
        {
          "internalType": "uint256",
          "name": "tokenId",
          "type": "uint256"
        }
      ],
      "name": "getApproved",
      "outputs": [
        {
          "internalType": "address",
          "name": "",
          "type": "address"
        }
      ],
      "stateMutability": "view",
      "type": "function"
    },
    {
      "inputs": [
        {
          "internalType": "uint256",
          "name": "id",
          "type": "uint256"
        }
      ],
      "name": "getRepository",
      "outputs": [
        {
          "components": [
            {
              "internalType": "uint256",
              "name": "id",
              "type": "uint256"
            },
            {
              "internalType": "string",
              "name": "name",
              "type": "string"
            },
            {
              "internalType": "string",
              "name": "description",
              "type": "string"
            },
            {
              "internalType": "address",
              "name": "owner",
              "type": "address"
            },
            {
              "internalType": "string",
              "name": "IPFS",
              "type": "string"
            }
          ],
          "internalType": "struct Gitsec.Repository",
          "name": "",
          "type": "tuple"
        }
      ],
      "stateMutability": "view",
      "type": "function"
    },
    {
      "inputs": [
        {
          "internalType": "address",
          "name": "user",
          "type": "address"
        }
      ],
      "name": "getUserRepositories",
      "outputs": [
        {
          "components": [
            {
              "internalType": "uint256",
              "name": "id",
              "type": "uint256"
            },
            {
              "internalType": "string",
              "name": "name",
              "type": "string"
            },
            {
              "internalType": "string",
              "name": "description",
              "type": "string"
            },
            {
              "internalType": "address",
              "name": "owner",
              "type": "address"
            },
            {
              "internalType": "string",
              "name": "IPFS",
              "type": "string"
            }
          ],
          "internalType": "struct Gitsec.Repository[]",
          "name": "",
          "type": "tuple[]"
        }
      ],
      "stateMutability": "view",
      "type": "function"
    },
    {
      "inputs": [
        {
          "internalType": "address",
          "name": "owner",
          "type": "address"
        },
        {
          "internalType": "address",
          "name": "operator",
          "type": "address"
        }
      ],
      "name": "isApprovedForAll",
      "outputs": [
        {
          "internalType": "bool",
          "name": "",
          "type": "bool"
        }
      ],
      "stateMutability": "view",
      "type": "function"
    },
    {
      "inputs": [],
      "name": "name",
      "outputs": [
        {
          "internalType": "string",
          "name": "",
          "type": "string"
        }
      ],
      "stateMutability": "view",
      "type": "function"
    },
    {
      "inputs": [],
      "name": "owner",
      "outputs": [
        {
          "internalType": "address",
          "name": "",
          "type": "address"
        }
      ],
      "stateMutability": "view",
      "type": "function"
    },
    {
      "inputs": [
        {
          "internalType": "uint256",
          "name": "tokenId",
          "type": "uint256"
        }
      ],
      "name": "ownerOf",
      "outputs": [
        {
          "internalType": "address",
          "name": "",
          "type": "address"
        }
      ],
      "stateMutability": "view",
      "type": "function"
    },
    {
      "inputs": [],
      "name": "renounceOwnership",
      "outputs": [],
      "stateMutability": "nonpayable",
      "type": "function"
    },
    {
      "inputs": [
        {
          "internalType": "address",
          "name": "from",
          "type": "address"
        },
        {
          "internalType": "address",
          "name": "to",
          "type": "address"
        },
        {
          "internalType": "uint256",
          "name": "tokenId",
          "type": "uint256"
        }
      ],
      "name": "safeTransferFrom",
      "outputs": [],
      "stateMutability": "payable",
      "type": "function"
    },
    {
      "inputs": [
        {
          "internalType": "address",
          "name": "from",
          "type": "address"
        },
        {
          "internalType": "address",
          "name": "to",
          "type": "address"
        },
        {
          "internalType": "uint256",
          "name": "tokenId",
          "type": "uint256"
        },
        {
          "internalType": "bytes",
          "name": "_data",
          "type": "bytes"
        }
      ],
      "name": "safeTransferFrom",
      "outputs": [],
      "stateMutability": "payable",
      "type": "function"
    },
    {
      "inputs": [
        {
          "internalType": "address",
          "name": "operator",
          "type": "address"
        },
        {
          "internalType": "bool",
          "name": "approved",
          "type": "bool"
        }
      ],
      "name": "setApprovalForAll",
      "outputs": [],
      "stateMutability": "nonpayable",
      "type": "function"
    },
    {
      "inputs": [
        {
          "internalType": "bytes4",
          "name": "interfaceId",
          "type": "bytes4"
        }
      ],
      "name": "supportsInterface",
      "outputs": [
        {
          "internalType": "bool",
          "name": "",
          "type": "bool"
        }
      ],
      "stateMutability": "view",
      "type": "function"
    },
    {
      "inputs": [],
      "name": "symbol",
      "outputs": [
        {
          "internalType": "string",
          "name": "",
          "type": "string"
        }
      ],
      "stateMutability": "view",
      "type": "function"
    },
    {
      "inputs": [
        {
          "internalType": "uint256",
          "name": "tokenId",
          "type": "uint256"
        }
      ],
      "name": "tokenURI",
      "outputs": [
        {
          "internalType": "string",
          "name": "",
          "type": "string"
        }
      ],
      "stateMutability": "view",
      "type": "function"
    },
    {
      "inputs": [],
      "name": "totalSupply",
      "outputs": [
        {
          "internalType": "uint256",
          "name": "",
          "type": "uint256"
        }
      ],
      "stateMutability": "view",
      "type": "function"
    },
    {
      "inputs": [
        {
          "internalType": "address",
          "name": "from",
          "type": "address"
        },
        {
          "internalType": "address",
          "name": "to",
          "type": "address"
        },
        {
          "internalType": "uint256",
          "name": "tokenId",
          "type": "uint256"
        }
      ],
      "name": "transferFrom",
      "outputs": [],
      "stateMutability": "payable",
      "type": "function"
    },
    {
      "inputs": [
        {
          "internalType": "address",
          "name": "newOwner",
          "type": "address"
        }
      ],
      "name": "transferOwnership",
      "outputs": [],
      "stateMutability": "nonpayable",
      "type": "function"
    },
    {
      "inputs": [
        {
          "internalType": "uint256",
          "name": "id",
          "type": "uint256"
        },
        {
          "internalType": "string",
          "name": "newDescription",
          "type": "string"
        }
      ],
      "name": "updateDescription",
      "outputs": [],
      "stateMutability": "nonpayable",
      "type": "function"
    },
    {
      "inputs": [
        {
          "internalType": "uint256",
          "name": "id",
          "type": "uint256"
        },
        {
          "internalType": "string",
          "name": "newIPFS",
          "type": "string"
        }
      ],
      "name": "updateIPFS",
      "outputs": [],
      "stateMutability": "nonpayable",
      "type": "function"
    }
  ],
  "bytecode": "0x60806040523480156200001157600080fd5b50604051620043f8380380620043f8833981810160405281019062000037919062000303565b818181600290816200004a9190620005d3565b5080600390816200005c9190620005d3565b506200006d6200009d60201b60201c565b60008190555050506200009562000089620000a260201b60201c565b620000aa60201b60201c565b5050620006ba565b600090565b600033905090565b6000600860009054906101000a900473ffffffffffffffffffffffffffffffffffffffff16905081600860006101000a81548173ffffffffffffffffffffffffffffffffffffffff021916908373ffffffffffffffffffffffffffffffffffffffff1602179055508173ffffffffffffffffffffffffffffffffffffffff168173ffffffffffffffffffffffffffffffffffffffff167f8be0079c531659141344cd1fd0a4f28419497f9722a3daafe3b4186f6b6457e060405160405180910390a35050565b6000604051905090565b600080fd5b600080fd5b600080fd5b600080fd5b6000601f19601f8301169050919050565b7f4e487b7100000000000000000000000000000000000000000000000000000000600052604160045260246000fd5b620001d9826200018e565b810181811067ffffffffffffffff82111715620001fb57620001fa6200019f565b5b80604052505050565b60006200021062000170565b90506200021e8282620001ce565b919050565b600067ffffffffffffffff8211156200024157620002406200019f565b5b6200024c826200018e565b9050602081019050919050565b60005b83811015620002795780820151818401526020810190506200025c565b60008484015250505050565b60006200029c620002968462000223565b62000204565b905082815260208101848484011115620002bb57620002ba62000189565b5b620002c884828562000259565b509392505050565b600082601f830112620002e857620002e762000184565b5b8151620002fa84826020860162000285565b91505092915050565b600080604083850312156200031d576200031c6200017a565b5b600083015167ffffffffffffffff8111156200033e576200033d6200017f565b5b6200034c85828601620002d0565b925050602083015167ffffffffffffffff81111562000370576200036f6200017f565b5b6200037e85828601620002d0565b9150509250929050565b600081519050919050565b7f4e487b7100000000000000000000000000000000000000000000000000000000600052602260045260246000fd5b60006002820490506001821680620003db57607f821691505b602082108103620003f157620003f062000393565b5b50919050565b60008190508160005260206000209050919050565b60006020601f8301049050919050565b600082821b905092915050565b6000600883026200045b7fffffffffffffffffffffffffffffffffffffffffffffffffffffffffffffffff826200041c565b6200046786836200041c565b95508019841693508086168417925050509392505050565b6000819050919050565b6000819050919050565b6000620004b4620004ae620004a8846200047f565b62000489565b6200047f565b9050919050565b6000819050919050565b620004d08362000493565b620004e8620004df82620004bb565b84845462000429565b825550505050565b600090565b620004ff620004f0565b6200050c818484620004c5565b505050565b5b81811015620005345762000528600082620004f5565b60018101905062000512565b5050565b601f82111562000583576200054d81620003f7565b62000558846200040c565b8101602085101562000568578190505b6200058062000577856200040c565b83018262000511565b50505b505050565b600082821c905092915050565b6000620005a86000198460080262000588565b1980831691505092915050565b6000620005c3838362000595565b9150826002028217905092915050565b620005de8262000388565b67ffffffffffffffff811115620005fa57620005f96200019f565b5b620006068254620003c2565b6200061382828562000538565b600060209050601f8311600181146200064b576000841562000636578287015190505b620006428582620005b5565b865550620006b2565b601f1984166200065b86620003f7565b60005b8281101562000685578489015182556001820191506020850194506020810190506200065e565b86831015620006a55784890151620006a1601f89168262000595565b8355505b6001600288020188555050505b505050505050565b613d2e80620006ca6000396000f3fe60806040526004361061014b5760003560e01c8063715018a6116100b6578063a22cb4651161006f578063a22cb4651461047b578063b88d4fde146104a4578063c2692760146104c0578063c87b56dd146104fd578063e985e9c51461053a578063f2fde38b146105775761014b565b8063715018a61461037d5780637d2d7e30146103945780637fcc83be146103d15780638da5cb5b146103fc57806392e41c6e1461042757806395d89b41146104505761014b565b806323b872dd1161010857806323b872dd1461026557806330d8bb9b1461028157806342842e0e146102aa5780635be08933146102c65780636352211e1461030357806370a08231146103405761014b565b806301ffc9a71461015057806306fdde031461018d578063081812fc146101b8578063095ea7b3146101f557806314dee4b31461021157806318160ddd1461023a575b600080fd5b34801561015c57600080fd5b5061017760048036038101906101729190612c35565b6105a0565b6040516101849190612c7d565b60405180910390f35b34801561019957600080fd5b506101a2610632565b6040516101af9190612d28565b60405180910390f35b3480156101c457600080fd5b506101df60048036038101906101da9190612d80565b6106c4565b6040516101ec9190612dee565b60405180910390f35b61020f600480360381019061020a9190612e35565b610743565b005b34801561021d57600080fd5b5061023860048036038101906102339190612faa565b610887565b005b34801561024657600080fd5b5061024f61096d565b60405161025c9190613015565b60405180910390f35b61027f600480360381019061027a9190613030565b610984565b005b34801561028d57600080fd5b506102a860048036038101906102a39190612faa565b610ca6565b005b6102c460048036038101906102bf9190613030565b610ddb565b005b3480156102d257600080fd5b506102ed60048036038101906102e89190612d80565b610dfb565b6040516102fa919061316f565b60405180910390f35b34801561030f57600080fd5b5061032a60048036038101906103259190612d80565b61103e565b6040516103379190612dee565b60405180910390f35b34801561034c57600080fd5b5061036760048036038101906103629190613191565b611050565b6040516103749190613015565b60405180910390f35b34801561038957600080fd5b50610392611108565b005b3480156103a057600080fd5b506103bb60048036038101906103b69190613191565b61111c565b6040516103c89190613304565b60405180910390f35b3480156103dd57600080fd5b506103e66114b3565b6040516103f39190613304565b60405180910390f35b34801561040857600080fd5b5061041161180e565b60405161041e9190612dee565b60405180910390f35b34801561043357600080fd5b5061044e60048036038101906104499190612d80565b611838565b005b34801561045c57600080fd5b50610465611bad565b6040516104729190612d28565b60405180910390f35b34801561048757600080fd5b506104a2600480360381019061049d9190613352565b611c3f565b005b6104be60048036038101906104b99190613433565b611d4a565b005b3480156104cc57600080fd5b506104e760048036038101906104e291906134b6565b611dbd565b6040516104f49190613015565b60405180910390f35b34801561050957600080fd5b50610524600480360381019061051f9190612d80565b611f75565b6040516105319190612d28565b60405180910390f35b34801561054657600080fd5b50610561600480360381019061055c919061352e565b612013565b60405161056e9190612c7d565b60405180910390f35b34801561058357600080fd5b5061059e60048036038101906105999190613191565b6120a7565b005b60006301ffc9a760e01b827bffffffffffffffffffffffffffffffffffffffffffffffffffffffff191614806105fb57506380ac58cd60e01b827bffffffffffffffffffffffffffffffffffffffffffffffffffffffff1916145b8061062b5750635b5e139f60e01b827bffffffffffffffffffffffffffffffffffffffffffffffffffffffff1916145b9050919050565b6060600280546106419061359d565b80601f016020809104026020016040519081016040528092919081815260200182805461066d9061359d565b80156106ba5780601f1061068f576101008083540402835291602001916106ba565b820191906000526020600020905b81548152906001019060200180831161069d57829003601f168201915b5050505050905090565b60006106cf8261212a565b610705576040517fcf4700e400000000000000000000000000000000000000000000000000000000815260040160405180910390fd5b6006600083815260200190815260200160002060000160009054906101000a900473ffffffffffffffffffffffffffffffffffffffff169050919050565b600061074e8261103e565b90508073ffffffffffffffffffffffffffffffffffffffff1661076f612189565b73ffffffffffffffffffffffffffffffffffffffff16146107d25761079b81610796612189565b612013565b6107d1576040517fcfb3b94200000000000000000000000000000000000000000000000000000000815260040160405180910390fd5b5b826006600084815260200190815260200160002060000160006101000a81548173ffffffffffffffffffffffffffffffffffffffff021916908373ffffffffffffffffffffffffffffffffffffffff160217905550818373ffffffffffffffffffffffffffffffffffffffff168273ffffffffffffffffffffffffffffffffffffffff167f8c5be1e5ebec7d5bd14f71427d1e84f3dd0314c0f7b2291e5b200ac8c7c3b92560405160405180910390a4505050565b6108908261212a565b6108cf576040517f08c379a00000000000000000000000000000000000000000000000000000000081526004016108c690613640565b60405180910390fd5b3373ffffffffffffffffffffffffffffffffffffffff166108ef8361103e565b73ffffffffffffffffffffffffffffffffffffffff1614610945576040517f08c379a000000000000000000000000000000000000000000000000000000000815260040161093c906136d2565b60405180910390fd5b80600960008481526020019081526020016000206002019081610968919061389e565b505050565b6000610977612191565b6001546000540303905090565b600061098f82612196565b90508373ffffffffffffffffffffffffffffffffffffffff168173ffffffffffffffffffffffffffffffffffffffff16146109f6576040517fa114810000000000000000000000000000000000000000000000000000000000815260040160405180910390fd5b600080610a0284612262565b91509150610a188187610a13612189565b612289565b610a6457610a2d86610a28612189565b612013565b610a63576040517f59c896be00000000000000000000000000000000000000000000000000000000815260040160405180910390fd5b5b600073ffffffffffffffffffffffffffffffffffffffff168573ffffffffffffffffffffffffffffffffffffffff1603610aca576040517fea553b3400000000000000000000000000000000000000000000000000000000815260040160405180910390fd5b610ad786868660016122cd565b8015610ae257600082555b600560008773ffffffffffffffffffffffffffffffffffffffff1673ffffffffffffffffffffffffffffffffffffffff168152602001908152602001600020600081546001900391905081905550600560008673ffffffffffffffffffffffffffffffffffffffff1673ffffffffffffffffffffffffffffffffffffffff1681526020019081526020016000206000815460010191905081905550610bb085610b8c8888876122d3565b7c0200000000000000000000000000000000000000000000000000000000176122fb565b600460008681526020019081526020016000208190555060007c0200000000000000000000000000000000000000000000000000000000841603610c365760006001850190506000600460008381526020019081526020016000205403610c34576000548114610c33578360046000838152602001908152602001600020819055505b5b505b838573ffffffffffffffffffffffffffffffffffffffff168773ffffffffffffffffffffffffffffffffffffffff167fddf252ad1be2c89b69c2b068fc378daa952ba7f163c4a11628f55a4df523b3ef60405160405180910390a4610c9e8686866001612326565b505050505050565b610caf8261212a565b610cee576040517f08c379a0000000000000000000000000000000000000000000000000000000008152600401610ce590613640565b60405180910390fd5b3373ffffffffffffffffffffffffffffffffffffffff16610d0e8361103e565b73ffffffffffffffffffffffffffffffffffffffff1614610d64576040517f08c379a0000000000000000000000000000000000000000000000000000000008152600401610d5b906136d2565b60405180910390fd5b80600960008481526020019081526020016000206004019081610d87919061389e565b503373ffffffffffffffffffffffffffffffffffffffff16827f40a9418af964c87768383b4b3aebe2d80f69c88cb618bbf0d194a1bf203e4e8983604051610dcf9190612d28565b60405180910390a35050565b610df683838360405180602001604052806000815250611d4a565b505050565b610e03612b27565b600960008381526020019081526020016000206040518060a001604052908160008201548152602001600182018054610e3b9061359d565b80601f0160208091040260200160405190810160405280929190818152602001828054610e679061359d565b8015610eb45780601f10610e8957610100808354040283529160200191610eb4565b820191906000526020600020905b815481529060010190602001808311610e9757829003601f168201915b50505050508152602001600282018054610ecd9061359d565b80601f0160208091040260200160405190810160405280929190818152602001828054610ef99061359d565b8015610f465780601f10610f1b57610100808354040283529160200191610f46565b820191906000526020600020905b815481529060010190602001808311610f2957829003601f168201915b505050505081526020016003820160009054906101000a900473ffffffffffffffffffffffffffffffffffffffff1673ffffffffffffffffffffffffffffffffffffffff1673ffffffffffffffffffffffffffffffffffffffff168152602001600482018054610fb59061359d565b80601f0160208091040260200160405190810160405280929190818152602001828054610fe19061359d565b801561102e5780601f106110035761010080835404028352916020019161102e565b820191906000526020600020905b81548152906001019060200180831161101157829003601f168201915b5050505050815250509050919050565b600061104982612196565b9050919050565b60008073ffffffffffffffffffffffffffffffffffffffff168273ffffffffffffffffffffffffffffffffffffffff16036110b7576040517f8f4eb60400000000000000000000000000000000000000000000000000000000815260040160405180910390fd5b67ffffffffffffffff600560008473ffffffffffffffffffffffffffffffffffffffff1673ffffffffffffffffffffffffffffffffffffffff16815260200190815260200160002054169050919050565b61111061232c565b61111a60006123aa565b565b60606000600a60008473ffffffffffffffffffffffffffffffffffffffff1673ffffffffffffffffffffffffffffffffffffffff1681526020019081526020016000208054905067ffffffffffffffff81111561117c5761117b612e7f565b5b6040519080825280602002602001820160405280156111b557816020015b6111a2612b27565b81526020019060019003908161119a5790505b5090506000805b6111c4612470565b8110156114a8578473ffffffffffffffffffffffffffffffffffffffff166009600083815260200190815260200160002060030160009054906101000a900473ffffffffffffffffffffffffffffffffffffffff1673ffffffffffffffffffffffffffffffffffffffff160361149557600960008281526020019081526020016000206040518060a00160405290816000820154815260200160018201805461126c9061359d565b80601f01602080910402602001604051908101604052809291908181526020018280546112989061359d565b80156112e55780601f106112ba576101008083540402835291602001916112e5565b820191906000526020600020905b8154815290600101906020018083116112c857829003601f168201915b505050505081526020016002820180546112fe9061359d565b80601f016020809104026020016040519081016040528092919081815260200182805461132a9061359d565b80156113775780601f1061134c57610100808354040283529160200191611377565b820191906000526020600020905b81548152906001019060200180831161135a57829003601f168201915b505050505081526020016003820160009054906101000a900473ffffffffffffffffffffffffffffffffffffffff1673ffffffffffffffffffffffffffffffffffffffff1673ffffffffffffffffffffffffffffffffffffffff1681526020016004820180546113e69061359d565b80601f01602080910402602001604051908101604052809291908181526020018280546114129061359d565b801561145f5780601f106114345761010080835404028352916020019161145f565b820191906000526020600020905b81548152906001019060200180831161144257829003601f168201915b50505050508152505083838151811061147b5761147a613970565b5b60200260200101819052508180611491906139ce565b9250505b80806114a0906139ce565b9150506111bc565b508192505050919050565b606060006114bf61096d565b67ffffffffffffffff8111156114d8576114d7612e7f565b5b60405190808252806020026020018201604052801561151157816020015b6114fe612b27565b8152602001906001900390816114f65790505b5090506000805b611520612470565b81101561180557600073ffffffffffffffffffffffffffffffffffffffff166009600083815260200190815260200160002060030160009054906101000a900473ffffffffffffffffffffffffffffffffffffffff1673ffffffffffffffffffffffffffffffffffffffff16146117f257600960008281526020019081526020016000206040518060a0016040529081600082015481526020016001820180546115c99061359d565b80601f01602080910402602001604051908101604052809291908181526020018280546115f59061359d565b80156116425780601f1061161757610100808354040283529160200191611642565b820191906000526020600020905b81548152906001019060200180831161162557829003601f168201915b5050505050815260200160028201805461165b9061359d565b80601f01602080910402602001604051908101604052809291908181526020018280546116879061359d565b80156116d45780601f106116a9576101008083540402835291602001916116d4565b820191906000526020600020905b8154815290600101906020018083116116b757829003601f168201915b505050505081526020016003820160009054906101000a900473ffffffffffffffffffffffffffffffffffffffff1673ffffffffffffffffffffffffffffffffffffffff1673ffffffffffffffffffffffffffffffffffffffff1681526020016004820180546117439061359d565b80601f016020809104026020016040519081016040528092919081815260200182805461176f9061359d565b80156117bc5780601f10611791576101008083540402835291602001916117bc565b820191906000526020600020905b81548152906001019060200180831161179f57829003601f168201915b5050505050815250508383815181106117d8576117d7613970565b5b602002602001018190525081806117ee906139ce565b9250505b80806117fd906139ce565b915050611518565b50819250505090565b6000600860009054906101000a900473ffffffffffffffffffffffffffffffffffffffff16905090565b6118418161212a565b611880576040517f08c379a000000000000000000000000000000000000000000000000000000000815260040161187790613640565b60405180910390fd5b3373ffffffffffffffffffffffffffffffffffffffff166118a08261103e565b73ffffffffffffffffffffffffffffffffffffffff16146118f6576040517f08c379a00000000000000000000000000000000000000000000000000000000081526004016118ed906136d2565b60405180910390fd5b6118ff81612479565b6009600082815260200190815260200160002060008082016000905560018201600061192b9190612b6c565b60028201600061193b9190612b6c565b6003820160006101000a81549073ffffffffffffffffffffffffffffffffffffffff02191690556004820160006119729190612b6c565b505060005b600a60003373ffffffffffffffffffffffffffffffffffffffff1673ffffffffffffffffffffffffffffffffffffffff16815260200190815260200160002080549050811015611ba95781600a60003373ffffffffffffffffffffffffffffffffffffffff1673ffffffffffffffffffffffffffffffffffffffff1681526020019081526020016000208281548110611a1357611a12613970565b5b906000526020600020015403611b9657600a60003373ffffffffffffffffffffffffffffffffffffffff1673ffffffffffffffffffffffffffffffffffffffff1681526020019081526020016000206001600a60003373ffffffffffffffffffffffffffffffffffffffff1673ffffffffffffffffffffffffffffffffffffffff16815260200190815260200160002080549050611ab19190613a16565b81548110611ac257611ac1613970565b5b9060005260206000200154600a60003373ffffffffffffffffffffffffffffffffffffffff1673ffffffffffffffffffffffffffffffffffffffff1681526020019081526020016000208281548110611b1e57611b1d613970565b5b9060005260206000200181905550600a60003373ffffffffffffffffffffffffffffffffffffffff1673ffffffffffffffffffffffffffffffffffffffff168152602001908152602001600020805480611b7b57611b7a613a4a565b5b60019003818190600052602060002001600090559055611ba9565b8080611ba1906139ce565b915050611977565b5050565b606060038054611bbc9061359d565b80601f0160208091040260200160405190810160405280929190818152602001828054611be89061359d565b8015611c355780601f10611c0a57610100808354040283529160200191611c35565b820191906000526020600020905b815481529060010190602001808311611c1857829003601f168201915b5050505050905090565b8060076000611c4c612189565b73ffffffffffffffffffffffffffffffffffffffff1673ffffffffffffffffffffffffffffffffffffffff16815260200190815260200160002060008473ffffffffffffffffffffffffffffffffffffffff1673ffffffffffffffffffffffffffffffffffffffff16815260200190815260200160002060006101000a81548160ff0219169083151502179055508173ffffffffffffffffffffffffffffffffffffffff16611cf9612189565b73ffffffffffffffffffffffffffffffffffffffff167f17307eab39ab6107e8899845ad3d59bd9653f200f220920489ca2b5937696c3183604051611d3e9190612c7d565b60405180910390a35050565b611d55848484610984565b60008373ffffffffffffffffffffffffffffffffffffffff163b14611db757611d8084848484612487565b611db6576040517fd1a57ed600000000000000000000000000000000000000000000000000000000815260040160405180910390fd5b5b50505050565b600080611dc8612470565b9050611dd53360016125d7565b6040518060a001604052808281526020018581526020018481526020013373ffffffffffffffffffffffffffffffffffffffff1681526020016040518060200160405280600081525081525060096000838152602001908152602001600020600082015181600001556020820151816001019081611e53919061389e565b506040820151816002019081611e69919061389e565b5060608201518160030160006101000a81548173ffffffffffffffffffffffffffffffffffffffff021916908373ffffffffffffffffffffffffffffffffffffffff1602179055506080820151816004019081611ec6919061389e565b50905050600a60003373ffffffffffffffffffffffffffffffffffffffff1673ffffffffffffffffffffffffffffffffffffffff1681526020019081526020016000208190806001815401808255809150506001900390600052602060002001600090919091909150557f5041508c74c5ad5ddc4c2c1f09ab873b5f067367dd2e8af9c7561d3556adb527818533604051611f6393929190613a79565b60405180910390a18091505092915050565b6060611f808261212a565b611fb6576040517fa14c4b5000000000000000000000000000000000000000000000000000000000815260040160405180910390fd5b6000611fc06125f5565b90506000815103611fe0576040518060200160405280600081525061200b565b80611fea8461260c565b604051602001611ffb929190613af3565b6040516020818303038152906040525b915050919050565b6000600760008473ffffffffffffffffffffffffffffffffffffffff1673ffffffffffffffffffffffffffffffffffffffff16815260200190815260200160002060008373ffffffffffffffffffffffffffffffffffffffff1673ffffffffffffffffffffffffffffffffffffffff16815260200190815260200160002060009054906101000a900460ff16905092915050565b6120af61232c565b600073ffffffffffffffffffffffffffffffffffffffff168173ffffffffffffffffffffffffffffffffffffffff160361211e576040517f08c379a000000000000000000000000000000000000000000000000000000000815260040161211590613b89565b60405180910390fd5b612127816123aa565b50565b600081612135612191565b11158015612144575060005482105b8015612182575060007c0100000000000000000000000000000000000000000000000000000000600460008581526020019081526020016000205416145b9050919050565b600033905090565b600090565b600080829050806121a5612191565b1161222b5760005481101561222a5760006004600083815260200190815260200160002054905060007c0100000000000000000000000000000000000000000000000000000000821603612228575b6000810361221e5760046000836001900393508381526020019081526020016000205490506121f4565b809250505061225d565b505b5b6040517fdf2d9b4200000000000000000000000000000000000000000000000000000000815260040160405180910390fd5b919050565b60008060006006600085815260200190815260200160002090508092508254915050915091565b600073ffffffffffffffffffffffffffffffffffffffff8316925073ffffffffffffffffffffffffffffffffffffffff821691508382148383141790509392505050565b50505050565b60008060e883901c905060e86122ea86868461265c565b62ffffff16901b9150509392505050565b600073ffffffffffffffffffffffffffffffffffffffff83169250814260a01b178317905092915050565b50505050565b612334612665565b73ffffffffffffffffffffffffffffffffffffffff1661235261180e565b73ffffffffffffffffffffffffffffffffffffffff16146123a8576040517f08c379a000000000000000000000000000000000000000000000000000000000815260040161239f90613bf5565b60405180910390fd5b565b6000600860009054906101000a900473ffffffffffffffffffffffffffffffffffffffff16905081600860006101000a81548173ffffffffffffffffffffffffffffffffffffffff021916908373ffffffffffffffffffffffffffffffffffffffff1602179055508173ffffffffffffffffffffffffffffffffffffffff168173ffffffffffffffffffffffffffffffffffffffff167f8be0079c531659141344cd1fd0a4f28419497f9722a3daafe3b4186f6b6457e060405160405180910390a35050565b60008054905090565b61248481600061266d565b50565b60008373ffffffffffffffffffffffffffffffffffffffff1663150b7a026124ad612189565b8786866040518563ffffffff1660e01b81526004016124cf9493929190613c6a565b6020604051808303816000875af192505050801561250b57506040513d601f19601f820116820180604052508101906125089190613ccb565b60015b612584573d806000811461253b576040519150601f19603f3d011682016040523d82523d6000602084013e612540565b606091505b50600081510361257c576040517fd1a57ed600000000000000000000000000000000000000000000000000000000815260040160405180910390fd5b805181602001fd5b63150b7a0260e01b7bffffffffffffffffffffffffffffffffffffffffffffffffffffffff1916817bffffffffffffffffffffffffffffffffffffffffffffffffffffffff191614915050949350505050565b6125f18282604051806020016040528060008152506128bf565b5050565b606060405180602001604052806000815250905090565b606060a060405101806040526020810391506000825281835b60011561264757600184039350600a81066030018453600a8104905080612625575b50828103602084039350808452505050919050565b60009392505050565b600033905090565b600061267883612196565b9050600081905060008061268b86612262565b9150915084156126f4576126a781846126a2612189565b612289565b6126f3576126bc836126b7612189565b612013565b6126f2576040517f59c896be00000000000000000000000000000000000000000000000000000000815260040160405180910390fd5b5b5b6127028360008860016122cd565b801561270d57600082555b600160806001901b03600560008573ffffffffffffffffffffffffffffffffffffffff1673ffffffffffffffffffffffffffffffffffffffff168152602001908152602001600020600082825401925050819055506127b583612772856000886122d3565b7c02000000000000000000000000000000000000000000000000000000007c010000000000000000000000000000000000000000000000000000000017176122fb565b600460008881526020019081526020016000208190555060007c020000000000000000000000000000000000000000000000000000000085160361283b5760006001870190506000600460008381526020019081526020016000205403612839576000548114612838578460046000838152602001908152602001600020819055505b5b505b85600073ffffffffffffffffffffffffffffffffffffffff168473ffffffffffffffffffffffffffffffffffffffff167fddf252ad1be2c89b69c2b068fc378daa952ba7f163c4a11628f55a4df523b3ef60405160405180910390a46128a5836000886001612326565b600160008154809291906001019190505550505050505050565b6128c9838361295c565b60008373ffffffffffffffffffffffffffffffffffffffff163b1461295757600080549050600083820390505b6129096000868380600101945086612487565b61293f576040517fd1a57ed600000000000000000000000000000000000000000000000000000000815260040160405180910390fd5b8181106128f657816000541461295457600080fd5b50505b505050565b6000805490506000820361299c576040517fb562e8dd00000000000000000000000000000000000000000000000000000000815260040160405180910390fd5b6129a960008483856122cd565b600160406001901b178202600560008573ffffffffffffffffffffffffffffffffffffffff1673ffffffffffffffffffffffffffffffffffffffff16815260200190815260200160002060008282540192505081905550612a2083612a1160008660006122d3565b612a1a85612b17565b176122fb565b6004600083815260200190815260200160002081905550600080838301905073ffffffffffffffffffffffffffffffffffffffff85169150828260007fddf252ad1be2c89b69c2b068fc378daa952ba7f163c4a11628f55a4df523b3ef600080a4600183015b818114612ac157808360007fddf252ad1be2c89b69c2b068fc378daa952ba7f163c4a11628f55a4df523b3ef600080a4600181019050612a86565b5060008203612afc576040517f2e07630000000000000000000000000000000000000000000000000000000000815260040160405180910390fd5b806000819055505050612b126000848385612326565b505050565b60006001821460e11b9050919050565b6040518060a00160405280600081526020016060815260200160608152602001600073ffffffffffffffffffffffffffffffffffffffff168152602001606081525090565b508054612b789061359d565b6000825580601f10612b8a5750612ba9565b601f016020900490600052602060002090810190612ba89190612bac565b5b50565b5b80821115612bc5576000816000905550600101612bad565b5090565b6000604051905090565b600080fd5b600080fd5b60007fffffffff0000000000000000000000000000000000000000000000000000000082169050919050565b612c1281612bdd565b8114612c1d57600080fd5b50565b600081359050612c2f81612c09565b92915050565b600060208284031215612c4b57612c4a612bd3565b5b6000612c5984828501612c20565b91505092915050565b60008115159050919050565b612c7781612c62565b82525050565b6000602082019050612c926000830184612c6e565b92915050565b600081519050919050565b600082825260208201905092915050565b60005b83811015612cd2578082015181840152602081019050612cb7565b60008484015250505050565b6000601f19601f8301169050919050565b6000612cfa82612c98565b612d048185612ca3565b9350612d14818560208601612cb4565b612d1d81612cde565b840191505092915050565b60006020820190508181036000830152612d428184612cef565b905092915050565b6000819050919050565b612d5d81612d4a565b8114612d6857600080fd5b50565b600081359050612d7a81612d54565b92915050565b600060208284031215612d9657612d95612bd3565b5b6000612da484828501612d6b565b91505092915050565b600073ffffffffffffffffffffffffffffffffffffffff82169050919050565b6000612dd882612dad565b9050919050565b612de881612dcd565b82525050565b6000602082019050612e036000830184612ddf565b92915050565b612e1281612dcd565b8114612e1d57600080fd5b50565b600081359050612e2f81612e09565b92915050565b60008060408385031215612e4c57612e4b612bd3565b5b6000612e5a85828601612e20565b9250506020612e6b85828601612d6b565b9150509250929050565b600080fd5b600080fd5b7f4e487b7100000000000000000000000000000000000000000000000000000000600052604160045260246000fd5b612eb782612cde565b810181811067ffffffffffffffff82111715612ed657612ed5612e7f565b5b80604052505050565b6000612ee9612bc9565b9050612ef58282612eae565b919050565b600067ffffffffffffffff821115612f1557612f14612e7f565b5b612f1e82612cde565b9050602081019050919050565b82818337600083830152505050565b6000612f4d612f4884612efa565b612edf565b905082815260208101848484011115612f6957612f68612e7a565b5b612f74848285612f2b565b509392505050565b600082601f830112612f9157612f90612e75565b5b8135612fa1848260208601612f3a565b91505092915050565b60008060408385031215612fc157612fc0612bd3565b5b6000612fcf85828601612d6b565b925050602083013567ffffffffffffffff811115612ff057612fef612bd8565b5b612ffc85828601612f7c565b9150509250929050565b61300f81612d4a565b82525050565b600060208201905061302a6000830184613006565b92915050565b60008060006060848603121561304957613048612bd3565b5b600061305786828701612e20565b935050602061306886828701612e20565b925050604061307986828701612d6b565b9150509250925092565b61308c81612d4a565b82525050565b600082825260208201905092915050565b60006130ae82612c98565b6130b88185613092565b93506130c8818560208601612cb4565b6130d181612cde565b840191505092915050565b6130e581612dcd565b82525050565b600060a0830160008301516131036000860182613083565b506020830151848203602086015261311b82826130a3565b9150506040830151848203604086015261313582826130a3565b915050606083015161314a60608601826130dc565b506080830151848203608086015261316282826130a3565b9150508091505092915050565b6000602082019050818103600083015261318981846130eb565b905092915050565b6000602082840312156131a7576131a6612bd3565b5b60006131b584828501612e20565b91505092915050565b600081519050919050565b600082825260208201905092915050565b6000819050602082019050919050565b600060a0830160008301516132026000860182613083565b506020830151848203602086015261321a82826130a3565b9150506040830151848203604086015261323482826130a3565b915050606083015161324960608601826130dc565b506080830151848203608086015261326182826130a3565b9150508091505092915050565b600061327a83836131ea565b905092915050565b6000602082019050919050565b600061329a826131be565b6132a481856131c9565b9350836020820285016132b6856131da565b8060005b858110156132f257848403895281516132d3858261326e565b94506132de83613282565b925060208a019950506001810190506132ba565b50829750879550505050505092915050565b6000602082019050818103600083015261331e818461328f565b905092915050565b61332f81612c62565b811461333a57600080fd5b50565b60008135905061334c81613326565b92915050565b6000806040838503121561336957613368612bd3565b5b600061337785828601612e20565b92505060206133888582860161333d565b9150509250929050565b600067ffffffffffffffff8211156133ad576133ac612e7f565b5b6133b682612cde565b9050602081019050919050565b60006133d66133d184613392565b612edf565b9050828152602081018484840111156133f2576133f1612e7a565b5b6133fd848285612f2b565b509392505050565b600082601f83011261341a57613419612e75565b5b813561342a8482602086016133c3565b91505092915050565b6000806000806080858703121561344d5761344c612bd3565b5b600061345b87828801612e20565b945050602061346c87828801612e20565b935050604061347d87828801612d6b565b925050606085013567ffffffffffffffff81111561349e5761349d612bd8565b5b6134aa87828801613405565b91505092959194509250565b600080604083850312156134cd576134cc612bd3565b5b600083013567ffffffffffffffff8111156134eb576134ea612bd8565b5b6134f785828601612f7c565b925050602083013567ffffffffffffffff81111561351857613517612bd8565b5b61352485828601612f7c565b9150509250929050565b6000806040838503121561354557613544612bd3565b5b600061355385828601612e20565b925050602061356485828601612e20565b9150509250929050565b7f4e487b7100000000000000000000000000000000000000000000000000000000600052602260045260246000fd5b600060028204905060018216806135b557607f821691505b6020821081036135c8576135c761356e565b5b50919050565b7f4769747365633a206e6f207265706f7369746f727920666f756e64206279206760008201527f6976656e20494400000000000000000000000000000000000000000000000000602082015250565b600061362a602783612ca3565b9150613635826135ce565b604082019050919050565b600060208201905081810360008301526136598161361d565b9050919050565b7f4769747365633a2063616c6c6572206973206e6f7420746865207265706f736960008201527f746f7279206f776e657200000000000000000000000000000000000000000000602082015250565b60006136bc602a83612ca3565b91506136c782613660565b604082019050919050565b600060208201905081810360008301526136eb816136af565b9050919050565b60008190508160005260206000209050919050565b60006020601f8301049050919050565b600082821b905092915050565b6000600883026137547fffffffffffffffffffffffffffffffffffffffffffffffffffffffffffffffff82613717565b61375e8683613717565b95508019841693508086168417925050509392505050565b6000819050919050565b600061379b61379661379184612d4a565b613776565b612d4a565b9050919050565b6000819050919050565b6137b583613780565b6137c96137c1826137a2565b848454613724565b825550505050565b600090565b6137de6137d1565b6137e98184846137ac565b505050565b5b8181101561380d576138026000826137d6565b6001810190506137ef565b5050565b601f82111561385257613823816136f2565b61382c84613707565b8101602085101561383b578190505b61384f61384785613707565b8301826137ee565b50505b505050565b600082821c905092915050565b600061387560001984600802613857565b1980831691505092915050565b600061388e8383613864565b9150826002028217905092915050565b6138a782612c98565b67ffffffffffffffff8111156138c0576138bf612e7f565b5b6138ca825461359d565b6138d5828285613811565b600060209050601f83116001811461390857600084156138f6578287015190505b6139008582613882565b865550613968565b601f198416613916866136f2565b60005b8281101561393e57848901518255600182019150602085019450602081019050613919565b8683101561395b5784890151613957601f891682613864565b8355505b6001600288020188555050505b505050505050565b7f4e487b7100000000000000000000000000000000000000000000000000000000600052603260045260246000fd5b7f4e487b7100000000000000000000000000000000000000000000000000000000600052601160045260246000fd5b60006139d982612d4a565b91507fffffffffffffffffffffffffffffffffffffffffffffffffffffffffffffffff8203613a0b57613a0a61399f565b5b600182019050919050565b6000613a2182612d4a565b9150613a2c83612d4a565b9250828203905081811115613a4457613a4361399f565b5b92915050565b7f4e487b7100000000000000000000000000000000000000000000000000000000600052603160045260246000fd5b6000606082019050613a8e6000830186613006565b8181036020830152613aa08185612cef565b9050613aaf6040830184612ddf565b949350505050565b600081905092915050565b6000613acd82612c98565b613ad78185613ab7565b9350613ae7818560208601612cb4565b80840191505092915050565b6000613aff8285613ac2565b9150613b0b8284613ac2565b91508190509392505050565b7f4f776e61626c653a206e6577206f776e657220697320746865207a65726f206160008201527f6464726573730000000000000000000000000000000000000000000000000000602082015250565b6000613b73602683612ca3565b9150613b7e82613b17565b604082019050919050565b60006020820190508181036000830152613ba281613b66565b9050919050565b7f4f776e61626c653a2063616c6c6572206973206e6f7420746865206f776e6572600082015250565b6000613bdf602083612ca3565b9150613bea82613ba9565b602082019050919050565b60006020820190508181036000830152613c0e81613bd2565b9050919050565b600081519050919050565b600082825260208201905092915050565b6000613c3c82613c15565b613c468185613c20565b9350613c56818560208601612cb4565b613c5f81612cde565b840191505092915050565b6000608082019050613c7f6000830187612ddf565b613c8c6020830186612ddf565b613c996040830185613006565b8181036060830152613cab8184613c31565b905095945050505050565b600081519050613cc581612c09565b92915050565b600060208284031215613ce157613ce0612bd3565b5b6000613cef84828501613cb6565b9150509291505056fea264697066735822122093b3b0e64efaaa58230ec71b9ec0a876f2b73273ec0e0765f375d9b98c7c1df064736f6c63430008110033",
  "linkReferences": {},
  "deployedLinkReferences": {}
}