{
  "_format": "hh-sol-artifact-1",
  "contractName": "Gitsec",
  "sourceName": "contracts/Gitsec.sol",
  "abi": [
    {
      "inputs": [
        {
          "internalType": "string",
          "name": "name",
          "type": "string"
        },
        {
          "internalType": "string",
          "name": "symbol",
          "type": "string"
        }
      ],
      "stateMutability": "nonpayable",
      "type": "constructor"
    },
    {
      "inputs": [],
      "name": "ApprovalCallerNotOwnerNorApproved",
      "type": "error"
    },
    {
      "inputs": [],
      "name": "ApprovalQueryForNonexistentToken",
      "type": "error"
    },
    {
      "inputs": [],
      "name": "BalanceQueryForZeroAddress",
      "type": "error"
    },
    {
      "inputs": [],
      "name": "MintERC2309QuantityExceedsLimit",
      "type": "error"
    },
    {
      "inputs": [],
      "name": "MintToZeroAddress",
      "type": "error"
    },
    {
      "inputs": [],
      "name": "MintZeroQuantity",
      "type": "error"
    },
    {
      "inputs": [],
      "name": "OwnerQueryForNonexistentToken",
      "type": "error"
    },
    {
      "inputs": [],
      "name": "OwnershipNotInitializedForExtraData",
      "type": "error"
    },
    {
      "inputs": [],
      "name": "TransferCallerNotOwnerNorApproved",
      "type": "error"
    },
    {
      "inputs": [],
      "name": "TransferFromIncorrectOwner",
      "type": "error"
    },
    {
      "inputs": [],
      "name": "TransferToNonERC721ReceiverImplementer",
      "type": "error"
    },
    {
      "inputs": [],
      "name": "TransferToZeroAddress",
      "type": "error"
    },
    {
      "inputs": [],
      "name": "URIQueryForNonexistentToken",
      "type": "error"
    },
    {
      "anonymous": false,
      "inputs": [
        {
          "indexed": true,
          "internalType": "address",
          "name": "owner",
          "type": "address"
        },
        {
          "indexed": true,
          "internalType": "address",
          "name": "approved",
          "type": "address"
        },
        {
          "indexed": true,
          "internalType": "uint256",
          "name": "tokenId",
          "type": "uint256"
        }
      ],
      "name": "Approval",
      "type": "event"
    },
    {
      "anonymous": false,
      "inputs": [
        {
          "indexed": true,
          "internalType": "address",
          "name": "owner",
          "type": "address"
        },
        {
          "indexed": true,
          "internalType": "address",
          "name": "operator",
          "type": "address"
        },
        {
          "indexed": false,
          "internalType": "bool",
          "name": "approved",
          "type": "bool"
        }
      ],
      "name": "ApprovalForAll",
      "type": "event"
    },
    {
      "anonymous": false,
      "inputs": [
        {
          "indexed": true,
          "internalType": "uint256",
          "name": "fromTokenId",
          "type": "uint256"
        },
        {
          "indexed": false,
          "internalType": "uint256",
          "name": "toTokenId",
          "type": "uint256"
        },
        {
          "indexed": true,
          "internalType": "address",
          "name": "from",
          "type": "address"
        },
        {
          "indexed": true,
          "internalType": "address",
          "name": "to",
          "type": "address"
        }
      ],
      "name": "ConsecutiveTransfer",
      "type": "event"
    },
    {
      "anonymous": false,
      "inputs": [
        {
          "indexed": true,
          "internalType": "uint256",
          "name": "repId",
          "type": "uint256"
        },
        {
          "indexed": true,
          "internalType": "address",
          "name": "owner",
          "type": "address"
        },
        {
          "indexed": false,
          "internalType": "string",
          "name": "IPFS",
          "type": "string"
        }
      ],
      "name": "IPFSHashUpdated",
      "type": "event"
    },
    {
      "anonymous": false,
      "inputs": [
        {
          "indexed": true,
          "internalType": "address",
          "name": "previousOwner",
          "type": "address"
        },
        {
          "indexed": true,
          "internalType": "address",
          "name": "newOwner",
          "type": "address"
        }
      ],
      "name": "OwnershipTransferred",
      "type": "event"
    },
    {
      "anonymous": false,
      "inputs": [
        {
          "indexed": false,
          "internalType": "uint256",
          "name": "repId",
          "type": "uint256"
        },
        {
          "indexed": false,
          "internalType": "string",
          "name": "repName",
          "type": "string"
        },
        {
          "indexed": false,
          "internalType": "address",
          "name": "owner",
          "type": "address"
        },
        {
          "indexed": false,
          "internalType": "string",
          "name": "description",
          "type": "string"
        }
      ],
      "name": "RepositoryCreated",
      "type": "event"
    },
    {
      "anonymous": false,
      "inputs": [
        {
          "indexed": true,
          "internalType": "address",
          "name": "from",
          "type": "address"
        },
        {
          "indexed": true,
          "internalType": "address",
          "name": "to",
          "type": "address"
        },
        {
          "indexed": true,
          "internalType": "uint256",
          "name": "tokenId",
          "type": "uint256"
        }
      ],
      "name": "Transfer",
      "type": "event"
    },
    {
      "inputs": [],
      "name": "admin",
      "outputs": [
        {
          "internalType": "address",
          "name": "",
          "type": "address"
        }
      ],
      "stateMutability": "view",
      "type": "function"
    },
    {
      "inputs": [
        {
          "internalType": "address",
          "name": "to",
          "type": "address"
        },
        {
          "internalType": "uint256",
          "name": "tokenId",
          "type": "uint256"
        }
      ],
      "name": "approve",
      "outputs": [],
      "stateMutability": "payable",
      "type": "function"
    },
    {
      "inputs": [
        {
          "internalType": "address",
          "name": "owner",
          "type": "address"
        }
      ],
      "name": "balanceOf",
      "outputs": [
        {
          "internalType": "uint256",
          "name": "",
          "type": "uint256"
        }
      ],
      "stateMutability": "view",
      "type": "function"
    },
    {
      "inputs": [
        {
          "internalType": "string",
          "name": "name",
          "type": "string"
        },
        {
          "internalType": "string",
          "name": "description",
          "type": "string"
        }
      ],
      "name": "createRepository",
      "outputs": [
        {
          "internalType": "uint256",
          "name": "",
          "type": "uint256"
        }
      ],
      "stateMutability": "nonpayable",
      "type": "function"
    },
    {
      "inputs": [
        {
          "internalType": "uint256",
          "name": "id",
          "type": "uint256"
        }
      ],
      "name": "deleteRepository",
      "outputs": [],
      "stateMutability": "nonpayable",
      "type": "function"
    },
    {
      "inputs": [],
      "name": "getAllRepositories",
      "outputs": [
        {
          "components": [
            {
              "internalType": "uint256",
              "name": "id",
              "type": "uint256"
            },
            {
              "internalType": "string",
              "name": "name",
              "type": "string"
            },
            {
              "internalType": "string",
              "name": "description",
              "type": "string"
            },
            {
              "internalType": "address",
              "name": "owner",
              "type": "address"
            },
            {
              "internalType": "string",
              "name": "IPFS",
              "type": "string"
            }
          ],
          "internalType": "struct Gitsec.Repository[]",
          "name": "",
          "type": "tuple[]"
        }
      ],
      "stateMutability": "view",
      "type": "function"
    },
    {
      "inputs": [
        {
          "internalType": "uint256",
          "name": "tokenId",
          "type": "uint256"
        }
      ],
      "name": "getApproved",
      "outputs": [
        {
          "internalType": "address",
          "name": "",
          "type": "address"
        }
      ],
      "stateMutability": "view",
      "type": "function"
    },
    {
      "inputs": [
        {
          "internalType": "uint256",
          "name": "id",
          "type": "uint256"
        }
      ],
      "name": "getRepository",
      "outputs": [
        {
          "components": [
            {
              "internalType": "uint256",
              "name": "id",
              "type": "uint256"
            },
            {
              "internalType": "string",
              "name": "name",
              "type": "string"
            },
            {
              "internalType": "string",
              "name": "description",
              "type": "string"
            },
            {
              "internalType": "address",
              "name": "owner",
              "type": "address"
            },
            {
              "internalType": "string",
              "name": "IPFS",
              "type": "string"
            }
          ],
          "internalType": "struct Gitsec.Repository",
          "name": "",
          "type": "tuple"
        }
      ],
      "stateMutability": "view",
      "type": "function"
    },
    {
      "inputs": [
        {
          "internalType": "address",
          "name": "user",
          "type": "address"
        }
      ],
      "name": "getUserRepositories",
      "outputs": [
        {
          "components": [
            {
              "internalType": "uint256",
              "name": "id",
              "type": "uint256"
            },
            {
              "internalType": "string",
              "name": "name",
              "type": "string"
            },
            {
              "internalType": "string",
              "name": "description",
              "type": "string"
            },
            {
              "internalType": "address",
              "name": "owner",
              "type": "address"
            },
            {
              "internalType": "string",
              "name": "IPFS",
              "type": "string"
            }
          ],
          "internalType": "struct Gitsec.Repository[]",
          "name": "",
          "type": "tuple[]"
        }
      ],
      "stateMutability": "view",
      "type": "function"
    },
    {
      "inputs": [
        {
          "internalType": "address",
          "name": "owner",
          "type": "address"
        },
        {
          "internalType": "address",
          "name": "operator",
          "type": "address"
        }
      ],
      "name": "isApprovedForAll",
      "outputs": [
        {
          "internalType": "bool",
          "name": "",
          "type": "bool"
        }
      ],
      "stateMutability": "view",
      "type": "function"
    },
    {
      "inputs": [],
      "name": "name",
      "outputs": [
        {
          "internalType": "string",
          "name": "",
          "type": "string"
        }
      ],
      "stateMutability": "view",
      "type": "function"
    },
    {
      "inputs": [],
      "name": "owner",
      "outputs": [
        {
          "internalType": "address",
          "name": "",
          "type": "address"
        }
      ],
      "stateMutability": "view",
      "type": "function"
    },
    {
      "inputs": [
        {
          "internalType": "uint256",
          "name": "tokenId",
          "type": "uint256"
        }
      ],
      "name": "ownerOf",
      "outputs": [
        {
          "internalType": "address",
          "name": "",
          "type": "address"
        }
      ],
      "stateMutability": "view",
      "type": "function"
    },
    {
      "inputs": [],
      "name": "renounceOwnership",
      "outputs": [],
      "stateMutability": "nonpayable",
      "type": "function"
    },
    {
      "inputs": [
        {
          "internalType": "address",
          "name": "from",
          "type": "address"
        },
        {
          "internalType": "address",
          "name": "to",
          "type": "address"
        },
        {
          "internalType": "uint256",
          "name": "tokenId",
          "type": "uint256"
        }
      ],
      "name": "safeTransferFrom",
      "outputs": [],
      "stateMutability": "payable",
      "type": "function"
    },
    {
      "inputs": [
        {
          "internalType": "address",
          "name": "from",
          "type": "address"
        },
        {
          "internalType": "address",
          "name": "to",
          "type": "address"
        },
        {
          "internalType": "uint256",
          "name": "tokenId",
          "type": "uint256"
        },
        {
          "internalType": "bytes",
          "name": "_data",
          "type": "bytes"
        }
      ],
      "name": "safeTransferFrom",
      "outputs": [],
      "stateMutability": "payable",
      "type": "function"
    },
    {
      "inputs": [
        {
          "internalType": "address",
          "name": "newAdmin",
          "type": "address"
        }
      ],
      "name": "setAdmin",
      "outputs": [],
      "stateMutability": "nonpayable",
      "type": "function"
    },
    {
      "inputs": [
        {
          "internalType": "address",
          "name": "operator",
          "type": "address"
        },
        {
          "internalType": "bool",
          "name": "approved",
          "type": "bool"
        }
      ],
      "name": "setApprovalForAll",
      "outputs": [],
      "stateMutability": "nonpayable",
      "type": "function"
    },
    {
      "inputs": [
        {
          "internalType": "bytes4",
          "name": "interfaceId",
          "type": "bytes4"
        }
      ],
      "name": "supportsInterface",
      "outputs": [
        {
          "internalType": "bool",
          "name": "",
          "type": "bool"
        }
      ],
      "stateMutability": "view",
      "type": "function"
    },
    {
      "inputs": [],
      "name": "symbol",
      "outputs": [
        {
          "internalType": "string",
          "name": "",
          "type": "string"
        }
      ],
      "stateMutability": "view",
      "type": "function"
    },
    {
      "inputs": [
        {
          "internalType": "uint256",
          "name": "tokenId",
          "type": "uint256"
        }
      ],
      "name": "tokenURI",
      "outputs": [
        {
          "internalType": "string",
          "name": "",
          "type": "string"
        }
      ],
      "stateMutability": "view",
      "type": "function"
    },
    {
      "inputs": [],
      "name": "totalSupply",
      "outputs": [
        {
          "internalType": "uint256",
          "name": "",
          "type": "uint256"
        }
      ],
      "stateMutability": "view",
      "type": "function"
    },
    {
      "inputs": [
        {
          "internalType": "address",
          "name": "from",
          "type": "address"
        },
        {
          "internalType": "address",
          "name": "to",
          "type": "address"
        },
        {
          "internalType": "uint256",
          "name": "tokenId",
          "type": "uint256"
        }
      ],
      "name": "transferFrom",
      "outputs": [],
      "stateMutability": "payable",
      "type": "function"
    },
    {
      "inputs": [
        {
          "internalType": "address",
          "name": "newOwner",
          "type": "address"
        }
      ],
      "name": "transferOwnership",
      "outputs": [],
      "stateMutability": "nonpayable",
      "type": "function"
    },
    {
      "inputs": [
        {
          "internalType": "uint256",
          "name": "id",
          "type": "uint256"
        },
        {
          "internalType": "string",
          "name": "newDescription",
          "type": "string"
        }
      ],
      "name": "updateDescription",
      "outputs": [],
      "stateMutability": "nonpayable",
      "type": "function"
    },
    {
      "inputs": [
        {
          "internalType": "uint256",
          "name": "id",
          "type": "uint256"
        },
        {
          "internalType": "string",
          "name": "newIPFS",
          "type": "string"
        }
      ],
      "name": "updateIPFS",
      "outputs": [],
      "stateMutability": "nonpayable",
      "type": "function"
    }
  ],
  "bytecode": "0x60806040523480156200001157600080fd5b506040516200464338038062004643833981810160405281019062000037919062000307565b818181600290816200004a9190620005d7565b5080600390816200005c9190620005d7565b506200006d6200009d60201b60201c565b60008190555050506200009562000089620000a660201b60201c565b620000ae60201b60201c565b5050620006be565b60006001905090565b600033905090565b6000600860009054906101000a900473ffffffffffffffffffffffffffffffffffffffff16905081600860006101000a81548173ffffffffffffffffffffffffffffffffffffffff021916908373ffffffffffffffffffffffffffffffffffffffff1602179055508173ffffffffffffffffffffffffffffffffffffffff168173ffffffffffffffffffffffffffffffffffffffff167f8be0079c531659141344cd1fd0a4f28419497f9722a3daafe3b4186f6b6457e060405160405180910390a35050565b6000604051905090565b600080fd5b600080fd5b600080fd5b600080fd5b6000601f19601f8301169050919050565b7f4e487b7100000000000000000000000000000000000000000000000000000000600052604160045260246000fd5b620001dd8262000192565b810181811067ffffffffffffffff82111715620001ff57620001fe620001a3565b5b80604052505050565b60006200021462000174565b9050620002228282620001d2565b919050565b600067ffffffffffffffff821115620002455762000244620001a3565b5b620002508262000192565b9050602081019050919050565b60005b838110156200027d57808201518184015260208101905062000260565b60008484015250505050565b6000620002a06200029a8462000227565b62000208565b905082815260208101848484011115620002bf57620002be6200018d565b5b620002cc8482856200025d565b509392505050565b600082601f830112620002ec57620002eb62000188565b5b8151620002fe84826020860162000289565b91505092915050565b600080604083850312156200032157620003206200017e565b5b600083015167ffffffffffffffff81111562000342576200034162000183565b5b6200035085828601620002d4565b925050602083015167ffffffffffffffff81111562000374576200037362000183565b5b6200038285828601620002d4565b9150509250929050565b600081519050919050565b7f4e487b7100000000000000000000000000000000000000000000000000000000600052602260045260246000fd5b60006002820490506001821680620003df57607f821691505b602082108103620003f557620003f462000397565b5b50919050565b60008190508160005260206000209050919050565b60006020601f8301049050919050565b600082821b905092915050565b6000600883026200045f7fffffffffffffffffffffffffffffffffffffffffffffffffffffffffffffffff8262000420565b6200046b868362000420565b95508019841693508086168417925050509392505050565b6000819050919050565b6000819050919050565b6000620004b8620004b2620004ac8462000483565b6200048d565b62000483565b9050919050565b6000819050919050565b620004d48362000497565b620004ec620004e382620004bf565b8484546200042d565b825550505050565b600090565b62000503620004f4565b62000510818484620004c9565b505050565b5b8181101562000538576200052c600082620004f9565b60018101905062000516565b5050565b601f82111562000587576200055181620003fb565b6200055c8462000410565b810160208510156200056c578190505b620005846200057b8562000410565b83018262000515565b50505b505050565b600082821c905092915050565b6000620005ac600019846008026200058c565b1980831691505092915050565b6000620005c7838362000599565b9150826002028217905092915050565b620005e2826200038c565b67ffffffffffffffff811115620005fe57620005fd620001a3565b5b6200060a8254620003c6565b620006178282856200053c565b600060209050601f8311600181146200064f57600084156200063a578287015190505b620006468582620005b9565b865550620006b6565b601f1984166200065f86620003fb565b60005b82811015620006895784890151825560018201915060208501945060208101905062000662565b86831015620006a95784890151620006a5601f89168262000599565b8355505b6001600288020188555050505b505050505050565b613f7580620006ce6000396000f3fe6080604052600436106101815760003560e01c8063715018a6116100d1578063a22cb4651161008a578063c87b56dd11610064578063c87b56dd1461055c578063e985e9c514610599578063f2fde38b146105d6578063f851a440146105ff57610181565b8063a22cb465146104da578063b88d4fde14610503578063c26927601461051f57610181565b8063715018a6146103dc5780637d2d7e30146103f35780637fcc83be146104305780638da5cb5b1461045b57806392e41c6e1461048657806395d89b41146104af57610181565b806323b872dd1161013e5780635be08933116101185780635be08933146102fc5780636352211e14610339578063704b6c021461037657806370a082311461039f57610181565b806323b872dd1461029b57806330d8bb9b146102b757806342842e0e146102e057610181565b806301ffc9a71461018657806306fdde03146101c3578063081812fc146101ee578063095ea7b31461022b57806314dee4b31461024757806318160ddd14610270575b600080fd5b34801561019257600080fd5b506101ad60048036038101906101a89190612dd5565b61062a565b6040516101ba9190612e1d565b60405180910390f35b3480156101cf57600080fd5b506101d86106bc565b6040516101e59190612ec8565b60405180910390f35b3480156101fa57600080fd5b5061021560048036038101906102109190612f20565b61074e565b6040516102229190612f8e565b60405180910390f35b61024560048036038101906102409190612fd5565b6107cd565b005b34801561025357600080fd5b5061026e6004803603810190610269919061314a565b610911565b005b34801561027c57600080fd5b506102856109f7565b60405161029291906131b5565b60405180910390f35b6102b560048036038101906102b091906131d0565b610a0e565b005b3480156102c357600080fd5b506102de60048036038101906102d9919061314a565b610d30565b005b6102fa60048036038101906102f591906131d0565b610e38565b005b34801561030857600080fd5b50610323600480360381019061031e9190612f20565b610e58565b604051610330919061330f565b60405180910390f35b34801561034557600080fd5b50610360600480360381019061035b9190612f20565b61109b565b60405161036d9190612f8e565b60405180910390f35b34801561038257600080fd5b5061039d60048036038101906103989190613331565b6110ad565b005b3480156103ab57600080fd5b506103c660048036038101906103c19190613331565b6110f9565b6040516103d391906131b5565b60405180910390f35b3480156103e857600080fd5b506103f16111b1565b005b3480156103ff57600080fd5b5061041a60048036038101906104159190613331565b6111c5565b60405161042791906134a4565b60405180910390f35b34801561043c57600080fd5b5061044561155c565b60405161045291906134a4565b60405180910390f35b34801561046757600080fd5b506104706118b7565b60405161047d9190612f8e565b60405180910390f35b34801561049257600080fd5b506104ad60048036038101906104a89190612f20565b6118e1565b005b3480156104bb57600080fd5b506104c4611c56565b6040516104d19190612ec8565b60405180910390f35b3480156104e657600080fd5b5061050160048036038101906104fc91906134f2565b611ce8565b005b61051d600480360381019061051891906135d3565b611df3565b005b34801561052b57600080fd5b5061054660048036038101906105419190613656565b611e66565b60405161055391906131b5565b60405180910390f35b34801561056857600080fd5b50610583600480360381019061057e9190612f20565b612020565b6040516105909190612ec8565b60405180910390f35b3480156105a557600080fd5b506105c060048036038101906105bb91906136ce565b6120be565b6040516105cd9190612e1d565b60405180910390f35b3480156105e257600080fd5b506105fd60048036038101906105f89190613331565b612152565b005b34801561060b57600080fd5b506106146121d5565b6040516106219190612f8e565b60405180910390f35b60006301ffc9a760e01b827bffffffffffffffffffffffffffffffffffffffffffffffffffffffff1916148061068557506380ac58cd60e01b827bffffffffffffffffffffffffffffffffffffffffffffffffffffffff1916145b806106b55750635b5e139f60e01b827bffffffffffffffffffffffffffffffffffffffffffffffffffffffff1916145b9050919050565b6060600280546106cb9061373d565b80601f01602080910402602001604051908101604052809291908181526020018280546106f79061373d565b80156107445780601f1061071957610100808354040283529160200191610744565b820191906000526020600020905b81548152906001019060200180831161072757829003601f168201915b5050505050905090565b6000610759826121ff565b61078f576040517fcf4700e400000000000000000000000000000000000000000000000000000000815260040160405180910390fd5b6006600083815260200190815260200160002060000160009054906101000a900473ffffffffffffffffffffffffffffffffffffffff169050919050565b60006107d88261109b565b90508073ffffffffffffffffffffffffffffffffffffffff166107f961225e565b73ffffffffffffffffffffffffffffffffffffffff161461085c576108258161082061225e565b6120be565b61085b576040517fcfb3b94200000000000000000000000000000000000000000000000000000000815260040160405180910390fd5b5b826006600084815260200190815260200160002060000160006101000a81548173ffffffffffffffffffffffffffffffffffffffff021916908373ffffffffffffffffffffffffffffffffffffffff160217905550818373ffffffffffffffffffffffffffffffffffffffff168273ffffffffffffffffffffffffffffffffffffffff167f8c5be1e5ebec7d5bd14f71427d1e84f3dd0314c0f7b2291e5b200ac8c7c3b92560405160405180910390a4505050565b61091a826121ff565b610959576040517f08c379a0000000000000000000000000000000000000000000000000000000008152600401610950906137e0565b60405180910390fd5b3373ffffffffffffffffffffffffffffffffffffffff166109798361109b565b73ffffffffffffffffffffffffffffffffffffffff16146109cf576040517f08c379a00000000000000000000000000000000000000000000000000000000081526004016109c690613872565b60405180910390fd5b806009600084815260200190815260200160002060020190816109f29190613a3e565b505050565b6000610a01612266565b6001546000540303905090565b6000610a198261226f565b90508373ffffffffffffffffffffffffffffffffffffffff168173ffffffffffffffffffffffffffffffffffffffff1614610a80576040517fa114810000000000000000000000000000000000000000000000000000000000815260040160405180910390fd5b600080610a8c8461233b565b91509150610aa28187610a9d61225e565b612362565b610aee57610ab786610ab261225e565b6120be565b610aed576040517f59c896be00000000000000000000000000000000000000000000000000000000815260040160405180910390fd5b5b600073ffffffffffffffffffffffffffffffffffffffff168573ffffffffffffffffffffffffffffffffffffffff1603610b54576040517fea553b3400000000000000000000000000000000000000000000000000000000815260040160405180910390fd5b610b6186868660016123a6565b8015610b6c57600082555b600560008773ffffffffffffffffffffffffffffffffffffffff1673ffffffffffffffffffffffffffffffffffffffff168152602001908152602001600020600081546001900391905081905550600560008673ffffffffffffffffffffffffffffffffffffffff1673ffffffffffffffffffffffffffffffffffffffff1681526020019081526020016000206000815460010191905081905550610c3a85610c168888876123ac565b7c0200000000000000000000000000000000000000000000000000000000176123d4565b600460008681526020019081526020016000208190555060007c0200000000000000000000000000000000000000000000000000000000841603610cc05760006001850190506000600460008381526020019081526020016000205403610cbe576000548114610cbd578360046000838152602001908152602001600020819055505b5b505b838573ffffffffffffffffffffffffffffffffffffffff168773ffffffffffffffffffffffffffffffffffffffff167fddf252ad1be2c89b69c2b068fc378daa952ba7f163c4a11628f55a4df523b3ef60405160405180910390a4610d2886868660016123ff565b505050505050565b610d39826121ff565b610d78576040517f08c379a0000000000000000000000000000000000000000000000000000000008152600401610d6f906137e0565b60405180910390fd5b610d828233612405565b610dc1576040517f08c379a0000000000000000000000000000000000000000000000000000000008152600401610db890613b82565b60405180910390fd5b80600960008481526020019081526020016000206004019081610de49190613a3e565b503373ffffffffffffffffffffffffffffffffffffffff16827f40a9418af964c87768383b4b3aebe2d80f69c88cb618bbf0d194a1bf203e4e8983604051610e2c9190612ec8565b60405180910390a35050565b610e5383838360405180602001604052806000815250611df3565b505050565b610e60612cc7565b600960008381526020019081526020016000206040518060a001604052908160008201548152602001600182018054610e989061373d565b80601f0160208091040260200160405190810160405280929190818152602001828054610ec49061373d565b8015610f115780601f10610ee657610100808354040283529160200191610f11565b820191906000526020600020905b815481529060010190602001808311610ef457829003601f168201915b50505050508152602001600282018054610f2a9061373d565b80601f0160208091040260200160405190810160405280929190818152602001828054610f569061373d565b8015610fa35780601f10610f7857610100808354040283529160200191610fa3565b820191906000526020600020905b815481529060010190602001808311610f8657829003601f168201915b505050505081526020016003820160009054906101000a900473ffffffffffffffffffffffffffffffffffffffff1673ffffffffffffffffffffffffffffffffffffffff1673ffffffffffffffffffffffffffffffffffffffff1681526020016004820180546110129061373d565b80601f016020809104026020016040519081016040528092919081815260200182805461103e9061373d565b801561108b5780601f106110605761010080835404028352916020019161108b565b820191906000526020600020905b81548152906001019060200180831161106e57829003601f168201915b5050505050815250509050919050565b60006110a68261226f565b9050919050565b6110b56124cc565b80600b60006101000a81548173ffffffffffffffffffffffffffffffffffffffff021916908373ffffffffffffffffffffffffffffffffffffffff16021790555050565b60008073ffffffffffffffffffffffffffffffffffffffff168273ffffffffffffffffffffffffffffffffffffffff1603611160576040517f8f4eb60400000000000000000000000000000000000000000000000000000000815260040160405180910390fd5b67ffffffffffffffff600560008473ffffffffffffffffffffffffffffffffffffffff1673ffffffffffffffffffffffffffffffffffffffff16815260200190815260200160002054169050919050565b6111b96124cc565b6111c3600061254a565b565b60606000600a60008473ffffffffffffffffffffffffffffffffffffffff1673ffffffffffffffffffffffffffffffffffffffff1681526020019081526020016000208054905067ffffffffffffffff8111156112255761122461301f565b5b60405190808252806020026020018201604052801561125e57816020015b61124b612cc7565b8152602001906001900390816112435790505b5090506000805b61126d612610565b811015611551578473ffffffffffffffffffffffffffffffffffffffff166009600083815260200190815260200160002060030160009054906101000a900473ffffffffffffffffffffffffffffffffffffffff1673ffffffffffffffffffffffffffffffffffffffff160361153e57600960008281526020019081526020016000206040518060a0016040529081600082015481526020016001820180546113159061373d565b80601f01602080910402602001604051908101604052809291908181526020018280546113419061373d565b801561138e5780601f106113635761010080835404028352916020019161138e565b820191906000526020600020905b81548152906001019060200180831161137157829003601f168201915b505050505081526020016002820180546113a79061373d565b80601f01602080910402602001604051908101604052809291908181526020018280546113d39061373d565b80156114205780601f106113f557610100808354040283529160200191611420565b820191906000526020600020905b81548152906001019060200180831161140357829003601f168201915b505050505081526020016003820160009054906101000a900473ffffffffffffffffffffffffffffffffffffffff1673ffffffffffffffffffffffffffffffffffffffff1673ffffffffffffffffffffffffffffffffffffffff16815260200160048201805461148f9061373d565b80601f01602080910402602001604051908101604052809291908181526020018280546114bb9061373d565b80156115085780601f106114dd57610100808354040283529160200191611508565b820191906000526020600020905b8154815290600101906020018083116114eb57829003601f168201915b50505050508152505083838151811061152457611523613ba2565b5b6020026020010181905250818061153a90613c00565b9250505b808061154990613c00565b915050611265565b508192505050919050565b606060006115686109f7565b67ffffffffffffffff8111156115815761158061301f565b5b6040519080825280602002602001820160405280156115ba57816020015b6115a7612cc7565b81526020019060019003908161159f5790505b5090506000805b6115c9612610565b8110156118ae57600073ffffffffffffffffffffffffffffffffffffffff166009600083815260200190815260200160002060030160009054906101000a900473ffffffffffffffffffffffffffffffffffffffff1673ffffffffffffffffffffffffffffffffffffffff161461189b57600960008281526020019081526020016000206040518060a0016040529081600082015481526020016001820180546116729061373d565b80601f016020809104026020016040519081016040528092919081815260200182805461169e9061373d565b80156116eb5780601f106116c0576101008083540402835291602001916116eb565b820191906000526020600020905b8154815290600101906020018083116116ce57829003601f168201915b505050505081526020016002820180546117049061373d565b80601f01602080910402602001604051908101604052809291908181526020018280546117309061373d565b801561177d5780601f106117525761010080835404028352916020019161177d565b820191906000526020600020905b81548152906001019060200180831161176057829003601f168201915b505050505081526020016003820160009054906101000a900473ffffffffffffffffffffffffffffffffffffffff1673ffffffffffffffffffffffffffffffffffffffff1673ffffffffffffffffffffffffffffffffffffffff1681526020016004820180546117ec9061373d565b80601f01602080910402602001604051908101604052809291908181526020018280546118189061373d565b80156118655780601f1061183a57610100808354040283529160200191611865565b820191906000526020600020905b81548152906001019060200180831161184857829003601f168201915b50505050508152505083838151811061188157611880613ba2565b5b6020026020010181905250818061189790613c00565b9250505b80806118a690613c00565b9150506115c1565b50819250505090565b6000600860009054906101000a900473ffffffffffffffffffffffffffffffffffffffff16905090565b6118ea816121ff565b611929576040517f08c379a0000000000000000000000000000000000000000000000000000000008152600401611920906137e0565b60405180910390fd5b3373ffffffffffffffffffffffffffffffffffffffff166119498261109b565b73ffffffffffffffffffffffffffffffffffffffff161461199f576040517f08c379a000000000000000000000000000000000000000000000000000000000815260040161199690613872565b60405180910390fd5b6119a881612619565b600960008281526020019081526020016000206000808201600090556001820160006119d49190612d0c565b6002820160006119e49190612d0c565b6003820160006101000a81549073ffffffffffffffffffffffffffffffffffffffff0219169055600482016000611a1b9190612d0c565b505060005b600a60003373ffffffffffffffffffffffffffffffffffffffff1673ffffffffffffffffffffffffffffffffffffffff16815260200190815260200160002080549050811015611c525781600a60003373ffffffffffffffffffffffffffffffffffffffff1673ffffffffffffffffffffffffffffffffffffffff1681526020019081526020016000208281548110611abc57611abb613ba2565b5b906000526020600020015403611c3f57600a60003373ffffffffffffffffffffffffffffffffffffffff1673ffffffffffffffffffffffffffffffffffffffff1681526020019081526020016000206001600a60003373ffffffffffffffffffffffffffffffffffffffff1673ffffffffffffffffffffffffffffffffffffffff16815260200190815260200160002080549050611b5a9190613c48565b81548110611b6b57611b6a613ba2565b5b9060005260206000200154600a60003373ffffffffffffffffffffffffffffffffffffffff1673ffffffffffffffffffffffffffffffffffffffff1681526020019081526020016000208281548110611bc757611bc6613ba2565b5b9060005260206000200181905550600a60003373ffffffffffffffffffffffffffffffffffffffff1673ffffffffffffffffffffffffffffffffffffffff168152602001908152602001600020805480611c2457611c23613c7c565b5b60019003818190600052602060002001600090559055611c52565b8080611c4a90613c00565b915050611a20565b5050565b606060038054611c659061373d565b80601f0160208091040260200160405190810160405280929190818152602001828054611c919061373d565b8015611cde5780601f10611cb357610100808354040283529160200191611cde565b820191906000526020600020905b815481529060010190602001808311611cc157829003601f168201915b5050505050905090565b8060076000611cf561225e565b73ffffffffffffffffffffffffffffffffffffffff1673ffffffffffffffffffffffffffffffffffffffff16815260200190815260200160002060008473ffffffffffffffffffffffffffffffffffffffff1673ffffffffffffffffffffffffffffffffffffffff16815260200190815260200160002060006101000a81548160ff0219169083151502179055508173ffffffffffffffffffffffffffffffffffffffff16611da261225e565b73ffffffffffffffffffffffffffffffffffffffff167f17307eab39ab6107e8899845ad3d59bd9653f200f220920489ca2b5937696c3183604051611de79190612e1d565b60405180910390a35050565b611dfe848484610a0e565b60008373ffffffffffffffffffffffffffffffffffffffff163b14611e6057611e2984848484612627565b611e5f576040517fd1a57ed600000000000000000000000000000000000000000000000000000000815260040160405180910390fd5b5b50505050565b600080611e71612610565b9050611e7e336001612777565b6040518060a001604052808281526020018581526020018481526020013373ffffffffffffffffffffffffffffffffffffffff1681526020016040518060200160405280600081525081525060096000838152602001908152602001600020600082015181600001556020820151816001019081611efc9190613a3e565b506040820151816002019081611f129190613a3e565b5060608201518160030160006101000a81548173ffffffffffffffffffffffffffffffffffffffff021916908373ffffffffffffffffffffffffffffffffffffffff1602179055506080820151816004019081611f6f9190613a3e565b50905050600a60003373ffffffffffffffffffffffffffffffffffffffff1673ffffffffffffffffffffffffffffffffffffffff1681526020019081526020016000208190806001815401808255809150506001900390600052602060002001600090919091909150557f5cf1e457076521acb7531066dee0401e9eb2b6fbf964617e4593c4a7c2f2e77e8185338660405161200e9493929190613cab565b60405180910390a18091505092915050565b606061202b826121ff565b612061576040517fa14c4b5000000000000000000000000000000000000000000000000000000000815260040160405180910390fd5b600061206b612795565b9050600081510361208b57604051806020016040528060008152506120b6565b80612095846127ac565b6040516020016120a6929190613d3a565b6040516020818303038152906040525b915050919050565b6000600760008473ffffffffffffffffffffffffffffffffffffffff1673ffffffffffffffffffffffffffffffffffffffff16815260200190815260200160002060008373ffffffffffffffffffffffffffffffffffffffff1673ffffffffffffffffffffffffffffffffffffffff16815260200190815260200160002060009054906101000a900460ff16905092915050565b61215a6124cc565b600073ffffffffffffffffffffffffffffffffffffffff168173ffffffffffffffffffffffffffffffffffffffff16036121c9576040517f08c379a00000000000000000000000000000000000000000000000000000000081526004016121c090613dd0565b60405180910390fd5b6121d28161254a565b50565b6000600b60009054906101000a900473ffffffffffffffffffffffffffffffffffffffff16905090565b60008161220a612266565b11158015612219575060005482105b8015612257575060007c0100000000000000000000000000000000000000000000000000000000600460008581526020019081526020016000205416145b9050919050565b600033905090565b60006001905090565b6000808290508061227e612266565b11612304576000548110156123035760006004600083815260200190815260200160002054905060007c0100000000000000000000000000000000000000000000000000000000821603612301575b600081036122f75760046000836001900393508381526020019081526020016000205490506122cd565b8092505050612336565b505b5b6040517fdf2d9b4200000000000000000000000000000000000000000000000000000000815260040160405180910390fd5b919050565b60008060006006600085815260200190815260200160002090508092508254915050915091565b600073ffffffffffffffffffffffffffffffffffffffff8316925073ffffffffffffffffffffffffffffffffffffffff821691508382148383141790509392505050565b50505050565b60008060e883901c905060e86123c38686846127fc565b62ffffff16901b9150509392505050565b600073ffffffffffffffffffffffffffffffffffffffff83169250814260a01b178317905092915050565b50505050565b60008173ffffffffffffffffffffffffffffffffffffffff166009600085815260200190815260200160002060030160009054906101000a900473ffffffffffffffffffffffffffffffffffffffff1673ffffffffffffffffffffffffffffffffffffffff1614806124c457508173ffffffffffffffffffffffffffffffffffffffff16600b60009054906101000a900473ffffffffffffffffffffffffffffffffffffffff1673ffffffffffffffffffffffffffffffffffffffff16145b905092915050565b6124d4612805565b73ffffffffffffffffffffffffffffffffffffffff166124f26118b7565b73ffffffffffffffffffffffffffffffffffffffff1614612548576040517f08c379a000000000000000000000000000000000000000000000000000000000815260040161253f90613e3c565b60405180910390fd5b565b6000600860009054906101000a900473ffffffffffffffffffffffffffffffffffffffff16905081600860006101000a81548173ffffffffffffffffffffffffffffffffffffffff021916908373ffffffffffffffffffffffffffffffffffffffff1602179055508173ffffffffffffffffffffffffffffffffffffffff168173ffffffffffffffffffffffffffffffffffffffff167f8be0079c531659141344cd1fd0a4f28419497f9722a3daafe3b4186f6b6457e060405160405180910390a35050565b60008054905090565b61262481600061280d565b50565b60008373ffffffffffffffffffffffffffffffffffffffff1663150b7a0261264d61225e565b8786866040518563ffffffff1660e01b815260040161266f9493929190613eb1565b6020604051808303816000875af19250505080156126ab57506040513d601f19601f820116820180604052508101906126a89190613f12565b60015b612724573d80600081146126db576040519150601f19603f3d011682016040523d82523d6000602084013e6126e0565b606091505b50600081510361271c576040517fd1a57ed600000000000000000000000000000000000000000000000000000000815260040160405180910390fd5b805181602001fd5b63150b7a0260e01b7bffffffffffffffffffffffffffffffffffffffffffffffffffffffff1916817bffffffffffffffffffffffffffffffffffffffffffffffffffffffff191614915050949350505050565b612791828260405180602001604052806000815250612a5f565b5050565b606060405180602001604052806000815250905090565b606060a060405101806040526020810391506000825281835b6001156127e757600184039350600a81066030018453600a81049050806127c5575b50828103602084039350808452505050919050565b60009392505050565b600033905090565b60006128188361226f565b9050600081905060008061282b8661233b565b91509150841561289457612847818461284261225e565b612362565b6128935761285c8361285761225e565b6120be565b612892576040517f59c896be00000000000000000000000000000000000000000000000000000000815260040160405180910390fd5b5b5b6128a28360008860016123a6565b80156128ad57600082555b600160806001901b03600560008573ffffffffffffffffffffffffffffffffffffffff1673ffffffffffffffffffffffffffffffffffffffff1681526020019081526020016000206000828254019250508190555061295583612912856000886123ac565b7c02000000000000000000000000000000000000000000000000000000007c010000000000000000000000000000000000000000000000000000000017176123d4565b600460008881526020019081526020016000208190555060007c02000000000000000000000000000000000000000000000000000000008516036129db57600060018701905060006004600083815260200190815260200160002054036129d95760005481146129d8578460046000838152602001908152602001600020819055505b5b505b85600073ffffffffffffffffffffffffffffffffffffffff168473ffffffffffffffffffffffffffffffffffffffff167fddf252ad1be2c89b69c2b068fc378daa952ba7f163c4a11628f55a4df523b3ef60405160405180910390a4612a458360008860016123ff565b600160008154809291906001019190505550505050505050565b612a698383612afc565b60008373ffffffffffffffffffffffffffffffffffffffff163b14612af757600080549050600083820390505b612aa96000868380600101945086612627565b612adf576040517fd1a57ed600000000000000000000000000000000000000000000000000000000815260040160405180910390fd5b818110612a96578160005414612af457600080fd5b50505b505050565b60008054905060008203612b3c576040517fb562e8dd00000000000000000000000000000000000000000000000000000000815260040160405180910390fd5b612b4960008483856123a6565b600160406001901b178202600560008573ffffffffffffffffffffffffffffffffffffffff1673ffffffffffffffffffffffffffffffffffffffff16815260200190815260200160002060008282540192505081905550612bc083612bb160008660006123ac565b612bba85612cb7565b176123d4565b6004600083815260200190815260200160002081905550600080838301905073ffffffffffffffffffffffffffffffffffffffff85169150828260007fddf252ad1be2c89b69c2b068fc378daa952ba7f163c4a11628f55a4df523b3ef600080a4600183015b818114612c6157808360007fddf252ad1be2c89b69c2b068fc378daa952ba7f163c4a11628f55a4df523b3ef600080a4600181019050612c26565b5060008203612c9c576040517f2e07630000000000000000000000000000000000000000000000000000000000815260040160405180910390fd5b806000819055505050612cb260008483856123ff565b505050565b60006001821460e11b9050919050565b6040518060a00160405280600081526020016060815260200160608152602001600073ffffffffffffffffffffffffffffffffffffffff168152602001606081525090565b508054612d189061373d565b6000825580601f10612d2a5750612d49565b601f016020900490600052602060002090810190612d489190612d4c565b5b50565b5b80821115612d65576000816000905550600101612d4d565b5090565b6000604051905090565b600080fd5b600080fd5b60007fffffffff0000000000000000000000000000000000000000000000000000000082169050919050565b612db281612d7d565b8114612dbd57600080fd5b50565b600081359050612dcf81612da9565b92915050565b600060208284031215612deb57612dea612d73565b5b6000612df984828501612dc0565b91505092915050565b60008115159050919050565b612e1781612e02565b82525050565b6000602082019050612e326000830184612e0e565b92915050565b600081519050919050565b600082825260208201905092915050565b60005b83811015612e72578082015181840152602081019050612e57565b60008484015250505050565b6000601f19601f8301169050919050565b6000612e9a82612e38565b612ea48185612e43565b9350612eb4818560208601612e54565b612ebd81612e7e565b840191505092915050565b60006020820190508181036000830152612ee28184612e8f565b905092915050565b6000819050919050565b612efd81612eea565b8114612f0857600080fd5b50565b600081359050612f1a81612ef4565b92915050565b600060208284031215612f3657612f35612d73565b5b6000612f4484828501612f0b565b91505092915050565b600073ffffffffffffffffffffffffffffffffffffffff82169050919050565b6000612f7882612f4d565b9050919050565b612f8881612f6d565b82525050565b6000602082019050612fa36000830184612f7f565b92915050565b612fb281612f6d565b8114612fbd57600080fd5b50565b600081359050612fcf81612fa9565b92915050565b60008060408385031215612fec57612feb612d73565b5b6000612ffa85828601612fc0565b925050602061300b85828601612f0b565b9150509250929050565b600080fd5b600080fd5b7f4e487b7100000000000000000000000000000000000000000000000000000000600052604160045260246000fd5b61305782612e7e565b810181811067ffffffffffffffff821117156130765761307561301f565b5b80604052505050565b6000613089612d69565b9050613095828261304e565b919050565b600067ffffffffffffffff8211156130b5576130b461301f565b5b6130be82612e7e565b9050602081019050919050565b82818337600083830152505050565b60006130ed6130e88461309a565b61307f565b9050828152602081018484840111156131095761310861301a565b5b6131148482856130cb565b509392505050565b600082601f83011261313157613130613015565b5b81356131418482602086016130da565b91505092915050565b6000806040838503121561316157613160612d73565b5b600061316f85828601612f0b565b925050602083013567ffffffffffffffff8111156131905761318f612d78565b5b61319c8582860161311c565b9150509250929050565b6131af81612eea565b82525050565b60006020820190506131ca60008301846131a6565b92915050565b6000806000606084860312156131e9576131e8612d73565b5b60006131f786828701612fc0565b935050602061320886828701612fc0565b925050604061321986828701612f0b565b9150509250925092565b61322c81612eea565b82525050565b600082825260208201905092915050565b600061324e82612e38565b6132588185613232565b9350613268818560208601612e54565b61327181612e7e565b840191505092915050565b61328581612f6d565b82525050565b600060a0830160008301516132a36000860182613223565b50602083015184820360208601526132bb8282613243565b915050604083015184820360408601526132d58282613243565b91505060608301516132ea606086018261327c565b50608083015184820360808601526133028282613243565b9150508091505092915050565b60006020820190508181036000830152613329818461328b565b905092915050565b60006020828403121561334757613346612d73565b5b600061335584828501612fc0565b91505092915050565b600081519050919050565b600082825260208201905092915050565b6000819050602082019050919050565b600060a0830160008301516133a26000860182613223565b50602083015184820360208601526133ba8282613243565b915050604083015184820360408601526133d48282613243565b91505060608301516133e9606086018261327c565b50608083015184820360808601526134018282613243565b9150508091505092915050565b600061341a838361338a565b905092915050565b6000602082019050919050565b600061343a8261335e565b6134448185613369565b9350836020820285016134568561337a565b8060005b858110156134925784840389528151613473858261340e565b945061347e83613422565b925060208a0199505060018101905061345a565b50829750879550505050505092915050565b600060208201905081810360008301526134be818461342f565b905092915050565b6134cf81612e02565b81146134da57600080fd5b50565b6000813590506134ec816134c6565b92915050565b6000806040838503121561350957613508612d73565b5b600061351785828601612fc0565b9250506020613528858286016134dd565b9150509250929050565b600067ffffffffffffffff82111561354d5761354c61301f565b5b61355682612e7e565b9050602081019050919050565b600061357661357184613532565b61307f565b9050828152602081018484840111156135925761359161301a565b5b61359d8482856130cb565b509392505050565b600082601f8301126135ba576135b9613015565b5b81356135ca848260208601613563565b91505092915050565b600080600080608085870312156135ed576135ec612d73565b5b60006135fb87828801612fc0565b945050602061360c87828801612fc0565b935050604061361d87828801612f0b565b925050606085013567ffffffffffffffff81111561363e5761363d612d78565b5b61364a878288016135a5565b91505092959194509250565b6000806040838503121561366d5761366c612d73565b5b600083013567ffffffffffffffff81111561368b5761368a612d78565b5b6136978582860161311c565b925050602083013567ffffffffffffffff8111156136b8576136b7612d78565b5b6136c48582860161311c565b9150509250929050565b600080604083850312156136e5576136e4612d73565b5b60006136f385828601612fc0565b925050602061370485828601612fc0565b9150509250929050565b7f4e487b7100000000000000000000000000000000000000000000000000000000600052602260045260246000fd5b6000600282049050600182168061375557607f821691505b6020821081036137685761376761370e565b5b50919050565b7f4769747365633a206e6f207265706f7369746f727920666f756e64206279206760008201527f6976656e20494400000000000000000000000000000000000000000000000000602082015250565b60006137ca602783612e43565b91506137d58261376e565b604082019050919050565b600060208201905081810360008301526137f9816137bd565b9050919050565b7f4769747365633a2063616c6c6572206973206e6f7420746865207265706f736960008201527f746f7279206f776e657200000000000000000000000000000000000000000000602082015250565b600061385c602a83612e43565b915061386782613800565b604082019050919050565b6000602082019050818103600083015261388b8161384f565b9050919050565b60008190508160005260206000209050919050565b60006020601f8301049050919050565b600082821b905092915050565b6000600883026138f47fffffffffffffffffffffffffffffffffffffffffffffffffffffffffffffffff826138b7565b6138fe86836138b7565b95508019841693508086168417925050509392505050565b6000819050919050565b600061393b61393661393184612eea565b613916565b612eea565b9050919050565b6000819050919050565b61395583613920565b61396961396182613942565b8484546138c4565b825550505050565b600090565b61397e613971565b61398981848461394c565b505050565b5b818110156139ad576139a2600082613976565b60018101905061398f565b5050565b601f8211156139f2576139c381613892565b6139cc846138a7565b810160208510156139db578190505b6139ef6139e7856138a7565b83018261398e565b50505b505050565b600082821c905092915050565b6000613a15600019846008026139f7565b1980831691505092915050565b6000613a2e8383613a04565b9150826002028217905092915050565b613a4782612e38565b67ffffffffffffffff811115613a6057613a5f61301f565b5b613a6a825461373d565b613a758282856139b1565b600060209050601f831160018114613aa85760008415613a96578287015190505b613aa08582613a22565b865550613b08565b601f198416613ab686613892565b60005b82811015613ade57848901518255600182019150602085019450602081019050613ab9565b86831015613afb5784890151613af7601f891682613a04565b8355505b6001600288020188555050505b505050505050565b7f4769747365633a2063616c6c6572206973206e6f7420746865207265706f736960008201527f746f7279206f776e6572206f722061646d696e00000000000000000000000000602082015250565b6000613b6c603383612e43565b9150613b7782613b10565b604082019050919050565b60006020820190508181036000830152613b9b81613b5f565b9050919050565b7f4e487b7100000000000000000000000000000000000000000000000000000000600052603260045260246000fd5b7f4e487b7100000000000000000000000000000000000000000000000000000000600052601160045260246000fd5b6000613c0b82612eea565b91507fffffffffffffffffffffffffffffffffffffffffffffffffffffffffffffffff8203613c3d57613c3c613bd1565b5b600182019050919050565b6000613c5382612eea565b9150613c5e83612eea565b9250828203905081811115613c7657613c75613bd1565b5b92915050565b7f4e487b7100000000000000000000000000000000000000000000000000000000600052603160045260246000fd5b6000608082019050613cc060008301876131a6565b8181036020830152613cd28186612e8f565b9050613ce16040830185612f7f565b8181036060830152613cf38184612e8f565b905095945050505050565b600081905092915050565b6000613d1482612e38565b613d1e8185613cfe565b9350613d2e818560208601612e54565b80840191505092915050565b6000613d468285613d09565b9150613d528284613d09565b91508190509392505050565b7f4f776e61626c653a206e6577206f776e657220697320746865207a65726f206160008201527f6464726573730000000000000000000000000000000000000000000000000000602082015250565b6000613dba602683612e43565b9150613dc582613d5e565b604082019050919050565b60006020820190508181036000830152613de981613dad565b9050919050565b7f4f776e61626c653a2063616c6c6572206973206e6f7420746865206f776e6572600082015250565b6000613e26602083612e43565b9150613e3182613df0565b602082019050919050565b60006020820190508181036000830152613e5581613e19565b9050919050565b600081519050919050565b600082825260208201905092915050565b6000613e8382613e5c565b613e8d8185613e67565b9350613e9d818560208601612e54565b613ea681612e7e565b840191505092915050565b6000608082019050613ec66000830187612f7f565b613ed36020830186612f7f565b613ee060408301856131a6565b8181036060830152613ef28184613e78565b905095945050505050565b600081519050613f0c81612da9565b92915050565b600060208284031215613f2857613f27612d73565b5b6000613f3684828501613efd565b9150509291505056fea26469706673582212205da6ea143f9b6ad0f881c0fa9a9dfef5c5462e0e622b806b76f7140b61d1757864736f6c63430008110033",
  "linkReferences": {},
  "deployedLinkReferences": {}
}